{
	"contracts/SmartContractLessons/Visibility.sol": {
		"VisibilityChild": {
			"abi": [
				{
					"inputs": [],
					"name": "example",
					"outputs": [],
					"stateMutability": "view",
					"type": "function"
				},
				{
					"inputs": [],
					"name": "example2",
					"outputs": [],
					"stateMutability": "view",
					"type": "function"
				},
				{
					"inputs": [],
					"name": "externalFunction",
					"outputs": [
						{
							"internalType": "uint256",
							"name": "",
							"type": "uint256"
						}
					],
					"stateMutability": "pure",
					"type": "function"
				},
				{
					"inputs": [],
					"name": "publicFunction",
					"outputs": [
						{
							"internalType": "uint256",
							"name": "",
							"type": "uint256"
						}
					],
					"stateMutability": "pure",
					"type": "function"
				},
				{
					"inputs": [],
					"name": "z",
					"outputs": [
						{
							"internalType": "uint256",
							"name": "",
							"type": "uint256"
						}
					],
					"stateMutability": "view",
					"type": "function"
				}
			],
			"devdoc": {
				"kind": "dev",
				"methods": {},
				"version": 1
			},
			"evm": {
				"assembly": "    /* \"contracts/SmartContractLessons/Visibility.sol\":919:1027  contract VisibilityChild is VisibilityBase {... */\n  mstore(0x40, 0x80)\n    /* \"contracts/SmartContractLessons/Visibility.sol\":297:298  0 */\n  0x00\n    /* \"contracts/SmartContractLessons/Visibility.sol\":277:298  uint256 private x = 0 */\n  dup1\n  sstore\n    /* \"contracts/SmartContractLessons/Visibility.sol\":325:326  1 */\n  0x01\n    /* \"contracts/SmartContractLessons/Visibility.sol\":304:326  uint256 internal y = 1 */\n  dup1\n  sstore\n    /* \"contracts/SmartContractLessons/Visibility.sol\":351:352  2 */\n  0x02\n    /* \"contracts/SmartContractLessons/Visibility.sol\":332:352  uint256 public z = 2 */\n  dup1\n  sstore\n    /* \"contracts/SmartContractLessons/Visibility.sol\":919:1027  contract VisibilityChild is VisibilityBase {... */\n  callvalue\n  dup1\n  iszero\n  tag_1\n  jumpi\n  0x00\n  dup1\n  revert\ntag_1:\n  pop\n  dataSize(sub_0)\n  dup1\n  dataOffset(sub_0)\n  0x00\n  codecopy\n  0x00\n  return\nstop\n\nsub_0: assembly {\n        /* \"contracts/SmartContractLessons/Visibility.sol\":919:1027  contract VisibilityChild is VisibilityBase {... */\n      mstore(0x40, 0x80)\n      callvalue\n      dup1\n      iszero\n      tag_1\n      jumpi\n      0x00\n      dup1\n      revert\n    tag_1:\n      pop\n      jumpi(tag_2, lt(calldatasize, 0x04))\n      shr(0xe0, calldataload(0x00))\n      dup1\n      0x3a32b549\n      eq\n      tag_3\n      jumpi\n      dup1\n      0x54353f2f\n      eq\n      tag_4\n      jumpi\n      dup1\n      0x7b5d520b\n      eq\n      tag_5\n      jumpi\n      dup1\n      0xa54998a7\n      eq\n      tag_6\n      jumpi\n      dup1\n      0xc5d7802e\n      eq\n      tag_7\n      jumpi\n    tag_2:\n      0x00\n      dup1\n      revert\n        /* \"contracts/SmartContractLessons/Visibility.sol\":626:711  function externalFunction() external pure returns (uint256) {... */\n    tag_3:\n      tag_8\n      tag_9\n      jump\t// in\n    tag_8:\n      mload(0x40)\n      tag_10\n      swap2\n      swap1\n      tag_11\n      jump\t// in\n    tag_10:\n      mload(0x40)\n      dup1\n      swap2\n      sub\n      swap1\n      return\n        /* \"contracts/SmartContractLessons/Visibility.sol\":717:915  function example() external view {... */\n    tag_4:\n      tag_12\n      tag_13\n      jump\t// in\n    tag_12:\n      stop\n        /* \"contracts/SmartContractLessons/Visibility.sol\":539:620  function publicFunction() public pure returns (uint256) {... */\n    tag_5:\n      tag_14\n      tag_15\n      jump\t// in\n    tag_14:\n      mload(0x40)\n      tag_16\n      swap2\n      swap1\n      tag_11\n      jump\t// in\n    tag_16:\n      mload(0x40)\n      dup1\n      swap2\n      sub\n      swap1\n      return\n        /* \"contracts/SmartContractLessons/Visibility.sol\":968:1025  function example2() external view {... */\n    tag_6:\n      tag_17\n      tag_18\n      jump\t// in\n    tag_17:\n      stop\n        /* \"contracts/SmartContractLessons/Visibility.sol\":332:352  uint256 public z = 2 */\n    tag_7:\n      tag_19\n      tag_20\n      jump\t// in\n    tag_19:\n      mload(0x40)\n      tag_21\n      swap2\n      swap1\n      tag_11\n      jump\t// in\n    tag_21:\n      mload(0x40)\n      dup1\n      swap2\n      sub\n      swap1\n      return\n        /* \"contracts/SmartContractLessons/Visibility.sol\":626:711  function externalFunction() external pure returns (uint256) {... */\n    tag_9:\n        /* \"contracts/SmartContractLessons/Visibility.sol\":677:684  uint256 */\n      0x00\n        /* \"contracts/SmartContractLessons/Visibility.sol\":703:704  1 */\n      0x01\n        /* \"contracts/SmartContractLessons/Visibility.sol\":696:704  return 1 */\n      swap1\n      pop\n        /* \"contracts/SmartContractLessons/Visibility.sol\":626:711  function externalFunction() external pure returns (uint256) {... */\n      swap1\n      jump\t// out\n        /* \"contracts/SmartContractLessons/Visibility.sol\":717:915  function example() external view {... */\n    tag_13:\n        /* \"contracts/SmartContractLessons/Visibility.sol\":768:769  z */\n      sload(0x02)\n        /* \"contracts/SmartContractLessons/Visibility.sol\":764:765  y */\n      sload(0x01)\n        /* \"contracts/SmartContractLessons/Visibility.sol\":760:761  x */\n      sload(0x00)\n        /* \"contracts/SmartContractLessons/Visibility.sol\":760:765  x + y */\n      tag_24\n      swap2\n      swap1\n      tag_25\n      jump\t// in\n    tag_24:\n        /* \"contracts/SmartContractLessons/Visibility.sol\":760:769  x + y + z */\n      tag_26\n      swap2\n      swap1\n      tag_25\n      jump\t// in\n    tag_26:\n      pop\n        /* \"contracts/SmartContractLessons/Visibility.sol\":779:796  privateFunction() */\n      tag_27\n        /* \"contracts/SmartContractLessons/Visibility.sol\":779:794  privateFunction */\n      tag_28\n        /* \"contracts/SmartContractLessons/Visibility.sol\":779:796  privateFunction() */\n      jump\t// in\n    tag_27:\n      pop\n        /* \"contracts/SmartContractLessons/Visibility.sol\":806:824  internalFunction() */\n      tag_29\n        /* \"contracts/SmartContractLessons/Visibility.sol\":806:822  internalFunction */\n      tag_30\n        /* \"contracts/SmartContractLessons/Visibility.sol\":806:824  internalFunction() */\n      jump\t// in\n    tag_29:\n      pop\n        /* \"contracts/SmartContractLessons/Visibility.sol\":834:850  publicFunction() */\n      tag_31\n        /* \"contracts/SmartContractLessons/Visibility.sol\":834:848  publicFunction */\n      tag_15\n        /* \"contracts/SmartContractLessons/Visibility.sol\":834:850  publicFunction() */\n      jump\t// in\n    tag_31:\n      pop\n        /* \"contracts/SmartContractLessons/Visibility.sol\":717:915  function example() external view {... */\n      jump\t// out\n        /* \"contracts/SmartContractLessons/Visibility.sol\":539:620  function publicFunction() public pure returns (uint256) {... */\n    tag_15:\n        /* \"contracts/SmartContractLessons/Visibility.sol\":586:593  uint256 */\n      0x00\n        /* \"contracts/SmartContractLessons/Visibility.sol\":612:613  1 */\n      0x01\n        /* \"contracts/SmartContractLessons/Visibility.sol\":605:613  return 1 */\n      swap1\n      pop\n        /* \"contracts/SmartContractLessons/Visibility.sol\":539:620  function publicFunction() public pure returns (uint256) {... */\n      swap1\n      jump\t// out\n        /* \"contracts/SmartContractLessons/Visibility.sol\":968:1025  function example2() external view {... */\n    tag_18:\n        /* \"contracts/SmartContractLessons/Visibility.sol\":1017:1018  z */\n      sload(0x02)\n        /* \"contracts/SmartContractLessons/Visibility.sol\":1013:1014  y */\n      sload(0x01)\n        /* \"contracts/SmartContractLessons/Visibility.sol\":1013:1018  y + z */\n      tag_34\n      swap2\n      swap1\n      tag_25\n      jump\t// in\n    tag_34:\n      pop\n        /* \"contracts/SmartContractLessons/Visibility.sol\":968:1025  function example2() external view {... */\n      jump\t// out\n        /* \"contracts/SmartContractLessons/Visibility.sol\":332:352  uint256 public z = 2 */\n    tag_20:\n      sload(0x02)\n      dup2\n      jump\t// out\n        /* \"contracts/SmartContractLessons/Visibility.sol\":359:442  function privateFunction() private pure returns (uint256) {... */\n    tag_28:\n        /* \"contracts/SmartContractLessons/Visibility.sol\":408:415  uint256 */\n      0x00\n        /* \"contracts/SmartContractLessons/Visibility.sol\":434:435  1 */\n      0x01\n        /* \"contracts/SmartContractLessons/Visibility.sol\":427:435  return 1 */\n      swap1\n      pop\n        /* \"contracts/SmartContractLessons/Visibility.sol\":359:442  function privateFunction() private pure returns (uint256) {... */\n      swap1\n      jump\t// out\n        /* \"contracts/SmartContractLessons/Visibility.sol\":448:533  function internalFunction() internal pure returns (uint256) {... */\n    tag_30:\n        /* \"contracts/SmartContractLessons/Visibility.sol\":499:506  uint256 */\n      0x00\n        /* \"contracts/SmartContractLessons/Visibility.sol\":525:526  1 */\n      0x01\n        /* \"contracts/SmartContractLessons/Visibility.sol\":518:526  return 1 */\n      swap1\n      pop\n        /* \"contracts/SmartContractLessons/Visibility.sol\":448:533  function internalFunction() internal pure returns (uint256) {... */\n      swap1\n      jump\t// out\n        /* \"#utility.yul\":7:84   */\n    tag_37:\n        /* \"#utility.yul\":44:51   */\n      0x00\n        /* \"#utility.yul\":73:78   */\n      dup2\n        /* \"#utility.yul\":62:78   */\n      swap1\n      pop\n        /* \"#utility.yul\":7:84   */\n      swap2\n      swap1\n      pop\n      jump\t// out\n        /* \"#utility.yul\":90:208   */\n    tag_38:\n        /* \"#utility.yul\":177:201   */\n      tag_43\n        /* \"#utility.yul\":195:200   */\n      dup2\n        /* \"#utility.yul\":177:201   */\n      tag_37\n      jump\t// in\n    tag_43:\n        /* \"#utility.yul\":172:175   */\n      dup3\n        /* \"#utility.yul\":165:202   */\n      mstore\n        /* \"#utility.yul\":90:208   */\n      pop\n      pop\n      jump\t// out\n        /* \"#utility.yul\":214:436   */\n    tag_11:\n        /* \"#utility.yul\":307:311   */\n      0x00\n        /* \"#utility.yul\":345:347   */\n      0x20\n        /* \"#utility.yul\":334:343   */\n      dup3\n        /* \"#utility.yul\":330:348   */\n      add\n        /* \"#utility.yul\":322:348   */\n      swap1\n      pop\n        /* \"#utility.yul\":358:429   */\n      tag_45\n        /* \"#utility.yul\":426:427   */\n      0x00\n        /* \"#utility.yul\":415:424   */\n      dup4\n        /* \"#utility.yul\":411:428   */\n      add\n        /* \"#utility.yul\":402:408   */\n      dup5\n        /* \"#utility.yul\":358:429   */\n      tag_38\n      jump\t// in\n    tag_45:\n        /* \"#utility.yul\":214:436   */\n      swap3\n      swap2\n      pop\n      pop\n      jump\t// out\n        /* \"#utility.yul\":442:622   */\n    tag_39:\n        /* \"#utility.yul\":490:567   */\n      0x4e487b7100000000000000000000000000000000000000000000000000000000\n        /* \"#utility.yul\":487:488   */\n      0x00\n        /* \"#utility.yul\":480:568   */\n      mstore\n        /* \"#utility.yul\":587:591   */\n      0x11\n        /* \"#utility.yul\":584:585   */\n      0x04\n        /* \"#utility.yul\":577:592   */\n      mstore\n        /* \"#utility.yul\":611:615   */\n      0x24\n        /* \"#utility.yul\":608:609   */\n      0x00\n        /* \"#utility.yul\":601:616   */\n      revert\n        /* \"#utility.yul\":628:819   */\n    tag_25:\n        /* \"#utility.yul\":668:671   */\n      0x00\n        /* \"#utility.yul\":687:707   */\n      tag_48\n        /* \"#utility.yul\":705:706   */\n      dup3\n        /* \"#utility.yul\":687:707   */\n      tag_37\n      jump\t// in\n    tag_48:\n        /* \"#utility.yul\":682:707   */\n      swap2\n      pop\n        /* \"#utility.yul\":721:741   */\n      tag_49\n        /* \"#utility.yul\":739:740   */\n      dup4\n        /* \"#utility.yul\":721:741   */\n      tag_37\n      jump\t// in\n    tag_49:\n        /* \"#utility.yul\":716:741   */\n      swap3\n      pop\n        /* \"#utility.yul\":764:765   */\n      dup3\n        /* \"#utility.yul\":761:762   */\n      dup3\n        /* \"#utility.yul\":757:766   */\n      add\n        /* \"#utility.yul\":750:766   */\n      swap1\n      pop\n        /* \"#utility.yul\":785:788   */\n      dup1\n        /* \"#utility.yul\":782:783   */\n      dup3\n        /* \"#utility.yul\":779:789   */\n      gt\n        /* \"#utility.yul\":776:812   */\n      iszero\n      tag_50\n      jumpi\n        /* \"#utility.yul\":792:810   */\n      tag_51\n      tag_39\n      jump\t// in\n    tag_51:\n        /* \"#utility.yul\":776:812   */\n    tag_50:\n        /* \"#utility.yul\":628:819   */\n      swap3\n      swap2\n      pop\n      pop\n      jump\t// out\n\n    auxdata: 0xa2646970667358221220c04dec4c5ce68118cd5d4543016ee8f473d1858072e54f7589bbde9f84b63bf464736f6c63430008110033\n}\n",
				"bytecode": {
					"linkReferences": {},
					"object": "608060405260008055600180556002805534801561001c57600080fd5b5061020f8061002c6000396000f3fe608060405234801561001057600080fd5b50600436106100575760003560e01c80633a32b5491461005c57806354353f2f1461007a5780637b5d520b14610084578063a54998a7146100a2578063c5d7802e146100ac575b600080fd5b6100646100ca565b604051610071919061015b565b60405180910390f35b6100826100d3565b005b61008c61010e565b604051610099919061015b565b60405180910390f35b6100aa610117565b005b6100b461012a565b6040516100c1919061015b565b60405180910390f35b60006001905090565b6002546001546000546100e691906101a5565b6100f091906101a5565b506100f9610130565b50610102610139565b5061010b61010e565b50565b60006001905090565b60025460015461012791906101a5565b50565b60025481565b60006001905090565b60006001905090565b6000819050919050565b61015581610142565b82525050565b6000602082019050610170600083018461014c565b92915050565b7f4e487b7100000000000000000000000000000000000000000000000000000000600052601160045260246000fd5b60006101b082610142565b91506101bb83610142565b92508282019050808211156101d3576101d2610176565b5b9291505056fea2646970667358221220c04dec4c5ce68118cd5d4543016ee8f473d1858072e54f7589bbde9f84b63bf464736f6c63430008110033",
					"opcodes": "PUSH1 0x80 PUSH1 0x40 MSTORE PUSH1 0x0 DUP1 SSTORE PUSH1 0x1 DUP1 SSTORE PUSH1 0x2 DUP1 SSTORE CALLVALUE DUP1 ISZERO PUSH2 0x1C JUMPI PUSH1 0x0 DUP1 REVERT JUMPDEST POP PUSH2 0x20F DUP1 PUSH2 0x2C PUSH1 0x0 CODECOPY PUSH1 0x0 RETURN INVALID PUSH1 0x80 PUSH1 0x40 MSTORE CALLVALUE DUP1 ISZERO PUSH2 0x10 JUMPI PUSH1 0x0 DUP1 REVERT JUMPDEST POP PUSH1 0x4 CALLDATASIZE LT PUSH2 0x57 JUMPI PUSH1 0x0 CALLDATALOAD PUSH1 0xE0 SHR DUP1 PUSH4 0x3A32B549 EQ PUSH2 0x5C JUMPI DUP1 PUSH4 0x54353F2F EQ PUSH2 0x7A JUMPI DUP1 PUSH4 0x7B5D520B EQ PUSH2 0x84 JUMPI DUP1 PUSH4 0xA54998A7 EQ PUSH2 0xA2 JUMPI DUP1 PUSH4 0xC5D7802E EQ PUSH2 0xAC JUMPI JUMPDEST PUSH1 0x0 DUP1 REVERT JUMPDEST PUSH2 0x64 PUSH2 0xCA JUMP JUMPDEST PUSH1 0x40 MLOAD PUSH2 0x71 SWAP2 SWAP1 PUSH2 0x15B JUMP JUMPDEST PUSH1 0x40 MLOAD DUP1 SWAP2 SUB SWAP1 RETURN JUMPDEST PUSH2 0x82 PUSH2 0xD3 JUMP JUMPDEST STOP JUMPDEST PUSH2 0x8C PUSH2 0x10E JUMP JUMPDEST PUSH1 0x40 MLOAD PUSH2 0x99 SWAP2 SWAP1 PUSH2 0x15B JUMP JUMPDEST PUSH1 0x40 MLOAD DUP1 SWAP2 SUB SWAP1 RETURN JUMPDEST PUSH2 0xAA PUSH2 0x117 JUMP JUMPDEST STOP JUMPDEST PUSH2 0xB4 PUSH2 0x12A JUMP JUMPDEST PUSH1 0x40 MLOAD PUSH2 0xC1 SWAP2 SWAP1 PUSH2 0x15B JUMP JUMPDEST PUSH1 0x40 MLOAD DUP1 SWAP2 SUB SWAP1 RETURN JUMPDEST PUSH1 0x0 PUSH1 0x1 SWAP1 POP SWAP1 JUMP JUMPDEST PUSH1 0x2 SLOAD PUSH1 0x1 SLOAD PUSH1 0x0 SLOAD PUSH2 0xE6 SWAP2 SWAP1 PUSH2 0x1A5 JUMP JUMPDEST PUSH2 0xF0 SWAP2 SWAP1 PUSH2 0x1A5 JUMP JUMPDEST POP PUSH2 0xF9 PUSH2 0x130 JUMP JUMPDEST POP PUSH2 0x102 PUSH2 0x139 JUMP JUMPDEST POP PUSH2 0x10B PUSH2 0x10E JUMP JUMPDEST POP JUMP JUMPDEST PUSH1 0x0 PUSH1 0x1 SWAP1 POP SWAP1 JUMP JUMPDEST PUSH1 0x2 SLOAD PUSH1 0x1 SLOAD PUSH2 0x127 SWAP2 SWAP1 PUSH2 0x1A5 JUMP JUMPDEST POP JUMP JUMPDEST PUSH1 0x2 SLOAD DUP2 JUMP JUMPDEST PUSH1 0x0 PUSH1 0x1 SWAP1 POP SWAP1 JUMP JUMPDEST PUSH1 0x0 PUSH1 0x1 SWAP1 POP SWAP1 JUMP JUMPDEST PUSH1 0x0 DUP2 SWAP1 POP SWAP2 SWAP1 POP JUMP JUMPDEST PUSH2 0x155 DUP2 PUSH2 0x142 JUMP JUMPDEST DUP3 MSTORE POP POP JUMP JUMPDEST PUSH1 0x0 PUSH1 0x20 DUP3 ADD SWAP1 POP PUSH2 0x170 PUSH1 0x0 DUP4 ADD DUP5 PUSH2 0x14C JUMP JUMPDEST SWAP3 SWAP2 POP POP JUMP JUMPDEST PUSH32 0x4E487B7100000000000000000000000000000000000000000000000000000000 PUSH1 0x0 MSTORE PUSH1 0x11 PUSH1 0x4 MSTORE PUSH1 0x24 PUSH1 0x0 REVERT JUMPDEST PUSH1 0x0 PUSH2 0x1B0 DUP3 PUSH2 0x142 JUMP JUMPDEST SWAP2 POP PUSH2 0x1BB DUP4 PUSH2 0x142 JUMP JUMPDEST SWAP3 POP DUP3 DUP3 ADD SWAP1 POP DUP1 DUP3 GT ISZERO PUSH2 0x1D3 JUMPI PUSH2 0x1D2 PUSH2 0x176 JUMP JUMPDEST JUMPDEST SWAP3 SWAP2 POP POP JUMP INVALID LOG2 PUSH5 0x6970667358 0x22 SLT KECCAK256 0xC0 0x4D 0xEC 0x4C 0x5C 0xE6 DUP2 XOR 0xCD 0x5D GASLIMIT NUMBER ADD PUSH15 0xE8F473D1858072E54F7589BBDE9F84 0xB6 EXTCODESIZE DELEGATECALL PUSH5 0x736F6C6343 STOP ADDMOD GT STOP CALLER "
				},
				"gasEstimates": {
					"creation": {
						"codeDepositCost": "105400",
						"executionCost": "49371",
						"totalCost": "154771"
					},
					"external": {
						"example()": "infinite",
						"example2()": "infinite",
						"externalFunction()": "315",
						"publicFunction()": "359",
						"z()": "2495"
					}
				},
				"methodIdentifiers": {
					"example()": "54353f2f",
					"example2()": "a54998a7",
					"externalFunction()": "3a32b549",
					"publicFunction()": "7b5d520b",
					"z()": "c5d7802e"
				}
			},
			"storageLayout": {
				"storage": [
					{
						"astId": 4,
						"contract": "contracts/SmartContractLessons/Visibility.sol:VisibilityChild",
						"label": "x",
						"offset": 0,
						"slot": "0",
						"type": "t_uint256"
					},
					{
						"astId": 7,
						"contract": "contracts/SmartContractLessons/Visibility.sol:VisibilityChild",
						"label": "y",
						"offset": 0,
						"slot": "1",
						"type": "t_uint256"
					},
					{
						"astId": 10,
						"contract": "contracts/SmartContractLessons/Visibility.sol:VisibilityChild",
						"label": "z",
						"offset": 0,
						"slot": "2",
						"type": "t_uint256"
					}
				],
				"types": {
					"t_uint256": {
						"encoding": "inplace",
						"label": "uint256",
						"numberOfBytes": "32"
					}
				}
			},
			"userdoc": {
				"kind": "user",
				"methods": {},
				"version": 1
			}
		}
	}
}