{
	"contracts/SmartContractLessons/EnglishAuction.sol": {
		"EnglishAuction": {
			"abi": [
				{
					"inputs": [
						{
							"internalType": "address",
							"name": "_nft",
							"type": "address"
						},
						{
							"internalType": "uint256",
							"name": "_nftId",
							"type": "uint256"
						},
						{
							"internalType": "uint256",
							"name": "_startingBid",
							"type": "uint256"
						}
					],
					"stateMutability": "nonpayable",
					"type": "constructor"
				},
				{
					"anonymous": false,
					"inputs": [
						{
							"indexed": true,
							"internalType": "address",
							"name": "sender",
							"type": "address"
						},
						{
							"indexed": false,
							"internalType": "uint256",
							"name": "amount",
							"type": "uint256"
						}
					],
					"name": "Bid",
					"type": "event"
				},
				{
					"anonymous": false,
					"inputs": [
						{
							"indexed": false,
							"internalType": "address",
							"name": "highestBidder",
							"type": "address"
						},
						{
							"indexed": false,
							"internalType": "uint256",
							"name": "amount",
							"type": "uint256"
						}
					],
					"name": "End",
					"type": "event"
				},
				{
					"anonymous": false,
					"inputs": [],
					"name": "Start",
					"type": "event"
				},
				{
					"anonymous": false,
					"inputs": [
						{
							"indexed": true,
							"internalType": "address",
							"name": "bidder",
							"type": "address"
						},
						{
							"indexed": false,
							"internalType": "uint256",
							"name": "amount",
							"type": "uint256"
						}
					],
					"name": "Withdraw",
					"type": "event"
				},
				{
					"inputs": [],
					"name": "bid",
					"outputs": [],
					"stateMutability": "payable",
					"type": "function"
				},
				{
					"inputs": [
						{
							"internalType": "address",
							"name": "",
							"type": "address"
						}
					],
					"name": "bids",
					"outputs": [
						{
							"internalType": "uint256",
							"name": "",
							"type": "uint256"
						}
					],
					"stateMutability": "view",
					"type": "function"
				},
				{
					"inputs": [],
					"name": "end",
					"outputs": [],
					"stateMutability": "nonpayable",
					"type": "function"
				},
				{
					"inputs": [],
					"name": "ended",
					"outputs": [
						{
							"internalType": "bool",
							"name": "",
							"type": "bool"
						}
					],
					"stateMutability": "view",
					"type": "function"
				},
				{
					"inputs": [],
					"name": "endedAt",
					"outputs": [
						{
							"internalType": "uint32",
							"name": "",
							"type": "uint32"
						}
					],
					"stateMutability": "view",
					"type": "function"
				},
				{
					"inputs": [],
					"name": "highestBid",
					"outputs": [
						{
							"internalType": "uint256",
							"name": "",
							"type": "uint256"
						}
					],
					"stateMutability": "view",
					"type": "function"
				},
				{
					"inputs": [],
					"name": "highestBidder",
					"outputs": [
						{
							"internalType": "address",
							"name": "",
							"type": "address"
						}
					],
					"stateMutability": "view",
					"type": "function"
				},
				{
					"inputs": [],
					"name": "nft",
					"outputs": [
						{
							"internalType": "contract IERC721",
							"name": "",
							"type": "address"
						}
					],
					"stateMutability": "view",
					"type": "function"
				},
				{
					"inputs": [],
					"name": "nftId",
					"outputs": [
						{
							"internalType": "uint256",
							"name": "",
							"type": "uint256"
						}
					],
					"stateMutability": "view",
					"type": "function"
				},
				{
					"inputs": [],
					"name": "seller",
					"outputs": [
						{
							"internalType": "address",
							"name": "",
							"type": "address"
						}
					],
					"stateMutability": "view",
					"type": "function"
				},
				{
					"inputs": [],
					"name": "start",
					"outputs": [],
					"stateMutability": "nonpayable",
					"type": "function"
				},
				{
					"inputs": [],
					"name": "started",
					"outputs": [
						{
							"internalType": "bool",
							"name": "",
							"type": "bool"
						}
					],
					"stateMutability": "view",
					"type": "function"
				},
				{
					"inputs": [],
					"name": "withdrawal",
					"outputs": [],
					"stateMutability": "nonpayable",
					"type": "function"
				}
			],
			"devdoc": {
				"kind": "dev",
				"methods": {},
				"version": 1
			},
			"evm": {
				"assembly": "    /* \"contracts/SmartContractLessons/EnglishAuction.sol\":189:2393  contract EnglishAuction {... */\n  mstore(0x40, 0xe0)\n    /* \"contracts/SmartContractLessons/EnglishAuction.sol\":702:929  constructor(... */\n  callvalue\n  dup1\n  iszero\n  tag_1\n  jumpi\n  0x00\n  dup1\n  revert\ntag_1:\n  pop\n  mload(0x40)\n  sub(codesize, bytecodeSize)\n  dup1\n  bytecodeSize\n  dup4\n  codecopy\n  dup2\n  dup2\n  add\n  0x40\n  mstore\n  dup2\n  add\n  swap1\n  tag_2\n  swap2\n  swap1\n  tag_3\n  jump\t// in\ntag_2:\n    /* \"contracts/SmartContractLessons/EnglishAuction.sol\":820:824  _nft */\n  dup3\n    /* \"contracts/SmartContractLessons/EnglishAuction.sol\":806:825  nft = IERC721(_nft) */\n  0xffffffffffffffffffffffffffffffffffffffff\n  and\n  0x80\n  dup2\n  0xffffffffffffffffffffffffffffffffffffffff\n  and\n  dup2\n  mstore\n  pop\n  pop\n    /* \"contracts/SmartContractLessons/EnglishAuction.sol\":843:849  _nftId */\n  dup2\n    /* \"contracts/SmartContractLessons/EnglishAuction.sol\":835:849  nftId = _nftId */\n  0xa0\n  dup2\n  dup2\n  mstore\n  pop\n  pop\n    /* \"contracts/SmartContractLessons/EnglishAuction.sol\":876:886  msg.sender */\n  caller\n    /* \"contracts/SmartContractLessons/EnglishAuction.sol\":859:887  seller = payable(msg.sender) */\n  0xffffffffffffffffffffffffffffffffffffffff\n  and\n  0xc0\n  dup2\n  0xffffffffffffffffffffffffffffffffffffffff\n  and\n  dup2\n  mstore\n  pop\n  pop\n    /* \"contracts/SmartContractLessons/EnglishAuction.sol\":910:922  _startingBid */\n  dup1\n    /* \"contracts/SmartContractLessons/EnglishAuction.sol\":897:907  highestBid */\n  0x01\n    /* \"contracts/SmartContractLessons/EnglishAuction.sol\":897:922  highestBid = _startingBid */\n  dup2\n  swap1\n  sstore\n  pop\n    /* \"contracts/SmartContractLessons/EnglishAuction.sol\":702:929  constructor(... */\n  pop\n  pop\n  pop\n    /* \"contracts/SmartContractLessons/EnglishAuction.sol\":189:2393  contract EnglishAuction {... */\n  jump(tag_6)\n    /* \"#utility.yul\":88:205   */\ntag_8:\n    /* \"#utility.yul\":197:198   */\n  0x00\n    /* \"#utility.yul\":194:195   */\n  dup1\n    /* \"#utility.yul\":187:199   */\n  revert\n    /* \"#utility.yul\":334:460   */\ntag_10:\n    /* \"#utility.yul\":371:378   */\n  0x00\n    /* \"#utility.yul\":411:453   */\n  0xffffffffffffffffffffffffffffffffffffffff\n    /* \"#utility.yul\":404:409   */\n  dup3\n    /* \"#utility.yul\":400:454   */\n  and\n    /* \"#utility.yul\":389:454   */\n  swap1\n  pop\n    /* \"#utility.yul\":334:460   */\n  swap2\n  swap1\n  pop\n  jump\t// out\n    /* \"#utility.yul\":466:562   */\ntag_11:\n    /* \"#utility.yul\":503:510   */\n  0x00\n    /* \"#utility.yul\":532:556   */\n  tag_23\n    /* \"#utility.yul\":550:555   */\n  dup3\n    /* \"#utility.yul\":532:556   */\n  tag_10\n  jump\t// in\ntag_23:\n    /* \"#utility.yul\":521:556   */\n  swap1\n  pop\n    /* \"#utility.yul\":466:562   */\n  swap2\n  swap1\n  pop\n  jump\t// out\n    /* \"#utility.yul\":568:690   */\ntag_12:\n    /* \"#utility.yul\":641:665   */\n  tag_25\n    /* \"#utility.yul\":659:664   */\n  dup2\n    /* \"#utility.yul\":641:665   */\n  tag_11\n  jump\t// in\ntag_25:\n    /* \"#utility.yul\":634:639   */\n  dup2\n    /* \"#utility.yul\":631:666   */\n  eq\n    /* \"#utility.yul\":621:684   */\n  tag_26\n  jumpi\n    /* \"#utility.yul\":680:681   */\n  0x00\n    /* \"#utility.yul\":677:678   */\n  dup1\n    /* \"#utility.yul\":670:682   */\n  revert\n    /* \"#utility.yul\":621:684   */\ntag_26:\n    /* \"#utility.yul\":568:690   */\n  pop\n  jump\t// out\n    /* \"#utility.yul\":696:839   */\ntag_13:\n    /* \"#utility.yul\":753:758   */\n  0x00\n    /* \"#utility.yul\":784:790   */\n  dup2\n    /* \"#utility.yul\":778:791   */\n  mload\n    /* \"#utility.yul\":769:791   */\n  swap1\n  pop\n    /* \"#utility.yul\":800:833   */\n  tag_28\n    /* \"#utility.yul\":827:832   */\n  dup2\n    /* \"#utility.yul\":800:833   */\n  tag_12\n  jump\t// in\ntag_28:\n    /* \"#utility.yul\":696:839   */\n  swap3\n  swap2\n  pop\n  pop\n  jump\t// out\n    /* \"#utility.yul\":845:922   */\ntag_14:\n    /* \"#utility.yul\":882:889   */\n  0x00\n    /* \"#utility.yul\":911:916   */\n  dup2\n    /* \"#utility.yul\":900:916   */\n  swap1\n  pop\n    /* \"#utility.yul\":845:922   */\n  swap2\n  swap1\n  pop\n  jump\t// out\n    /* \"#utility.yul\":928:1050   */\ntag_15:\n    /* \"#utility.yul\":1001:1025   */\n  tag_31\n    /* \"#utility.yul\":1019:1024   */\n  dup2\n    /* \"#utility.yul\":1001:1025   */\n  tag_14\n  jump\t// in\ntag_31:\n    /* \"#utility.yul\":994:999   */\n  dup2\n    /* \"#utility.yul\":991:1026   */\n  eq\n    /* \"#utility.yul\":981:1044   */\n  tag_32\n  jumpi\n    /* \"#utility.yul\":1040:1041   */\n  0x00\n    /* \"#utility.yul\":1037:1038   */\n  dup1\n    /* \"#utility.yul\":1030:1042   */\n  revert\n    /* \"#utility.yul\":981:1044   */\ntag_32:\n    /* \"#utility.yul\":928:1050   */\n  pop\n  jump\t// out\n    /* \"#utility.yul\":1056:1199   */\ntag_16:\n    /* \"#utility.yul\":1113:1118   */\n  0x00\n    /* \"#utility.yul\":1144:1150   */\n  dup2\n    /* \"#utility.yul\":1138:1151   */\n  mload\n    /* \"#utility.yul\":1129:1151   */\n  swap1\n  pop\n    /* \"#utility.yul\":1160:1193   */\n  tag_34\n    /* \"#utility.yul\":1187:1192   */\n  dup2\n    /* \"#utility.yul\":1160:1193   */\n  tag_15\n  jump\t// in\ntag_34:\n    /* \"#utility.yul\":1056:1199   */\n  swap3\n  swap2\n  pop\n  pop\n  jump\t// out\n    /* \"#utility.yul\":1205:1868   */\ntag_3:\n    /* \"#utility.yul\":1293:1299   */\n  0x00\n    /* \"#utility.yul\":1301:1307   */\n  dup1\n    /* \"#utility.yul\":1309:1315   */\n  0x00\n    /* \"#utility.yul\":1358:1360   */\n  0x60\n    /* \"#utility.yul\":1346:1355   */\n  dup5\n    /* \"#utility.yul\":1337:1344   */\n  dup7\n    /* \"#utility.yul\":1333:1356   */\n  sub\n    /* \"#utility.yul\":1329:1361   */\n  slt\n    /* \"#utility.yul\":1326:1445   */\n  iszero\n  tag_36\n  jumpi\n    /* \"#utility.yul\":1364:1443   */\n  tag_37\n  tag_8\n  jump\t// in\ntag_37:\n    /* \"#utility.yul\":1326:1445   */\ntag_36:\n    /* \"#utility.yul\":1484:1485   */\n  0x00\n    /* \"#utility.yul\":1509:1573   */\n  tag_38\n    /* \"#utility.yul\":1565:1572   */\n  dup7\n    /* \"#utility.yul\":1556:1562   */\n  dup3\n    /* \"#utility.yul\":1545:1554   */\n  dup8\n    /* \"#utility.yul\":1541:1563   */\n  add\n    /* \"#utility.yul\":1509:1573   */\n  tag_13\n  jump\t// in\ntag_38:\n    /* \"#utility.yul\":1499:1573   */\n  swap4\n  pop\n    /* \"#utility.yul\":1455:1583   */\n  pop\n    /* \"#utility.yul\":1622:1624   */\n  0x20\n    /* \"#utility.yul\":1648:1712   */\n  tag_39\n    /* \"#utility.yul\":1704:1711   */\n  dup7\n    /* \"#utility.yul\":1695:1701   */\n  dup3\n    /* \"#utility.yul\":1684:1693   */\n  dup8\n    /* \"#utility.yul\":1680:1702   */\n  add\n    /* \"#utility.yul\":1648:1712   */\n  tag_16\n  jump\t// in\ntag_39:\n    /* \"#utility.yul\":1638:1712   */\n  swap3\n  pop\n    /* \"#utility.yul\":1593:1722   */\n  pop\n    /* \"#utility.yul\":1761:1763   */\n  0x40\n    /* \"#utility.yul\":1787:1851   */\n  tag_40\n    /* \"#utility.yul\":1843:1850   */\n  dup7\n    /* \"#utility.yul\":1834:1840   */\n  dup3\n    /* \"#utility.yul\":1823:1832   */\n  dup8\n    /* \"#utility.yul\":1819:1841   */\n  add\n    /* \"#utility.yul\":1787:1851   */\n  tag_16\n  jump\t// in\ntag_40:\n    /* \"#utility.yul\":1777:1851   */\n  swap2\n  pop\n    /* \"#utility.yul\":1732:1861   */\n  pop\n    /* \"#utility.yul\":1205:1868   */\n  swap3\n  pop\n  swap3\n  pop\n  swap3\n  jump\t// out\n    /* \"contracts/SmartContractLessons/EnglishAuction.sol\":189:2393  contract EnglishAuction {... */\ntag_6:\n  mload(0x80)\n  mload(0xa0)\n  mload(0xc0)\n  codecopy(0x00, dataOffset(sub_0), dataSize(sub_0))\n  0x00\n  assignImmutable(\"0xd67d834462ca31eaef1f30157e31659f60355143b7441e6fc7d9eae1fa79f3f8\")\n  0x00\n  assignImmutable(\"0x3b4066bd7b7960752225af105d3beafb5c47a26c5aae7e6798a437b7c0bb33e6\")\n  0x00\n  assignImmutable(\"0x77c32b454bb61eb9df9e3848d0ded3e59753acda90ae58befe564733aec82e4c\")\n  return(0x00, dataSize(sub_0))\nstop\n\nsub_0: assembly {\n        /* \"contracts/SmartContractLessons/EnglishAuction.sol\":189:2393  contract EnglishAuction {... */\n      mstore(0x40, 0x80)\n      jumpi(tag_1, lt(calldatasize, 0x04))\n      shr(0xe0, calldataload(0x00))\n      dup1\n      0x62ea82db\n      gt\n      tag_15\n      jumpi\n      dup1\n      0xc6bc5182\n      gt\n      tag_16\n      jumpi\n      dup1\n      0xc6bc5182\n      eq\n      tag_11\n      jumpi\n      dup1\n      0xd4e93292\n      eq\n      tag_12\n      jumpi\n      dup1\n      0xd57bde79\n      eq\n      tag_13\n      jumpi\n      dup1\n      0xefbe1c1c\n      eq\n      tag_14\n      jumpi\n      jump(tag_1)\n    tag_16:\n      dup1\n      0x62ea82db\n      eq\n      tag_8\n      jumpi\n      dup1\n      0x91f90157\n      eq\n      tag_9\n      jumpi\n      dup1\n      0xbe9a6555\n      eq\n      tag_10\n      jumpi\n      jump(tag_1)\n    tag_15:\n      dup1\n      0x08551a53\n      eq\n      tag_2\n      jumpi\n      dup1\n      0x12fa6feb\n      eq\n      tag_3\n      jumpi\n      dup1\n      0x1998aeef\n      eq\n      tag_4\n      jumpi\n      dup1\n      0x1f2698ab\n      eq\n      tag_5\n      jumpi\n      dup1\n      0x3d6a71e4\n      eq\n      tag_6\n      jumpi\n      dup1\n      0x47ccca02\n      eq\n      tag_7\n      jumpi\n    tag_1:\n      0x00\n      dup1\n      revert\n        /* \"contracts/SmartContractLessons/EnglishAuction.sol\":479:510  address public immutable seller */\n    tag_2:\n      callvalue\n      dup1\n      iszero\n      tag_17\n      jumpi\n      0x00\n      dup1\n      revert\n    tag_17:\n      pop\n      tag_18\n      tag_19\n      jump\t// in\n    tag_18:\n      mload(0x40)\n      tag_20\n      swap2\n      swap1\n      tag_21\n      jump\t// in\n    tag_20:\n      mload(0x40)\n      dup1\n      swap2\n      sub\n      swap1\n      return\n        /* \"contracts/SmartContractLessons/EnglishAuction.sol\":568:585  bool public ended */\n    tag_3:\n      callvalue\n      dup1\n      iszero\n      tag_22\n      jumpi\n      0x00\n      dup1\n      revert\n    tag_22:\n      pop\n      tag_23\n      tag_24\n      jump\t// in\n    tag_23:\n      mload(0x40)\n      tag_25\n      swap2\n      swap1\n      tag_26\n      jump\t// in\n    tag_25:\n      mload(0x40)\n      dup1\n      swap2\n      sub\n      swap1\n      return\n        /* \"contracts/SmartContractLessons/EnglishAuction.sol\":1215:1616  function bid() external payable {... */\n    tag_4:\n      tag_27\n      tag_28\n      jump\t// in\n    tag_27:\n      stop\n        /* \"contracts/SmartContractLessons/EnglishAuction.sol\":543:562  bool public started */\n    tag_5:\n      callvalue\n      dup1\n      iszero\n      tag_29\n      jumpi\n      0x00\n      dup1\n      revert\n    tag_29:\n      pop\n      tag_30\n      tag_31\n      jump\t// in\n    tag_30:\n      mload(0x40)\n      tag_32\n      swap2\n      swap1\n      tag_26\n      jump\t// in\n    tag_32:\n      mload(0x40)\n      dup1\n      swap2\n      sub\n      swap1\n      return\n        /* \"contracts/SmartContractLessons/EnglishAuction.sol\":516:537  uint32 public endedAt */\n    tag_6:\n      callvalue\n      dup1\n      iszero\n      tag_33\n      jumpi\n      0x00\n      dup1\n      revert\n    tag_33:\n      pop\n      tag_34\n      tag_35\n      jump\t// in\n    tag_34:\n      mload(0x40)\n      tag_36\n      swap2\n      swap1\n      tag_37\n      jump\t// in\n    tag_36:\n      mload(0x40)\n      dup1\n      swap2\n      sub\n      swap1\n      return\n        /* \"contracts/SmartContractLessons/EnglishAuction.sol\":408:436  IERC721 public immutable nft */\n    tag_7:\n      callvalue\n      dup1\n      iszero\n      tag_38\n      jumpi\n      0x00\n      dup1\n      revert\n    tag_38:\n      pop\n      tag_39\n      tag_40\n      jump\t// in\n    tag_39:\n      mload(0x40)\n      tag_41\n      swap2\n      swap1\n      tag_42\n      jump\t// in\n    tag_41:\n      mload(0x40)\n      dup1\n      swap2\n      sub\n      swap1\n      return\n        /* \"contracts/SmartContractLessons/EnglishAuction.sol\":656:695  mapping(address => uint256) public bids */\n    tag_8:\n      callvalue\n      dup1\n      iszero\n      tag_43\n      jumpi\n      0x00\n      dup1\n      revert\n    tag_43:\n      pop\n      tag_44\n      0x04\n      dup1\n      calldatasize\n      sub\n      dup2\n      add\n      swap1\n      tag_45\n      swap2\n      swap1\n      tag_46\n      jump\t// in\n    tag_45:\n      tag_47\n      jump\t// in\n    tag_44:\n      mload(0x40)\n      tag_48\n      swap2\n      swap1\n      tag_49\n      jump\t// in\n    tag_48:\n      mload(0x40)\n      dup1\n      swap2\n      sub\n      swap1\n      return\n        /* \"contracts/SmartContractLessons/EnglishAuction.sol\":591:619  address public highestBidder */\n    tag_9:\n      callvalue\n      dup1\n      iszero\n      tag_50\n      jumpi\n      0x00\n      dup1\n      revert\n    tag_50:\n      pop\n      tag_51\n      tag_52\n      jump\t// in\n    tag_51:\n      mload(0x40)\n      tag_53\n      swap2\n      swap1\n      tag_21\n      jump\t// in\n    tag_53:\n      mload(0x40)\n      dup1\n      swap2\n      sub\n      swap1\n      return\n        /* \"contracts/SmartContractLessons/EnglishAuction.sol\":935:1209  function start() external {... */\n    tag_10:\n      callvalue\n      dup1\n      iszero\n      tag_54\n      jumpi\n      0x00\n      dup1\n      revert\n    tag_54:\n      pop\n      tag_55\n      tag_56\n      jump\t// in\n    tag_55:\n      stop\n        /* \"contracts/SmartContractLessons/EnglishAuction.sol\":442:472  uint256 public immutable nftId */\n    tag_11:\n      callvalue\n      dup1\n      iszero\n      tag_57\n      jumpi\n      0x00\n      dup1\n      revert\n    tag_57:\n      pop\n      tag_58\n      tag_59\n      jump\t// in\n    tag_58:\n      mload(0x40)\n      tag_60\n      swap2\n      swap1\n      tag_49\n      jump\t// in\n    tag_60:\n      mload(0x40)\n      dup1\n      swap2\n      sub\n      swap1\n      return\n        /* \"contracts/SmartContractLessons/EnglishAuction.sol\":1622:1911  function withdrawal() external {... */\n    tag_12:\n      callvalue\n      dup1\n      iszero\n      tag_61\n      jumpi\n      0x00\n      dup1\n      revert\n    tag_61:\n      pop\n      tag_62\n      tag_63\n      jump\t// in\n    tag_62:\n      stop\n        /* \"contracts/SmartContractLessons/EnglishAuction.sol\":625:650  uint256 public highestBid */\n    tag_13:\n      callvalue\n      dup1\n      iszero\n      tag_64\n      jumpi\n      0x00\n      dup1\n      revert\n    tag_64:\n      pop\n      tag_65\n      tag_66\n      jump\t// in\n    tag_65:\n      mload(0x40)\n      tag_67\n      swap2\n      swap1\n      tag_49\n      jump\t// in\n    tag_67:\n      mload(0x40)\n      dup1\n      swap2\n      sub\n      swap1\n      return\n        /* \"contracts/SmartContractLessons/EnglishAuction.sol\":1917:2391  function end() external {... */\n    tag_14:\n      callvalue\n      dup1\n      iszero\n      tag_68\n      jumpi\n      0x00\n      dup1\n      revert\n    tag_68:\n      pop\n      tag_69\n      tag_70\n      jump\t// in\n    tag_69:\n      stop\n        /* \"contracts/SmartContractLessons/EnglishAuction.sol\":479:510  address public immutable seller */\n    tag_19:\n      immutable(\"0xd67d834462ca31eaef1f30157e31659f60355143b7441e6fc7d9eae1fa79f3f8\")\n      dup2\n      jump\t// out\n        /* \"contracts/SmartContractLessons/EnglishAuction.sol\":568:585  bool public ended */\n    tag_24:\n      0x00\n      0x05\n      swap1\n      sload\n      swap1\n      0x0100\n      exp\n      swap1\n      div\n      0xff\n      and\n      dup2\n      jump\t// out\n        /* \"contracts/SmartContractLessons/EnglishAuction.sol\":1215:1616  function bid() external payable {... */\n    tag_28:\n        /* \"contracts/SmartContractLessons/EnglishAuction.sol\":1265:1272  started */\n      0x00\n      0x04\n      swap1\n      sload\n      swap1\n      0x0100\n      exp\n      swap1\n      div\n      0xff\n      and\n        /* \"contracts/SmartContractLessons/EnglishAuction.sol\":1257:1288  require(started, \"Not started\") */\n      tag_72\n      jumpi\n      mload(0x40)\n      0x08c379a000000000000000000000000000000000000000000000000000000000\n      dup2\n      mstore\n      0x04\n      add\n      tag_73\n      swap1\n      tag_74\n      jump\t// in\n    tag_73:\n      mload(0x40)\n      dup1\n      swap2\n      sub\n      swap1\n      revert\n    tag_72:\n        /* \"contracts/SmartContractLessons/EnglishAuction.sol\":1324:1331  endedAt */\n      0x00\n      dup1\n      sload\n      swap1\n      0x0100\n      exp\n      swap1\n      div\n      0xffffffff\n      and\n        /* \"contracts/SmartContractLessons/EnglishAuction.sol\":1306:1331  block.timestamp < endedAt */\n      0xffffffff\n      and\n        /* \"contracts/SmartContractLessons/EnglishAuction.sol\":1306:1321  block.timestamp */\n      timestamp\n        /* \"contracts/SmartContractLessons/EnglishAuction.sol\":1306:1331  block.timestamp < endedAt */\n      lt\n        /* \"contracts/SmartContractLessons/EnglishAuction.sol\":1298:1341  require(block.timestamp < endedAt, \"ended\") */\n      tag_75\n      jumpi\n      mload(0x40)\n      0x08c379a000000000000000000000000000000000000000000000000000000000\n      dup2\n      mstore\n      0x04\n      add\n      tag_76\n      swap1\n      tag_77\n      jump\t// in\n    tag_76:\n      mload(0x40)\n      dup1\n      swap2\n      sub\n      swap1\n      revert\n    tag_75:\n        /* \"contracts/SmartContractLessons/EnglishAuction.sol\":1371:1381  highestBid */\n      sload(0x01)\n        /* \"contracts/SmartContractLessons/EnglishAuction.sol\":1359:1368  msg.value */\n      callvalue\n        /* \"contracts/SmartContractLessons/EnglishAuction.sol\":1359:1381  msg.value > highestBid */\n      gt\n        /* \"contracts/SmartContractLessons/EnglishAuction.sol\":1351:1401  require(msg.value > highestBid, \"value < highest\") */\n      tag_78\n      jumpi\n      mload(0x40)\n      0x08c379a000000000000000000000000000000000000000000000000000000000\n      dup2\n      mstore\n      0x04\n      add\n      tag_79\n      swap1\n      tag_80\n      jump\t// in\n    tag_79:\n      mload(0x40)\n      dup1\n      swap2\n      sub\n      swap1\n      revert\n    tag_78:\n        /* \"contracts/SmartContractLessons/EnglishAuction.sol\":1438:1439  0 */\n      0x00\n        /* \"contracts/SmartContractLessons/EnglishAuction.sol\":1416:1440  msg.sender != address(0) */\n      0xffffffffffffffffffffffffffffffffffffffff\n      and\n        /* \"contracts/SmartContractLessons/EnglishAuction.sol\":1416:1426  msg.sender */\n      caller\n        /* \"contracts/SmartContractLessons/EnglishAuction.sol\":1416:1440  msg.sender != address(0) */\n      0xffffffffffffffffffffffffffffffffffffffff\n      and\n      eq\n        /* \"contracts/SmartContractLessons/EnglishAuction.sol\":1412:1499  if (msg.sender != address(0)) {... */\n      tag_81\n      jumpi\n        /* \"contracts/SmartContractLessons/EnglishAuction.sol\":1478:1488  highestBid */\n      sload(0x01)\n        /* \"contracts/SmartContractLessons/EnglishAuction.sol\":1456:1460  bids */\n      0x02\n        /* \"contracts/SmartContractLessons/EnglishAuction.sol\":1456:1475  bids[highestBidder] */\n      0x00\n        /* \"contracts/SmartContractLessons/EnglishAuction.sol\":1461:1474  highestBidder */\n      dup1\n      0x06\n      swap1\n      sload\n      swap1\n      0x0100\n      exp\n      swap1\n      div\n      0xffffffffffffffffffffffffffffffffffffffff\n      and\n        /* \"contracts/SmartContractLessons/EnglishAuction.sol\":1456:1475  bids[highestBidder] */\n      0xffffffffffffffffffffffffffffffffffffffff\n      and\n      0xffffffffffffffffffffffffffffffffffffffff\n      and\n      dup2\n      mstore\n      0x20\n      add\n      swap1\n      dup2\n      mstore\n      0x20\n      add\n      0x00\n      keccak256\n        /* \"contracts/SmartContractLessons/EnglishAuction.sol\":1456:1488  bids[highestBidder] = highestBid */\n      dup2\n      swap1\n      sstore\n      pop\n        /* \"contracts/SmartContractLessons/EnglishAuction.sol\":1412:1499  if (msg.sender != address(0)) {... */\n    tag_81:\n        /* \"contracts/SmartContractLessons/EnglishAuction.sol\":1522:1531  msg.value */\n      callvalue\n        /* \"contracts/SmartContractLessons/EnglishAuction.sol\":1509:1519  highestBid */\n      0x01\n        /* \"contracts/SmartContractLessons/EnglishAuction.sol\":1509:1531  highestBid = msg.value */\n      dup2\n      swap1\n      sstore\n      pop\n        /* \"contracts/SmartContractLessons/EnglishAuction.sol\":1557:1567  msg.sender */\n      caller\n        /* \"contracts/SmartContractLessons/EnglishAuction.sol\":1541:1554  highestBidder */\n      0x00\n      0x06\n        /* \"contracts/SmartContractLessons/EnglishAuction.sol\":1541:1567  highestBidder = msg.sender */\n      0x0100\n      exp\n      dup2\n      sload\n      dup2\n      0xffffffffffffffffffffffffffffffffffffffff\n      mul\n      not\n      and\n      swap1\n      dup4\n      0xffffffffffffffffffffffffffffffffffffffff\n      and\n      mul\n      or\n      swap1\n      sstore\n      pop\n        /* \"contracts/SmartContractLessons/EnglishAuction.sol\":1587:1597  msg.sender */\n      caller\n        /* \"contracts/SmartContractLessons/EnglishAuction.sol\":1583:1609  Bid(msg.sender, msg.value) */\n      0xffffffffffffffffffffffffffffffffffffffff\n      and\n      0xe684a55f31b79eca403df938249029212a5925ec6be8012e099b45bc1019e5d2\n        /* \"contracts/SmartContractLessons/EnglishAuction.sol\":1599:1608  msg.value */\n      callvalue\n        /* \"contracts/SmartContractLessons/EnglishAuction.sol\":1583:1609  Bid(msg.sender, msg.value) */\n      mload(0x40)\n      tag_82\n      swap2\n      swap1\n      tag_49\n      jump\t// in\n    tag_82:\n      mload(0x40)\n      dup1\n      swap2\n      sub\n      swap1\n      log2\n        /* \"contracts/SmartContractLessons/EnglishAuction.sol\":1215:1616  function bid() external payable {... */\n      jump\t// out\n        /* \"contracts/SmartContractLessons/EnglishAuction.sol\":543:562  bool public started */\n    tag_31:\n      0x00\n      0x04\n      swap1\n      sload\n      swap1\n      0x0100\n      exp\n      swap1\n      div\n      0xff\n      and\n      dup2\n      jump\t// out\n        /* \"contracts/SmartContractLessons/EnglishAuction.sol\":516:537  uint32 public endedAt */\n    tag_35:\n      0x00\n      dup1\n      sload\n      swap1\n      0x0100\n      exp\n      swap1\n      div\n      0xffffffff\n      and\n      dup2\n      jump\t// out\n        /* \"contracts/SmartContractLessons/EnglishAuction.sol\":408:436  IERC721 public immutable nft */\n    tag_40:\n      immutable(\"0x77c32b454bb61eb9df9e3848d0ded3e59753acda90ae58befe564733aec82e4c\")\n      dup2\n      jump\t// out\n        /* \"contracts/SmartContractLessons/EnglishAuction.sol\":656:695  mapping(address => uint256) public bids */\n    tag_47:\n      mstore(0x20, 0x02)\n      dup1\n      0x00\n      mstore\n      keccak256(0x00, 0x40)\n      0x00\n      swap2\n      pop\n      swap1\n      pop\n      sload\n      dup2\n      jump\t// out\n        /* \"contracts/SmartContractLessons/EnglishAuction.sol\":591:619  address public highestBidder */\n    tag_52:\n      0x00\n      0x06\n      swap1\n      sload\n      swap1\n      0x0100\n      exp\n      swap1\n      div\n      0xffffffffffffffffffffffffffffffffffffffff\n      and\n      dup2\n      jump\t// out\n        /* \"contracts/SmartContractLessons/EnglishAuction.sol\":935:1209  function start() external {... */\n    tag_56:\n        /* \"contracts/SmartContractLessons/EnglishAuction.sol\":993:999  seller */\n      immutable(\"0xd67d834462ca31eaef1f30157e31659f60355143b7441e6fc7d9eae1fa79f3f8\")\n        /* \"contracts/SmartContractLessons/EnglishAuction.sol\":979:999  msg.sender == seller */\n      0xffffffffffffffffffffffffffffffffffffffff\n      and\n        /* \"contracts/SmartContractLessons/EnglishAuction.sol\":979:989  msg.sender */\n      caller\n        /* \"contracts/SmartContractLessons/EnglishAuction.sol\":979:999  msg.sender == seller */\n      0xffffffffffffffffffffffffffffffffffffffff\n      and\n      eq\n        /* \"contracts/SmartContractLessons/EnglishAuction.sol\":971:1014  require(msg.sender == seller, \"Not seller\") */\n      tag_84\n      jumpi\n      mload(0x40)\n      0x08c379a000000000000000000000000000000000000000000000000000000000\n      dup2\n      mstore\n      0x04\n      add\n      tag_85\n      swap1\n      tag_86\n      jump\t// in\n    tag_85:\n      mload(0x40)\n      dup1\n      swap2\n      sub\n      swap1\n      revert\n    tag_84:\n        /* \"contracts/SmartContractLessons/EnglishAuction.sol\":1033:1040  started */\n      0x00\n      0x04\n      swap1\n      sload\n      swap1\n      0x0100\n      exp\n      swap1\n      div\n      0xff\n      and\n        /* \"contracts/SmartContractLessons/EnglishAuction.sol\":1032:1040  !started */\n      iszero\n        /* \"contracts/SmartContractLessons/EnglishAuction.sol\":1024:1052  require(!started, \"started\") */\n      tag_87\n      jumpi\n      mload(0x40)\n      0x08c379a000000000000000000000000000000000000000000000000000000000\n      dup2\n      mstore\n      0x04\n      add\n      tag_88\n      swap1\n      tag_89\n      jump\t// in\n    tag_88:\n      mload(0x40)\n      dup1\n      swap2\n      sub\n      swap1\n      revert\n    tag_87:\n        /* \"contracts/SmartContractLessons/EnglishAuction.sol\":1072:1076  true */\n      0x01\n        /* \"contracts/SmartContractLessons/EnglishAuction.sol\":1062:1069  started */\n      0x00\n      0x04\n        /* \"contracts/SmartContractLessons/EnglishAuction.sol\":1062:1076  started = true */\n      0x0100\n      exp\n      dup2\n      sload\n      dup2\n      0xff\n      mul\n      not\n      and\n      swap1\n      dup4\n      iszero\n      iszero\n      mul\n      or\n      swap1\n      sstore\n      pop\n        /* \"contracts/SmartContractLessons/EnglishAuction.sol\":1121:1123  60 */\n      0x3c\n        /* \"contracts/SmartContractLessons/EnglishAuction.sol\":1103:1118  block.timestamp */\n      timestamp\n        /* \"contracts/SmartContractLessons/EnglishAuction.sol\":1103:1123  block.timestamp + 60 */\n      tag_90\n      swap2\n      swap1\n      tag_91\n      jump\t// in\n    tag_90:\n        /* \"contracts/SmartContractLessons/EnglishAuction.sol\":1086:1093  endedAt */\n      0x00\n      dup1\n        /* \"contracts/SmartContractLessons/EnglishAuction.sol\":1086:1124  endedAt = uint32(block.timestamp + 60) */\n      0x0100\n      exp\n      dup2\n      sload\n      dup2\n      0xffffffff\n      mul\n      not\n      and\n      swap1\n      dup4\n      0xffffffff\n      and\n      mul\n      or\n      swap1\n      sstore\n      pop\n        /* \"contracts/SmartContractLessons/EnglishAuction.sol\":1134:1137  nft */\n      immutable(\"0x77c32b454bb61eb9df9e3848d0ded3e59753acda90ae58befe564733aec82e4c\")\n        /* \"contracts/SmartContractLessons/EnglishAuction.sol\":1134:1150  nft.transferFrom */\n      0xffffffffffffffffffffffffffffffffffffffff\n      and\n      0x23b872dd\n        /* \"contracts/SmartContractLessons/EnglishAuction.sol\":1151:1157  seller */\n      immutable(\"0xd67d834462ca31eaef1f30157e31659f60355143b7441e6fc7d9eae1fa79f3f8\")\n        /* \"contracts/SmartContractLessons/EnglishAuction.sol\":1167:1171  this */\n      address\n        /* \"contracts/SmartContractLessons/EnglishAuction.sol\":1174:1179  nftId */\n      immutable(\"0x3b4066bd7b7960752225af105d3beafb5c47a26c5aae7e6798a437b7c0bb33e6\")\n        /* \"contracts/SmartContractLessons/EnglishAuction.sol\":1134:1180  nft.transferFrom(seller, address(this), nftId) */\n      mload(0x40)\n      dup5\n      0xffffffff\n      and\n      0xe0\n      shl\n      dup2\n      mstore\n      0x04\n      add\n      tag_92\n      swap4\n      swap3\n      swap2\n      swap1\n      tag_93\n      jump\t// in\n    tag_92:\n      0x00\n      mload(0x40)\n      dup1\n      dup4\n      sub\n      dup2\n      0x00\n      dup8\n      dup1\n      extcodesize\n      iszero\n      dup1\n      iszero\n      tag_94\n      jumpi\n      0x00\n      dup1\n      revert\n    tag_94:\n      pop\n      gas\n      call\n      iszero\n      dup1\n      iszero\n      tag_96\n      jumpi\n      returndatasize\n      0x00\n      dup1\n      returndatacopy\n      revert(0x00, returndatasize)\n    tag_96:\n      pop\n      pop\n      pop\n      pop\n        /* \"contracts/SmartContractLessons/EnglishAuction.sol\":1195:1202  Start() */\n      0x1b55ba3aa851a46be3b365aee5b5c140edd620d578922f3e8466d2cbd96f954b\n      mload(0x40)\n      mload(0x40)\n      dup1\n      swap2\n      sub\n      swap1\n      log1\n        /* \"contracts/SmartContractLessons/EnglishAuction.sol\":935:1209  function start() external {... */\n      jump\t// out\n        /* \"contracts/SmartContractLessons/EnglishAuction.sol\":442:472  uint256 public immutable nftId */\n    tag_59:\n      immutable(\"0x3b4066bd7b7960752225af105d3beafb5c47a26c5aae7e6798a437b7c0bb33e6\")\n      dup2\n      jump\t// out\n        /* \"contracts/SmartContractLessons/EnglishAuction.sol\":1622:1911  function withdrawal() external {... */\n    tag_63:\n        /* \"contracts/SmartContractLessons/EnglishAuction.sol\":1690:1691  0 */\n      0x00\n        /* \"contracts/SmartContractLessons/EnglishAuction.sol\":1671:1675  bids */\n      0x02\n        /* \"contracts/SmartContractLessons/EnglishAuction.sol\":1671:1687  bids[msg.sender] */\n      0x00\n        /* \"contracts/SmartContractLessons/EnglishAuction.sol\":1676:1686  msg.sender */\n      caller\n        /* \"contracts/SmartContractLessons/EnglishAuction.sol\":1671:1687  bids[msg.sender] */\n      0xffffffffffffffffffffffffffffffffffffffff\n      and\n      0xffffffffffffffffffffffffffffffffffffffff\n      and\n      dup2\n      mstore\n      0x20\n      add\n      swap1\n      dup2\n      mstore\n      0x20\n      add\n      0x00\n      keccak256\n      sload\n        /* \"contracts/SmartContractLessons/EnglishAuction.sol\":1671:1691  bids[msg.sender] > 0 */\n      gt\n        /* \"contracts/SmartContractLessons/EnglishAuction.sol\":1663:1701  require(bids[msg.sender] > 0, \"Empty\") */\n      tag_98\n      jumpi\n      mload(0x40)\n      0x08c379a000000000000000000000000000000000000000000000000000000000\n      dup2\n      mstore\n      0x04\n      add\n      tag_99\n      swap1\n      tag_100\n      jump\t// in\n    tag_99:\n      mload(0x40)\n      dup1\n      swap2\n      sub\n      swap1\n      revert\n    tag_98:\n        /* \"contracts/SmartContractLessons/EnglishAuction.sol\":1711:1722  uint256 bal */\n      0x00\n        /* \"contracts/SmartContractLessons/EnglishAuction.sol\":1725:1729  bids */\n      0x02\n        /* \"contracts/SmartContractLessons/EnglishAuction.sol\":1725:1741  bids[msg.sender] */\n      0x00\n        /* \"contracts/SmartContractLessons/EnglishAuction.sol\":1730:1740  msg.sender */\n      caller\n        /* \"contracts/SmartContractLessons/EnglishAuction.sol\":1725:1741  bids[msg.sender] */\n      0xffffffffffffffffffffffffffffffffffffffff\n      and\n      0xffffffffffffffffffffffffffffffffffffffff\n      and\n      dup2\n      mstore\n      0x20\n      add\n      swap1\n      dup2\n      mstore\n      0x20\n      add\n      0x00\n      keccak256\n      sload\n        /* \"contracts/SmartContractLessons/EnglishAuction.sol\":1711:1741  uint256 bal = bids[msg.sender] */\n      swap1\n      pop\n        /* \"contracts/SmartContractLessons/EnglishAuction.sol\":1770:1771  0 */\n      0x00\n        /* \"contracts/SmartContractLessons/EnglishAuction.sol\":1751:1755  bids */\n      0x02\n        /* \"contracts/SmartContractLessons/EnglishAuction.sol\":1751:1767  bids[msg.sender] */\n      0x00\n        /* \"contracts/SmartContractLessons/EnglishAuction.sol\":1756:1766  msg.sender */\n      caller\n        /* \"contracts/SmartContractLessons/EnglishAuction.sol\":1751:1767  bids[msg.sender] */\n      0xffffffffffffffffffffffffffffffffffffffff\n      and\n      0xffffffffffffffffffffffffffffffffffffffff\n      and\n      dup2\n      mstore\n      0x20\n      add\n      swap1\n      dup2\n      mstore\n      0x20\n      add\n      0x00\n      keccak256\n        /* \"contracts/SmartContractLessons/EnglishAuction.sol\":1751:1771  bids[msg.sender] = 0 */\n      dup2\n      swap1\n      sstore\n      pop\n        /* \"contracts/SmartContractLessons/EnglishAuction.sol\":1839:1849  msg.sender */\n      caller\n        /* \"contracts/SmartContractLessons/EnglishAuction.sol\":1831:1859  payable(msg.sender).transfer */\n      0xffffffffffffffffffffffffffffffffffffffff\n      and\n        /* \"contracts/SmartContractLessons/EnglishAuction.sol\":1831:1864  payable(msg.sender).transfer(bal) */\n      0x08fc\n        /* \"contracts/SmartContractLessons/EnglishAuction.sol\":1860:1863  bal */\n      dup3\n        /* \"contracts/SmartContractLessons/EnglishAuction.sol\":1831:1864  payable(msg.sender).transfer(bal) */\n      swap1\n      dup2\n      iszero\n      mul\n      swap1\n      mload(0x40)\n      0x00\n      mload(0x40)\n      dup1\n      dup4\n      sub\n      dup2\n      dup6\n      dup9\n      dup9\n      call\n      swap4\n      pop\n      pop\n      pop\n      pop\n      iszero\n      dup1\n      iszero\n      tag_102\n      jumpi\n      returndatasize\n      0x00\n      dup1\n      returndatacopy\n      revert(0x00, returndatasize)\n    tag_102:\n      pop\n        /* \"contracts/SmartContractLessons/EnglishAuction.sol\":1888:1898  msg.sender */\n      caller\n        /* \"contracts/SmartContractLessons/EnglishAuction.sol\":1879:1904  Withdraw(msg.sender, bal) */\n      0xffffffffffffffffffffffffffffffffffffffff\n      and\n      0x884edad9ce6fa2440d8a54cc123490eb96d2768479d49ff9c7366125a9424364\n        /* \"contracts/SmartContractLessons/EnglishAuction.sol\":1900:1903  bal */\n      dup3\n        /* \"contracts/SmartContractLessons/EnglishAuction.sol\":1879:1904  Withdraw(msg.sender, bal) */\n      mload(0x40)\n      tag_103\n      swap2\n      swap1\n      tag_49\n      jump\t// in\n    tag_103:\n      mload(0x40)\n      dup1\n      swap2\n      sub\n      swap1\n      log2\n        /* \"contracts/SmartContractLessons/EnglishAuction.sol\":1653:1911  {... */\n      pop\n        /* \"contracts/SmartContractLessons/EnglishAuction.sol\":1622:1911  function withdrawal() external {... */\n      jump\t// out\n        /* \"contracts/SmartContractLessons/EnglishAuction.sol\":625:650  uint256 public highestBid */\n    tag_66:\n      sload(0x01)\n      dup2\n      jump\t// out\n        /* \"contracts/SmartContractLessons/EnglishAuction.sol\":1917:2391  function end() external {... */\n    tag_70:\n        /* \"contracts/SmartContractLessons/EnglishAuction.sol\":1959:1966  started */\n      0x00\n      0x04\n      swap1\n      sload\n      swap1\n      0x0100\n      exp\n      swap1\n      div\n      0xff\n      and\n        /* \"contracts/SmartContractLessons/EnglishAuction.sol\":1951:1982  require(started, \"Not started\") */\n      tag_105\n      jumpi\n      mload(0x40)\n      0x08c379a000000000000000000000000000000000000000000000000000000000\n      dup2\n      mstore\n      0x04\n      add\n      tag_106\n      swap1\n      tag_74\n      jump\t// in\n    tag_106:\n      mload(0x40)\n      dup1\n      swap2\n      sub\n      swap1\n      revert\n    tag_105:\n        /* \"contracts/SmartContractLessons/EnglishAuction.sol\":2001:2006  ended */\n      0x00\n      0x05\n      swap1\n      sload\n      swap1\n      0x0100\n      exp\n      swap1\n      div\n      0xff\n      and\n        /* \"contracts/SmartContractLessons/EnglishAuction.sol\":2000:2006  !ended */\n      iszero\n        /* \"contracts/SmartContractLessons/EnglishAuction.sol\":1992:2016  require(!ended, \"ended\") */\n      tag_107\n      jumpi\n      mload(0x40)\n      0x08c379a000000000000000000000000000000000000000000000000000000000\n      dup2\n      mstore\n      0x04\n      add\n      tag_108\n      swap1\n      tag_77\n      jump\t// in\n    tag_108:\n      mload(0x40)\n      dup1\n      swap2\n      sub\n      swap1\n      revert\n    tag_107:\n        /* \"contracts/SmartContractLessons/EnglishAuction.sol\":2053:2060  endedAt */\n      0x00\n      dup1\n      sload\n      swap1\n      0x0100\n      exp\n      swap1\n      div\n      0xffffffff\n      and\n        /* \"contracts/SmartContractLessons/EnglishAuction.sol\":2034:2060  block.timestamp >= endedAt */\n      0xffffffff\n      and\n        /* \"contracts/SmartContractLessons/EnglishAuction.sol\":2034:2049  block.timestamp */\n      timestamp\n        /* \"contracts/SmartContractLessons/EnglishAuction.sol\":2034:2060  block.timestamp >= endedAt */\n      lt\n      iszero\n        /* \"contracts/SmartContractLessons/EnglishAuction.sol\":2026:2070  require(block.timestamp >= endedAt, \"ended\") */\n      tag_109\n      jumpi\n      mload(0x40)\n      0x08c379a000000000000000000000000000000000000000000000000000000000\n      dup2\n      mstore\n      0x04\n      add\n      tag_110\n      swap1\n      tag_77\n      jump\t// in\n    tag_110:\n      mload(0x40)\n      dup1\n      swap2\n      sub\n      swap1\n      revert\n    tag_109:\n        /* \"contracts/SmartContractLessons/EnglishAuction.sol\":2088:2092  true */\n      0x01\n        /* \"contracts/SmartContractLessons/EnglishAuction.sol\":2080:2085  ended */\n      0x00\n      0x05\n        /* \"contracts/SmartContractLessons/EnglishAuction.sol\":2080:2092  ended = true */\n      0x0100\n      exp\n      dup2\n      sload\n      dup2\n      0xff\n      mul\n      not\n      and\n      swap1\n      dup4\n      iszero\n      iszero\n      mul\n      or\n      swap1\n      sstore\n      pop\n        /* \"contracts/SmartContractLessons/EnglishAuction.sol\":2131:2132  0 */\n      0x00\n        /* \"contracts/SmartContractLessons/EnglishAuction.sol\":2106:2133  highestBidder != address(0) */\n      0xffffffffffffffffffffffffffffffffffffffff\n      and\n        /* \"contracts/SmartContractLessons/EnglishAuction.sol\":2106:2119  highestBidder */\n      0x00\n      0x06\n      swap1\n      sload\n      swap1\n      0x0100\n      exp\n      swap1\n      div\n      0xffffffffffffffffffffffffffffffffffffffff\n      and\n        /* \"contracts/SmartContractLessons/EnglishAuction.sol\":2106:2133  highestBidder != address(0) */\n      0xffffffffffffffffffffffffffffffffffffffff\n      and\n      eq\n        /* \"contracts/SmartContractLessons/EnglishAuction.sol\":2102:2340  if (highestBidder != address(0)) {... */\n      tag_111\n      jumpi\n        /* \"contracts/SmartContractLessons/EnglishAuction.sol\":2149:2152  nft */\n      immutable(\"0x77c32b454bb61eb9df9e3848d0ded3e59753acda90ae58befe564733aec82e4c\")\n        /* \"contracts/SmartContractLessons/EnglishAuction.sol\":2149:2165  nft.transferFrom */\n      0xffffffffffffffffffffffffffffffffffffffff\n      and\n      0x23b872dd\n        /* \"contracts/SmartContractLessons/EnglishAuction.sol\":2174:2178  this */\n      address\n        /* \"contracts/SmartContractLessons/EnglishAuction.sol\":2181:2194  highestBidder */\n      0x00\n      0x06\n      swap1\n      sload\n      swap1\n      0x0100\n      exp\n      swap1\n      div\n      0xffffffffffffffffffffffffffffffffffffffff\n      and\n        /* \"contracts/SmartContractLessons/EnglishAuction.sol\":2196:2201  nftId */\n      immutable(\"0x3b4066bd7b7960752225af105d3beafb5c47a26c5aae7e6798a437b7c0bb33e6\")\n        /* \"contracts/SmartContractLessons/EnglishAuction.sol\":2149:2202  nft.transferFrom(address(this), highestBidder, nftId) */\n      mload(0x40)\n      dup5\n      0xffffffff\n      and\n      0xe0\n      shl\n      dup2\n      mstore\n      0x04\n      add\n      tag_112\n      swap4\n      swap3\n      swap2\n      swap1\n      tag_93\n      jump\t// in\n    tag_112:\n      0x00\n      mload(0x40)\n      dup1\n      dup4\n      sub\n      dup2\n      0x00\n      dup8\n      dup1\n      extcodesize\n      iszero\n      dup1\n      iszero\n      tag_113\n      jumpi\n      0x00\n      dup1\n      revert\n    tag_113:\n      pop\n      gas\n      call\n      iszero\n      dup1\n      iszero\n      tag_115\n      jumpi\n      returndatasize\n      0x00\n      dup1\n      returndatacopy\n      revert(0x00, returndatasize)\n    tag_115:\n      pop\n      pop\n      pop\n      pop\n        /* \"contracts/SmartContractLessons/EnglishAuction.sol\":2224:2230  seller */\n      immutable(\"0xd67d834462ca31eaef1f30157e31659f60355143b7441e6fc7d9eae1fa79f3f8\")\n        /* \"contracts/SmartContractLessons/EnglishAuction.sol\":2216:2240  payable(seller).transfer */\n      0xffffffffffffffffffffffffffffffffffffffff\n      and\n        /* \"contracts/SmartContractLessons/EnglishAuction.sol\":2216:2252  payable(seller).transfer(highestBid) */\n      0x08fc\n        /* \"contracts/SmartContractLessons/EnglishAuction.sol\":2241:2251  highestBid */\n      sload(0x01)\n        /* \"contracts/SmartContractLessons/EnglishAuction.sol\":2216:2252  payable(seller).transfer(highestBid) */\n      swap1\n      dup2\n      iszero\n      mul\n      swap1\n      mload(0x40)\n      0x00\n      mload(0x40)\n      dup1\n      dup4\n      sub\n      dup2\n      dup6\n      dup9\n      dup9\n      call\n      swap4\n      pop\n      pop\n      pop\n      pop\n      iszero\n      dup1\n      iszero\n      tag_117\n      jumpi\n      returndatasize\n      0x00\n      dup1\n      returndatacopy\n      revert(0x00, returndatasize)\n    tag_117:\n      pop\n        /* \"contracts/SmartContractLessons/EnglishAuction.sol\":2102:2340  if (highestBidder != address(0)) {... */\n      jump(tag_118)\n    tag_111:\n        /* \"contracts/SmartContractLessons/EnglishAuction.sol\":2283:2286  nft */\n      immutable(\"0x77c32b454bb61eb9df9e3848d0ded3e59753acda90ae58befe564733aec82e4c\")\n        /* \"contracts/SmartContractLessons/EnglishAuction.sol\":2283:2299  nft.transferFrom */\n      0xffffffffffffffffffffffffffffffffffffffff\n      and\n      0x23b872dd\n        /* \"contracts/SmartContractLessons/EnglishAuction.sol\":2308:2312  this */\n      address\n        /* \"contracts/SmartContractLessons/EnglishAuction.sol\":2315:2321  seller */\n      immutable(\"0xd67d834462ca31eaef1f30157e31659f60355143b7441e6fc7d9eae1fa79f3f8\")\n        /* \"contracts/SmartContractLessons/EnglishAuction.sol\":2323:2328  nftId */\n      immutable(\"0x3b4066bd7b7960752225af105d3beafb5c47a26c5aae7e6798a437b7c0bb33e6\")\n        /* \"contracts/SmartContractLessons/EnglishAuction.sol\":2283:2329  nft.transferFrom(address(this), seller, nftId) */\n      mload(0x40)\n      dup5\n      0xffffffff\n      and\n      0xe0\n      shl\n      dup2\n      mstore\n      0x04\n      add\n      tag_119\n      swap4\n      swap3\n      swap2\n      swap1\n      tag_93\n      jump\t// in\n    tag_119:\n      0x00\n      mload(0x40)\n      dup1\n      dup4\n      sub\n      dup2\n      0x00\n      dup8\n      dup1\n      extcodesize\n      iszero\n      dup1\n      iszero\n      tag_120\n      jumpi\n      0x00\n      dup1\n      revert\n    tag_120:\n      pop\n      gas\n      call\n      iszero\n      dup1\n      iszero\n      tag_122\n      jumpi\n      returndatasize\n      0x00\n      dup1\n      returndatacopy\n      revert(0x00, returndatasize)\n    tag_122:\n      pop\n      pop\n      pop\n      pop\n        /* \"contracts/SmartContractLessons/EnglishAuction.sol\":2102:2340  if (highestBidder != address(0)) {... */\n    tag_118:\n        /* \"contracts/SmartContractLessons/EnglishAuction.sol\":2354:2384  End(highestBidder, highestBid) */\n      0x7d7570b046e5ead3a4f3fbc9fa2445113625a1e79823776146316bafed6b8cc5\n        /* \"contracts/SmartContractLessons/EnglishAuction.sol\":2358:2371  highestBidder */\n      0x00\n      0x06\n      swap1\n      sload\n      swap1\n      0x0100\n      exp\n      swap1\n      div\n      0xffffffffffffffffffffffffffffffffffffffff\n      and\n        /* \"contracts/SmartContractLessons/EnglishAuction.sol\":2373:2383  highestBid */\n      sload(0x01)\n        /* \"contracts/SmartContractLessons/EnglishAuction.sol\":2354:2384  End(highestBidder, highestBid) */\n      mload(0x40)\n      tag_123\n      swap3\n      swap2\n      swap1\n      tag_124\n      jump\t// in\n    tag_123:\n      mload(0x40)\n      dup1\n      swap2\n      sub\n      swap1\n      log1\n        /* \"contracts/SmartContractLessons/EnglishAuction.sol\":1917:2391  function end() external {... */\n      jump\t// out\n        /* \"#utility.yul\":7:133   */\n    tag_125:\n        /* \"#utility.yul\":44:51   */\n      0x00\n        /* \"#utility.yul\":84:126   */\n      0xffffffffffffffffffffffffffffffffffffffff\n        /* \"#utility.yul\":77:82   */\n      dup3\n        /* \"#utility.yul\":73:127   */\n      and\n        /* \"#utility.yul\":62:127   */\n      swap1\n      pop\n        /* \"#utility.yul\":7:133   */\n      swap2\n      swap1\n      pop\n      jump\t// out\n        /* \"#utility.yul\":139:235   */\n    tag_126:\n        /* \"#utility.yul\":176:183   */\n      0x00\n        /* \"#utility.yul\":205:229   */\n      tag_161\n        /* \"#utility.yul\":223:228   */\n      dup3\n        /* \"#utility.yul\":205:229   */\n      tag_125\n      jump\t// in\n    tag_161:\n        /* \"#utility.yul\":194:229   */\n      swap1\n      pop\n        /* \"#utility.yul\":139:235   */\n      swap2\n      swap1\n      pop\n      jump\t// out\n        /* \"#utility.yul\":241:359   */\n    tag_127:\n        /* \"#utility.yul\":328:352   */\n      tag_163\n        /* \"#utility.yul\":346:351   */\n      dup2\n        /* \"#utility.yul\":328:352   */\n      tag_126\n      jump\t// in\n    tag_163:\n        /* \"#utility.yul\":323:326   */\n      dup3\n        /* \"#utility.yul\":316:353   */\n      mstore\n        /* \"#utility.yul\":241:359   */\n      pop\n      pop\n      jump\t// out\n        /* \"#utility.yul\":365:587   */\n    tag_21:\n        /* \"#utility.yul\":458:462   */\n      0x00\n        /* \"#utility.yul\":496:498   */\n      0x20\n        /* \"#utility.yul\":485:494   */\n      dup3\n        /* \"#utility.yul\":481:499   */\n      add\n        /* \"#utility.yul\":473:499   */\n      swap1\n      pop\n        /* \"#utility.yul\":509:580   */\n      tag_165\n        /* \"#utility.yul\":577:578   */\n      0x00\n        /* \"#utility.yul\":566:575   */\n      dup4\n        /* \"#utility.yul\":562:579   */\n      add\n        /* \"#utility.yul\":553:559   */\n      dup5\n        /* \"#utility.yul\":509:580   */\n      tag_127\n      jump\t// in\n    tag_165:\n        /* \"#utility.yul\":365:587   */\n      swap3\n      swap2\n      pop\n      pop\n      jump\t// out\n        /* \"#utility.yul\":593:683   */\n    tag_128:\n        /* \"#utility.yul\":627:634   */\n      0x00\n        /* \"#utility.yul\":670:675   */\n      dup2\n        /* \"#utility.yul\":663:676   */\n      iszero\n        /* \"#utility.yul\":656:677   */\n      iszero\n        /* \"#utility.yul\":645:677   */\n      swap1\n      pop\n        /* \"#utility.yul\":593:683   */\n      swap2\n      swap1\n      pop\n      jump\t// out\n        /* \"#utility.yul\":689:798   */\n    tag_129:\n        /* \"#utility.yul\":770:791   */\n      tag_168\n        /* \"#utility.yul\":785:790   */\n      dup2\n        /* \"#utility.yul\":770:791   */\n      tag_128\n      jump\t// in\n    tag_168:\n        /* \"#utility.yul\":765:768   */\n      dup3\n        /* \"#utility.yul\":758:792   */\n      mstore\n        /* \"#utility.yul\":689:798   */\n      pop\n      pop\n      jump\t// out\n        /* \"#utility.yul\":804:1014   */\n    tag_26:\n        /* \"#utility.yul\":891:895   */\n      0x00\n        /* \"#utility.yul\":929:931   */\n      0x20\n        /* \"#utility.yul\":918:927   */\n      dup3\n        /* \"#utility.yul\":914:932   */\n      add\n        /* \"#utility.yul\":906:932   */\n      swap1\n      pop\n        /* \"#utility.yul\":942:1007   */\n      tag_170\n        /* \"#utility.yul\":1004:1005   */\n      0x00\n        /* \"#utility.yul\":993:1002   */\n      dup4\n        /* \"#utility.yul\":989:1006   */\n      add\n        /* \"#utility.yul\":980:986   */\n      dup5\n        /* \"#utility.yul\":942:1007   */\n      tag_129\n      jump\t// in\n    tag_170:\n        /* \"#utility.yul\":804:1014   */\n      swap3\n      swap2\n      pop\n      pop\n      jump\t// out\n        /* \"#utility.yul\":1020:1113   */\n    tag_130:\n        /* \"#utility.yul\":1056:1063   */\n      0x00\n        /* \"#utility.yul\":1096:1106   */\n      0xffffffff\n        /* \"#utility.yul\":1089:1094   */\n      dup3\n        /* \"#utility.yul\":1085:1107   */\n      and\n        /* \"#utility.yul\":1074:1107   */\n      swap1\n      pop\n        /* \"#utility.yul\":1020:1113   */\n      swap2\n      swap1\n      pop\n      jump\t// out\n        /* \"#utility.yul\":1119:1234   */\n    tag_131:\n        /* \"#utility.yul\":1204:1227   */\n      tag_173\n        /* \"#utility.yul\":1221:1226   */\n      dup2\n        /* \"#utility.yul\":1204:1227   */\n      tag_130\n      jump\t// in\n    tag_173:\n        /* \"#utility.yul\":1199:1202   */\n      dup3\n        /* \"#utility.yul\":1192:1228   */\n      mstore\n        /* \"#utility.yul\":1119:1234   */\n      pop\n      pop\n      jump\t// out\n        /* \"#utility.yul\":1240:1458   */\n    tag_37:\n        /* \"#utility.yul\":1331:1335   */\n      0x00\n        /* \"#utility.yul\":1369:1371   */\n      0x20\n        /* \"#utility.yul\":1358:1367   */\n      dup3\n        /* \"#utility.yul\":1354:1372   */\n      add\n        /* \"#utility.yul\":1346:1372   */\n      swap1\n      pop\n        /* \"#utility.yul\":1382:1451   */\n      tag_175\n        /* \"#utility.yul\":1448:1449   */\n      0x00\n        /* \"#utility.yul\":1437:1446   */\n      dup4\n        /* \"#utility.yul\":1433:1450   */\n      add\n        /* \"#utility.yul\":1424:1430   */\n      dup5\n        /* \"#utility.yul\":1382:1451   */\n      tag_131\n      jump\t// in\n    tag_175:\n        /* \"#utility.yul\":1240:1458   */\n      swap3\n      swap2\n      pop\n      pop\n      jump\t// out\n        /* \"#utility.yul\":1464:1524   */\n    tag_132:\n        /* \"#utility.yul\":1492:1495   */\n      0x00\n        /* \"#utility.yul\":1513:1518   */\n      dup2\n        /* \"#utility.yul\":1506:1518   */\n      swap1\n      pop\n        /* \"#utility.yul\":1464:1524   */\n      swap2\n      swap1\n      pop\n      jump\t// out\n        /* \"#utility.yul\":1530:1672   */\n    tag_133:\n        /* \"#utility.yul\":1580:1589   */\n      0x00\n        /* \"#utility.yul\":1613:1666   */\n      tag_178\n        /* \"#utility.yul\":1631:1665   */\n      tag_179\n        /* \"#utility.yul\":1640:1664   */\n      tag_180\n        /* \"#utility.yul\":1658:1663   */\n      dup5\n        /* \"#utility.yul\":1640:1664   */\n      tag_125\n      jump\t// in\n    tag_180:\n        /* \"#utility.yul\":1631:1665   */\n      tag_132\n      jump\t// in\n    tag_179:\n        /* \"#utility.yul\":1613:1666   */\n      tag_125\n      jump\t// in\n    tag_178:\n        /* \"#utility.yul\":1600:1666   */\n      swap1\n      pop\n        /* \"#utility.yul\":1530:1672   */\n      swap2\n      swap1\n      pop\n      jump\t// out\n        /* \"#utility.yul\":1678:1804   */\n    tag_134:\n        /* \"#utility.yul\":1728:1737   */\n      0x00\n        /* \"#utility.yul\":1761:1798   */\n      tag_182\n        /* \"#utility.yul\":1792:1797   */\n      dup3\n        /* \"#utility.yul\":1761:1798   */\n      tag_133\n      jump\t// in\n    tag_182:\n        /* \"#utility.yul\":1748:1798   */\n      swap1\n      pop\n        /* \"#utility.yul\":1678:1804   */\n      swap2\n      swap1\n      pop\n      jump\t// out\n        /* \"#utility.yul\":1810:1950   */\n    tag_135:\n        /* \"#utility.yul\":1874:1883   */\n      0x00\n        /* \"#utility.yul\":1907:1944   */\n      tag_184\n        /* \"#utility.yul\":1938:1943   */\n      dup3\n        /* \"#utility.yul\":1907:1944   */\n      tag_134\n      jump\t// in\n    tag_184:\n        /* \"#utility.yul\":1894:1944   */\n      swap1\n      pop\n        /* \"#utility.yul\":1810:1950   */\n      swap2\n      swap1\n      pop\n      jump\t// out\n        /* \"#utility.yul\":1956:2115   */\n    tag_136:\n        /* \"#utility.yul\":2057:2108   */\n      tag_186\n        /* \"#utility.yul\":2102:2107   */\n      dup2\n        /* \"#utility.yul\":2057:2108   */\n      tag_135\n      jump\t// in\n    tag_186:\n        /* \"#utility.yul\":2052:2055   */\n      dup3\n        /* \"#utility.yul\":2045:2109   */\n      mstore\n        /* \"#utility.yul\":1956:2115   */\n      pop\n      pop\n      jump\t// out\n        /* \"#utility.yul\":2121:2371   */\n    tag_42:\n        /* \"#utility.yul\":2228:2232   */\n      0x00\n        /* \"#utility.yul\":2266:2268   */\n      0x20\n        /* \"#utility.yul\":2255:2264   */\n      dup3\n        /* \"#utility.yul\":2251:2269   */\n      add\n        /* \"#utility.yul\":2243:2269   */\n      swap1\n      pop\n        /* \"#utility.yul\":2279:2364   */\n      tag_188\n        /* \"#utility.yul\":2361:2362   */\n      0x00\n        /* \"#utility.yul\":2350:2359   */\n      dup4\n        /* \"#utility.yul\":2346:2363   */\n      add\n        /* \"#utility.yul\":2337:2343   */\n      dup5\n        /* \"#utility.yul\":2279:2364   */\n      tag_136\n      jump\t// in\n    tag_188:\n        /* \"#utility.yul\":2121:2371   */\n      swap3\n      swap2\n      pop\n      pop\n      jump\t// out\n        /* \"#utility.yul\":2458:2575   */\n    tag_138:\n        /* \"#utility.yul\":2567:2568   */\n      0x00\n        /* \"#utility.yul\":2564:2565   */\n      dup1\n        /* \"#utility.yul\":2557:2569   */\n      revert\n        /* \"#utility.yul\":2704:2826   */\n    tag_140:\n        /* \"#utility.yul\":2777:2801   */\n      tag_193\n        /* \"#utility.yul\":2795:2800   */\n      dup2\n        /* \"#utility.yul\":2777:2801   */\n      tag_126\n      jump\t// in\n    tag_193:\n        /* \"#utility.yul\":2770:2775   */\n      dup2\n        /* \"#utility.yul\":2767:2802   */\n      eq\n        /* \"#utility.yul\":2757:2820   */\n      tag_194\n      jumpi\n        /* \"#utility.yul\":2816:2817   */\n      0x00\n        /* \"#utility.yul\":2813:2814   */\n      dup1\n        /* \"#utility.yul\":2806:2818   */\n      revert\n        /* \"#utility.yul\":2757:2820   */\n    tag_194:\n        /* \"#utility.yul\":2704:2826   */\n      pop\n      jump\t// out\n        /* \"#utility.yul\":2832:2971   */\n    tag_141:\n        /* \"#utility.yul\":2878:2883   */\n      0x00\n        /* \"#utility.yul\":2916:2922   */\n      dup2\n        /* \"#utility.yul\":2903:2923   */\n      calldataload\n        /* \"#utility.yul\":2894:2923   */\n      swap1\n      pop\n        /* \"#utility.yul\":2932:2965   */\n      tag_196\n        /* \"#utility.yul\":2959:2964   */\n      dup2\n        /* \"#utility.yul\":2932:2965   */\n      tag_140\n      jump\t// in\n    tag_196:\n        /* \"#utility.yul\":2832:2971   */\n      swap3\n      swap2\n      pop\n      pop\n      jump\t// out\n        /* \"#utility.yul\":2977:3306   */\n    tag_46:\n        /* \"#utility.yul\":3036:3042   */\n      0x00\n        /* \"#utility.yul\":3085:3087   */\n      0x20\n        /* \"#utility.yul\":3073:3082   */\n      dup3\n        /* \"#utility.yul\":3064:3071   */\n      dup5\n        /* \"#utility.yul\":3060:3083   */\n      sub\n        /* \"#utility.yul\":3056:3088   */\n      slt\n        /* \"#utility.yul\":3053:3172   */\n      iszero\n      tag_198\n      jumpi\n        /* \"#utility.yul\":3091:3170   */\n      tag_199\n      tag_138\n      jump\t// in\n    tag_199:\n        /* \"#utility.yul\":3053:3172   */\n    tag_198:\n        /* \"#utility.yul\":3211:3212   */\n      0x00\n        /* \"#utility.yul\":3236:3289   */\n      tag_200\n        /* \"#utility.yul\":3281:3288   */\n      dup5\n        /* \"#utility.yul\":3272:3278   */\n      dup3\n        /* \"#utility.yul\":3261:3270   */\n      dup6\n        /* \"#utility.yul\":3257:3279   */\n      add\n        /* \"#utility.yul\":3236:3289   */\n      tag_141\n      jump\t// in\n    tag_200:\n        /* \"#utility.yul\":3226:3289   */\n      swap2\n      pop\n        /* \"#utility.yul\":3182:3299   */\n      pop\n        /* \"#utility.yul\":2977:3306   */\n      swap3\n      swap2\n      pop\n      pop\n      jump\t// out\n        /* \"#utility.yul\":3312:3389   */\n    tag_142:\n        /* \"#utility.yul\":3349:3356   */\n      0x00\n        /* \"#utility.yul\":3378:3383   */\n      dup2\n        /* \"#utility.yul\":3367:3383   */\n      swap1\n      pop\n        /* \"#utility.yul\":3312:3389   */\n      swap2\n      swap1\n      pop\n      jump\t// out\n        /* \"#utility.yul\":3395:3513   */\n    tag_143:\n        /* \"#utility.yul\":3482:3506   */\n      tag_203\n        /* \"#utility.yul\":3500:3505   */\n      dup2\n        /* \"#utility.yul\":3482:3506   */\n      tag_142\n      jump\t// in\n    tag_203:\n        /* \"#utility.yul\":3477:3480   */\n      dup3\n        /* \"#utility.yul\":3470:3507   */\n      mstore\n        /* \"#utility.yul\":3395:3513   */\n      pop\n      pop\n      jump\t// out\n        /* \"#utility.yul\":3519:3741   */\n    tag_49:\n        /* \"#utility.yul\":3612:3616   */\n      0x00\n        /* \"#utility.yul\":3650:3652   */\n      0x20\n        /* \"#utility.yul\":3639:3648   */\n      dup3\n        /* \"#utility.yul\":3635:3653   */\n      add\n        /* \"#utility.yul\":3627:3653   */\n      swap1\n      pop\n        /* \"#utility.yul\":3663:3734   */\n      tag_205\n        /* \"#utility.yul\":3731:3732   */\n      0x00\n        /* \"#utility.yul\":3720:3729   */\n      dup4\n        /* \"#utility.yul\":3716:3733   */\n      add\n        /* \"#utility.yul\":3707:3713   */\n      dup5\n        /* \"#utility.yul\":3663:3734   */\n      tag_143\n      jump\t// in\n    tag_205:\n        /* \"#utility.yul\":3519:3741   */\n      swap3\n      swap2\n      pop\n      pop\n      jump\t// out\n        /* \"#utility.yul\":3747:3916   */\n    tag_144:\n        /* \"#utility.yul\":3831:3842   */\n      0x00\n        /* \"#utility.yul\":3865:3871   */\n      dup3\n        /* \"#utility.yul\":3860:3863   */\n      dup3\n        /* \"#utility.yul\":3853:3872   */\n      mstore\n        /* \"#utility.yul\":3905:3909   */\n      0x20\n        /* \"#utility.yul\":3900:3903   */\n      dup3\n        /* \"#utility.yul\":3896:3910   */\n      add\n        /* \"#utility.yul\":3881:3910   */\n      swap1\n      pop\n        /* \"#utility.yul\":3747:3916   */\n      swap3\n      swap2\n      pop\n      pop\n      jump\t// out\n        /* \"#utility.yul\":3922:4083   */\n    tag_145:\n        /* \"#utility.yul\":4062:4075   */\n      0x4e6f742073746172746564000000000000000000000000000000000000000000\n        /* \"#utility.yul\":4058:4059   */\n      0x00\n        /* \"#utility.yul\":4050:4056   */\n      dup3\n        /* \"#utility.yul\":4046:4060   */\n      add\n        /* \"#utility.yul\":4039:4076   */\n      mstore\n        /* \"#utility.yul\":3922:4083   */\n      pop\n      jump\t// out\n        /* \"#utility.yul\":4089:4455   */\n    tag_146:\n        /* \"#utility.yul\":4231:4234   */\n      0x00\n        /* \"#utility.yul\":4252:4319   */\n      tag_209\n        /* \"#utility.yul\":4316:4318   */\n      0x0b\n        /* \"#utility.yul\":4311:4314   */\n      dup4\n        /* \"#utility.yul\":4252:4319   */\n      tag_144\n      jump\t// in\n    tag_209:\n        /* \"#utility.yul\":4245:4319   */\n      swap2\n      pop\n        /* \"#utility.yul\":4328:4421   */\n      tag_210\n        /* \"#utility.yul\":4417:4420   */\n      dup3\n        /* \"#utility.yul\":4328:4421   */\n      tag_145\n      jump\t// in\n    tag_210:\n        /* \"#utility.yul\":4446:4448   */\n      0x20\n        /* \"#utility.yul\":4441:4444   */\n      dup3\n        /* \"#utility.yul\":4437:4449   */\n      add\n        /* \"#utility.yul\":4430:4449   */\n      swap1\n      pop\n        /* \"#utility.yul\":4089:4455   */\n      swap2\n      swap1\n      pop\n      jump\t// out\n        /* \"#utility.yul\":4461:4880   */\n    tag_74:\n        /* \"#utility.yul\":4627:4631   */\n      0x00\n        /* \"#utility.yul\":4665:4667   */\n      0x20\n        /* \"#utility.yul\":4654:4663   */\n      dup3\n        /* \"#utility.yul\":4650:4668   */\n      add\n        /* \"#utility.yul\":4642:4668   */\n      swap1\n      pop\n        /* \"#utility.yul\":4714:4723   */\n      dup2\n        /* \"#utility.yul\":4708:4712   */\n      dup2\n        /* \"#utility.yul\":4704:4724   */\n      sub\n        /* \"#utility.yul\":4700:4701   */\n      0x00\n        /* \"#utility.yul\":4689:4698   */\n      dup4\n        /* \"#utility.yul\":4685:4702   */\n      add\n        /* \"#utility.yul\":4678:4725   */\n      mstore\n        /* \"#utility.yul\":4742:4873   */\n      tag_212\n        /* \"#utility.yul\":4868:4872   */\n      dup2\n        /* \"#utility.yul\":4742:4873   */\n      tag_146\n      jump\t// in\n    tag_212:\n        /* \"#utility.yul\":4734:4873   */\n      swap1\n      pop\n        /* \"#utility.yul\":4461:4880   */\n      swap2\n      swap1\n      pop\n      jump\t// out\n        /* \"#utility.yul\":4886:5041   */\n    tag_147:\n        /* \"#utility.yul\":5026:5033   */\n      0x656e646564000000000000000000000000000000000000000000000000000000\n        /* \"#utility.yul\":5022:5023   */\n      0x00\n        /* \"#utility.yul\":5014:5020   */\n      dup3\n        /* \"#utility.yul\":5010:5024   */\n      add\n        /* \"#utility.yul\":5003:5034   */\n      mstore\n        /* \"#utility.yul\":4886:5041   */\n      pop\n      jump\t// out\n        /* \"#utility.yul\":5047:5412   */\n    tag_148:\n        /* \"#utility.yul\":5189:5192   */\n      0x00\n        /* \"#utility.yul\":5210:5276   */\n      tag_215\n        /* \"#utility.yul\":5274:5275   */\n      0x05\n        /* \"#utility.yul\":5269:5272   */\n      dup4\n        /* \"#utility.yul\":5210:5276   */\n      tag_144\n      jump\t// in\n    tag_215:\n        /* \"#utility.yul\":5203:5276   */\n      swap2\n      pop\n        /* \"#utility.yul\":5285:5378   */\n      tag_216\n        /* \"#utility.yul\":5374:5377   */\n      dup3\n        /* \"#utility.yul\":5285:5378   */\n      tag_147\n      jump\t// in\n    tag_216:\n        /* \"#utility.yul\":5403:5405   */\n      0x20\n        /* \"#utility.yul\":5398:5401   */\n      dup3\n        /* \"#utility.yul\":5394:5406   */\n      add\n        /* \"#utility.yul\":5387:5406   */\n      swap1\n      pop\n        /* \"#utility.yul\":5047:5412   */\n      swap2\n      swap1\n      pop\n      jump\t// out\n        /* \"#utility.yul\":5418:5837   */\n    tag_77:\n        /* \"#utility.yul\":5584:5588   */\n      0x00\n        /* \"#utility.yul\":5622:5624   */\n      0x20\n        /* \"#utility.yul\":5611:5620   */\n      dup3\n        /* \"#utility.yul\":5607:5625   */\n      add\n        /* \"#utility.yul\":5599:5625   */\n      swap1\n      pop\n        /* \"#utility.yul\":5671:5680   */\n      dup2\n        /* \"#utility.yul\":5665:5669   */\n      dup2\n        /* \"#utility.yul\":5661:5681   */\n      sub\n        /* \"#utility.yul\":5657:5658   */\n      0x00\n        /* \"#utility.yul\":5646:5655   */\n      dup4\n        /* \"#utility.yul\":5642:5659   */\n      add\n        /* \"#utility.yul\":5635:5682   */\n      mstore\n        /* \"#utility.yul\":5699:5830   */\n      tag_218\n        /* \"#utility.yul\":5825:5829   */\n      dup2\n        /* \"#utility.yul\":5699:5830   */\n      tag_148\n      jump\t// in\n    tag_218:\n        /* \"#utility.yul\":5691:5830   */\n      swap1\n      pop\n        /* \"#utility.yul\":5418:5837   */\n      swap2\n      swap1\n      pop\n      jump\t// out\n        /* \"#utility.yul\":5843:6008   */\n    tag_149:\n        /* \"#utility.yul\":5983:6000   */\n      0x76616c7565203c20686967686573740000000000000000000000000000000000\n        /* \"#utility.yul\":5979:5980   */\n      0x00\n        /* \"#utility.yul\":5971:5977   */\n      dup3\n        /* \"#utility.yul\":5967:5981   */\n      add\n        /* \"#utility.yul\":5960:6001   */\n      mstore\n        /* \"#utility.yul\":5843:6008   */\n      pop\n      jump\t// out\n        /* \"#utility.yul\":6014:6380   */\n    tag_150:\n        /* \"#utility.yul\":6156:6159   */\n      0x00\n        /* \"#utility.yul\":6177:6244   */\n      tag_221\n        /* \"#utility.yul\":6241:6243   */\n      0x0f\n        /* \"#utility.yul\":6236:6239   */\n      dup4\n        /* \"#utility.yul\":6177:6244   */\n      tag_144\n      jump\t// in\n    tag_221:\n        /* \"#utility.yul\":6170:6244   */\n      swap2\n      pop\n        /* \"#utility.yul\":6253:6346   */\n      tag_222\n        /* \"#utility.yul\":6342:6345   */\n      dup3\n        /* \"#utility.yul\":6253:6346   */\n      tag_149\n      jump\t// in\n    tag_222:\n        /* \"#utility.yul\":6371:6373   */\n      0x20\n        /* \"#utility.yul\":6366:6369   */\n      dup3\n        /* \"#utility.yul\":6362:6374   */\n      add\n        /* \"#utility.yul\":6355:6374   */\n      swap1\n      pop\n        /* \"#utility.yul\":6014:6380   */\n      swap2\n      swap1\n      pop\n      jump\t// out\n        /* \"#utility.yul\":6386:6805   */\n    tag_80:\n        /* \"#utility.yul\":6552:6556   */\n      0x00\n        /* \"#utility.yul\":6590:6592   */\n      0x20\n        /* \"#utility.yul\":6579:6588   */\n      dup3\n        /* \"#utility.yul\":6575:6593   */\n      add\n        /* \"#utility.yul\":6567:6593   */\n      swap1\n      pop\n        /* \"#utility.yul\":6639:6648   */\n      dup2\n        /* \"#utility.yul\":6633:6637   */\n      dup2\n        /* \"#utility.yul\":6629:6649   */\n      sub\n        /* \"#utility.yul\":6625:6626   */\n      0x00\n        /* \"#utility.yul\":6614:6623   */\n      dup4\n        /* \"#utility.yul\":6610:6627   */\n      add\n        /* \"#utility.yul\":6603:6650   */\n      mstore\n        /* \"#utility.yul\":6667:6798   */\n      tag_224\n        /* \"#utility.yul\":6793:6797   */\n      dup2\n        /* \"#utility.yul\":6667:6798   */\n      tag_150\n      jump\t// in\n    tag_224:\n        /* \"#utility.yul\":6659:6798   */\n      swap1\n      pop\n        /* \"#utility.yul\":6386:6805   */\n      swap2\n      swap1\n      pop\n      jump\t// out\n        /* \"#utility.yul\":6811:6971   */\n    tag_151:\n        /* \"#utility.yul\":6951:6963   */\n      0x4e6f742073656c6c657200000000000000000000000000000000000000000000\n        /* \"#utility.yul\":6947:6948   */\n      0x00\n        /* \"#utility.yul\":6939:6945   */\n      dup3\n        /* \"#utility.yul\":6935:6949   */\n      add\n        /* \"#utility.yul\":6928:6964   */\n      mstore\n        /* \"#utility.yul\":6811:6971   */\n      pop\n      jump\t// out\n        /* \"#utility.yul\":6977:7343   */\n    tag_152:\n        /* \"#utility.yul\":7119:7122   */\n      0x00\n        /* \"#utility.yul\":7140:7207   */\n      tag_227\n        /* \"#utility.yul\":7204:7206   */\n      0x0a\n        /* \"#utility.yul\":7199:7202   */\n      dup4\n        /* \"#utility.yul\":7140:7207   */\n      tag_144\n      jump\t// in\n    tag_227:\n        /* \"#utility.yul\":7133:7207   */\n      swap2\n      pop\n        /* \"#utility.yul\":7216:7309   */\n      tag_228\n        /* \"#utility.yul\":7305:7308   */\n      dup3\n        /* \"#utility.yul\":7216:7309   */\n      tag_151\n      jump\t// in\n    tag_228:\n        /* \"#utility.yul\":7334:7336   */\n      0x20\n        /* \"#utility.yul\":7329:7332   */\n      dup3\n        /* \"#utility.yul\":7325:7337   */\n      add\n        /* \"#utility.yul\":7318:7337   */\n      swap1\n      pop\n        /* \"#utility.yul\":6977:7343   */\n      swap2\n      swap1\n      pop\n      jump\t// out\n        /* \"#utility.yul\":7349:7768   */\n    tag_86:\n        /* \"#utility.yul\":7515:7519   */\n      0x00\n        /* \"#utility.yul\":7553:7555   */\n      0x20\n        /* \"#utility.yul\":7542:7551   */\n      dup3\n        /* \"#utility.yul\":7538:7556   */\n      add\n        /* \"#utility.yul\":7530:7556   */\n      swap1\n      pop\n        /* \"#utility.yul\":7602:7611   */\n      dup2\n        /* \"#utility.yul\":7596:7600   */\n      dup2\n        /* \"#utility.yul\":7592:7612   */\n      sub\n        /* \"#utility.yul\":7588:7589   */\n      0x00\n        /* \"#utility.yul\":7577:7586   */\n      dup4\n        /* \"#utility.yul\":7573:7590   */\n      add\n        /* \"#utility.yul\":7566:7613   */\n      mstore\n        /* \"#utility.yul\":7630:7761   */\n      tag_230\n        /* \"#utility.yul\":7756:7760   */\n      dup2\n        /* \"#utility.yul\":7630:7761   */\n      tag_152\n      jump\t// in\n    tag_230:\n        /* \"#utility.yul\":7622:7761   */\n      swap1\n      pop\n        /* \"#utility.yul\":7349:7768   */\n      swap2\n      swap1\n      pop\n      jump\t// out\n        /* \"#utility.yul\":7774:7931   */\n    tag_153:\n        /* \"#utility.yul\":7914:7923   */\n      0x7374617274656400000000000000000000000000000000000000000000000000\n        /* \"#utility.yul\":7910:7911   */\n      0x00\n        /* \"#utility.yul\":7902:7908   */\n      dup3\n        /* \"#utility.yul\":7898:7912   */\n      add\n        /* \"#utility.yul\":7891:7924   */\n      mstore\n        /* \"#utility.yul\":7774:7931   */\n      pop\n      jump\t// out\n        /* \"#utility.yul\":7937:8302   */\n    tag_154:\n        /* \"#utility.yul\":8079:8082   */\n      0x00\n        /* \"#utility.yul\":8100:8166   */\n      tag_233\n        /* \"#utility.yul\":8164:8165   */\n      0x07\n        /* \"#utility.yul\":8159:8162   */\n      dup4\n        /* \"#utility.yul\":8100:8166   */\n      tag_144\n      jump\t// in\n    tag_233:\n        /* \"#utility.yul\":8093:8166   */\n      swap2\n      pop\n        /* \"#utility.yul\":8175:8268   */\n      tag_234\n        /* \"#utility.yul\":8264:8267   */\n      dup3\n        /* \"#utility.yul\":8175:8268   */\n      tag_153\n      jump\t// in\n    tag_234:\n        /* \"#utility.yul\":8293:8295   */\n      0x20\n        /* \"#utility.yul\":8288:8291   */\n      dup3\n        /* \"#utility.yul\":8284:8296   */\n      add\n        /* \"#utility.yul\":8277:8296   */\n      swap1\n      pop\n        /* \"#utility.yul\":7937:8302   */\n      swap2\n      swap1\n      pop\n      jump\t// out\n        /* \"#utility.yul\":8308:8727   */\n    tag_89:\n        /* \"#utility.yul\":8474:8478   */\n      0x00\n        /* \"#utility.yul\":8512:8514   */\n      0x20\n        /* \"#utility.yul\":8501:8510   */\n      dup3\n        /* \"#utility.yul\":8497:8515   */\n      add\n        /* \"#utility.yul\":8489:8515   */\n      swap1\n      pop\n        /* \"#utility.yul\":8561:8570   */\n      dup2\n        /* \"#utility.yul\":8555:8559   */\n      dup2\n        /* \"#utility.yul\":8551:8571   */\n      sub\n        /* \"#utility.yul\":8547:8548   */\n      0x00\n        /* \"#utility.yul\":8536:8545   */\n      dup4\n        /* \"#utility.yul\":8532:8549   */\n      add\n        /* \"#utility.yul\":8525:8572   */\n      mstore\n        /* \"#utility.yul\":8589:8720   */\n      tag_236\n        /* \"#utility.yul\":8715:8719   */\n      dup2\n        /* \"#utility.yul\":8589:8720   */\n      tag_154\n      jump\t// in\n    tag_236:\n        /* \"#utility.yul\":8581:8720   */\n      swap1\n      pop\n        /* \"#utility.yul\":8308:8727   */\n      swap2\n      swap1\n      pop\n      jump\t// out\n        /* \"#utility.yul\":8733:8913   */\n    tag_155:\n        /* \"#utility.yul\":8781:8858   */\n      0x4e487b7100000000000000000000000000000000000000000000000000000000\n        /* \"#utility.yul\":8778:8779   */\n      0x00\n        /* \"#utility.yul\":8771:8859   */\n      mstore\n        /* \"#utility.yul\":8878:8882   */\n      0x11\n        /* \"#utility.yul\":8875:8876   */\n      0x04\n        /* \"#utility.yul\":8868:8883   */\n      mstore\n        /* \"#utility.yul\":8902:8906   */\n      0x24\n        /* \"#utility.yul\":8899:8900   */\n      0x00\n        /* \"#utility.yul\":8892:8907   */\n      revert\n        /* \"#utility.yul\":8919:9110   */\n    tag_91:\n        /* \"#utility.yul\":8959:8962   */\n      0x00\n        /* \"#utility.yul\":8978:8998   */\n      tag_239\n        /* \"#utility.yul\":8996:8997   */\n      dup3\n        /* \"#utility.yul\":8978:8998   */\n      tag_142\n      jump\t// in\n    tag_239:\n        /* \"#utility.yul\":8973:8998   */\n      swap2\n      pop\n        /* \"#utility.yul\":9012:9032   */\n      tag_240\n        /* \"#utility.yul\":9030:9031   */\n      dup4\n        /* \"#utility.yul\":9012:9032   */\n      tag_142\n      jump\t// in\n    tag_240:\n        /* \"#utility.yul\":9007:9032   */\n      swap3\n      pop\n        /* \"#utility.yul\":9055:9056   */\n      dup3\n        /* \"#utility.yul\":9052:9053   */\n      dup3\n        /* \"#utility.yul\":9048:9057   */\n      add\n        /* \"#utility.yul\":9041:9057   */\n      swap1\n      pop\n        /* \"#utility.yul\":9076:9079   */\n      dup1\n        /* \"#utility.yul\":9073:9074   */\n      dup3\n        /* \"#utility.yul\":9070:9080   */\n      gt\n        /* \"#utility.yul\":9067:9103   */\n      iszero\n      tag_241\n      jumpi\n        /* \"#utility.yul\":9083:9101   */\n      tag_242\n      tag_155\n      jump\t// in\n    tag_242:\n        /* \"#utility.yul\":9067:9103   */\n    tag_241:\n        /* \"#utility.yul\":8919:9110   */\n      swap3\n      swap2\n      pop\n      pop\n      jump\t// out\n        /* \"#utility.yul\":9116:9558   */\n    tag_93:\n        /* \"#utility.yul\":9265:9269   */\n      0x00\n        /* \"#utility.yul\":9303:9305   */\n      0x60\n        /* \"#utility.yul\":9292:9301   */\n      dup3\n        /* \"#utility.yul\":9288:9306   */\n      add\n        /* \"#utility.yul\":9280:9306   */\n      swap1\n      pop\n        /* \"#utility.yul\":9316:9387   */\n      tag_244\n        /* \"#utility.yul\":9384:9385   */\n      0x00\n        /* \"#utility.yul\":9373:9382   */\n      dup4\n        /* \"#utility.yul\":9369:9386   */\n      add\n        /* \"#utility.yul\":9360:9366   */\n      dup7\n        /* \"#utility.yul\":9316:9387   */\n      tag_127\n      jump\t// in\n    tag_244:\n        /* \"#utility.yul\":9397:9469   */\n      tag_245\n        /* \"#utility.yul\":9465:9467   */\n      0x20\n        /* \"#utility.yul\":9454:9463   */\n      dup4\n        /* \"#utility.yul\":9450:9468   */\n      add\n        /* \"#utility.yul\":9441:9447   */\n      dup6\n        /* \"#utility.yul\":9397:9469   */\n      tag_127\n      jump\t// in\n    tag_245:\n        /* \"#utility.yul\":9479:9551   */\n      tag_246\n        /* \"#utility.yul\":9547:9549   */\n      0x40\n        /* \"#utility.yul\":9536:9545   */\n      dup4\n        /* \"#utility.yul\":9532:9550   */\n      add\n        /* \"#utility.yul\":9523:9529   */\n      dup5\n        /* \"#utility.yul\":9479:9551   */\n      tag_143\n      jump\t// in\n    tag_246:\n        /* \"#utility.yul\":9116:9558   */\n      swap5\n      swap4\n      pop\n      pop\n      pop\n      pop\n      jump\t// out\n        /* \"#utility.yul\":9564:9719   */\n    tag_156:\n        /* \"#utility.yul\":9704:9711   */\n      0x456d707479000000000000000000000000000000000000000000000000000000\n        /* \"#utility.yul\":9700:9701   */\n      0x00\n        /* \"#utility.yul\":9692:9698   */\n      dup3\n        /* \"#utility.yul\":9688:9702   */\n      add\n        /* \"#utility.yul\":9681:9712   */\n      mstore\n        /* \"#utility.yul\":9564:9719   */\n      pop\n      jump\t// out\n        /* \"#utility.yul\":9725:10090   */\n    tag_157:\n        /* \"#utility.yul\":9867:9870   */\n      0x00\n        /* \"#utility.yul\":9888:9954   */\n      tag_249\n        /* \"#utility.yul\":9952:9953   */\n      0x05\n        /* \"#utility.yul\":9947:9950   */\n      dup4\n        /* \"#utility.yul\":9888:9954   */\n      tag_144\n      jump\t// in\n    tag_249:\n        /* \"#utility.yul\":9881:9954   */\n      swap2\n      pop\n        /* \"#utility.yul\":9963:10056   */\n      tag_250\n        /* \"#utility.yul\":10052:10055   */\n      dup3\n        /* \"#utility.yul\":9963:10056   */\n      tag_156\n      jump\t// in\n    tag_250:\n        /* \"#utility.yul\":10081:10083   */\n      0x20\n        /* \"#utility.yul\":10076:10079   */\n      dup3\n        /* \"#utility.yul\":10072:10084   */\n      add\n        /* \"#utility.yul\":10065:10084   */\n      swap1\n      pop\n        /* \"#utility.yul\":9725:10090   */\n      swap2\n      swap1\n      pop\n      jump\t// out\n        /* \"#utility.yul\":10096:10515   */\n    tag_100:\n        /* \"#utility.yul\":10262:10266   */\n      0x00\n        /* \"#utility.yul\":10300:10302   */\n      0x20\n        /* \"#utility.yul\":10289:10298   */\n      dup3\n        /* \"#utility.yul\":10285:10303   */\n      add\n        /* \"#utility.yul\":10277:10303   */\n      swap1\n      pop\n        /* \"#utility.yul\":10349:10358   */\n      dup2\n        /* \"#utility.yul\":10343:10347   */\n      dup2\n        /* \"#utility.yul\":10339:10359   */\n      sub\n        /* \"#utility.yul\":10335:10336   */\n      0x00\n        /* \"#utility.yul\":10324:10333   */\n      dup4\n        /* \"#utility.yul\":10320:10337   */\n      add\n        /* \"#utility.yul\":10313:10360   */\n      mstore\n        /* \"#utility.yul\":10377:10508   */\n      tag_252\n        /* \"#utility.yul\":10503:10507   */\n      dup2\n        /* \"#utility.yul\":10377:10508   */\n      tag_157\n      jump\t// in\n    tag_252:\n        /* \"#utility.yul\":10369:10508   */\n      swap1\n      pop\n        /* \"#utility.yul\":10096:10515   */\n      swap2\n      swap1\n      pop\n      jump\t// out\n        /* \"#utility.yul\":10521:10853   */\n    tag_124:\n        /* \"#utility.yul\":10642:10646   */\n      0x00\n        /* \"#utility.yul\":10680:10682   */\n      0x40\n        /* \"#utility.yul\":10669:10678   */\n      dup3\n        /* \"#utility.yul\":10665:10683   */\n      add\n        /* \"#utility.yul\":10657:10683   */\n      swap1\n      pop\n        /* \"#utility.yul\":10693:10764   */\n      tag_254\n        /* \"#utility.yul\":10761:10762   */\n      0x00\n        /* \"#utility.yul\":10750:10759   */\n      dup4\n        /* \"#utility.yul\":10746:10763   */\n      add\n        /* \"#utility.yul\":10737:10743   */\n      dup6\n        /* \"#utility.yul\":10693:10764   */\n      tag_127\n      jump\t// in\n    tag_254:\n        /* \"#utility.yul\":10774:10846   */\n      tag_255\n        /* \"#utility.yul\":10842:10844   */\n      0x20\n        /* \"#utility.yul\":10831:10840   */\n      dup4\n        /* \"#utility.yul\":10827:10845   */\n      add\n        /* \"#utility.yul\":10818:10824   */\n      dup5\n        /* \"#utility.yul\":10774:10846   */\n      tag_143\n      jump\t// in\n    tag_255:\n        /* \"#utility.yul\":10521:10853   */\n      swap4\n      swap3\n      pop\n      pop\n      pop\n      jump\t// out\n\n    auxdata: 0xa264697066735822122073870bdd5ef165d258fa4d8d682873bd1415edc3fef512ea7f256b64dbe480d164736f6c63430008110033\n}\n",
				"bytecode": {
					"linkReferences": {},
					"object": "60e06040523480156200001157600080fd5b50604051620014e8380380620014e883398181016040528101906200003791906200015c565b8273ffffffffffffffffffffffffffffffffffffffff1660808173ffffffffffffffffffffffffffffffffffffffff16815250508160a081815250503373ffffffffffffffffffffffffffffffffffffffff1660c08173ffffffffffffffffffffffffffffffffffffffff168152505080600181905550505050620001b8565b600080fd5b600073ffffffffffffffffffffffffffffffffffffffff82169050919050565b6000620000e982620000bc565b9050919050565b620000fb81620000dc565b81146200010757600080fd5b50565b6000815190506200011b81620000f0565b92915050565b6000819050919050565b620001368162000121565b81146200014257600080fd5b50565b60008151905062000156816200012b565b92915050565b600080600060608486031215620001785762000177620000b7565b5b600062000188868287016200010a565b93505060206200019b8682870162000145565b9250506040620001ae8682870162000145565b9150509250925092565b60805160a05160c0516112ba6200022e600039600081816102ad0152818161058c015281816106ed01528181610bb50152610c6001526000818161070f015281816107ae01528181610b440152610c8101526000818161052a015281816106b101528181610ae40152610c2301526112ba6000f3fe6080604052600436106100c25760003560e01c806362ea82db1161007f578063c6bc518211610059578063c6bc518214610227578063d4e9329214610252578063d57bde7914610269578063efbe1c1c14610294576100c2565b806362ea82db146101a857806391f90157146101e5578063be9a655514610210576100c2565b806308551a53146100c757806312fa6feb146100f25780631998aeef1461011d5780631f2698ab146101275780633d6a71e41461015257806347ccca021461017d575b600080fd5b3480156100d357600080fd5b506100dc6102ab565b6040516100e99190610d91565b60405180910390f35b3480156100fe57600080fd5b506101076102cf565b6040516101149190610dc7565b60405180910390f35b6101256102e2565b005b34801561013357600080fd5b5061013c610501565b6040516101499190610dc7565b60405180910390f35b34801561015e57600080fd5b50610167610514565b6040516101749190610e01565b60405180910390f35b34801561018957600080fd5b50610192610528565b60405161019f9190610e7b565b60405180910390f35b3480156101b457600080fd5b506101cf60048036038101906101ca9190610ec7565b61054c565b6040516101dc9190610f0d565b60405180910390f35b3480156101f157600080fd5b506101fa610564565b6040516102079190610d91565b60405180910390f35b34801561021c57600080fd5b5061022561058a565b005b34801561023357600080fd5b5061023c6107ac565b6040516102499190610f0d565b60405180910390f35b34801561025e57600080fd5b506102676107d0565b005b34801561027557600080fd5b5061027e610973565b60405161028b9190610f0d565b60405180910390f35b3480156102a057600080fd5b506102a9610979565b005b7f000000000000000000000000000000000000000000000000000000000000000081565b600060059054906101000a900460ff1681565b600060049054906101000a900460ff16610331576040517f08c379a000000000000000000000000000000000000000000000000000000000815260040161032890610f85565b60405180910390fd5b60008054906101000a900463ffffffff1663ffffffff164210610389576040517f08c379a000000000000000000000000000000000000000000000000000000000815260040161038090610ff1565b60405180910390fd5b60015434116103cd576040517f08c379a00000000000000000000000000000000000000000000000000000000081526004016103c49061105d565b60405180910390fd5b600073ffffffffffffffffffffffffffffffffffffffff163373ffffffffffffffffffffffffffffffffffffffff161461046957600154600260008060069054906101000a900473ffffffffffffffffffffffffffffffffffffffff1673ffffffffffffffffffffffffffffffffffffffff1673ffffffffffffffffffffffffffffffffffffffff168152602001908152602001600020819055505b3460018190555033600060066101000a81548173ffffffffffffffffffffffffffffffffffffffff021916908373ffffffffffffffffffffffffffffffffffffffff1602179055503373ffffffffffffffffffffffffffffffffffffffff167fe684a55f31b79eca403df938249029212a5925ec6be8012e099b45bc1019e5d2346040516104f79190610f0d565b60405180910390a2565b600060049054906101000a900460ff1681565b60008054906101000a900463ffffffff1681565b7f000000000000000000000000000000000000000000000000000000000000000081565b60026020528060005260406000206000915090505481565b600060069054906101000a900473ffffffffffffffffffffffffffffffffffffffff1681565b7f000000000000000000000000000000000000000000000000000000000000000073ffffffffffffffffffffffffffffffffffffffff163373ffffffffffffffffffffffffffffffffffffffff1614610618576040517f08c379a000000000000000000000000000000000000000000000000000000000815260040161060f906110c9565b60405180910390fd5b600060049054906101000a900460ff1615610668576040517f08c379a000000000000000000000000000000000000000000000000000000000815260040161065f90611135565b60405180910390fd5b6001600060046101000a81548160ff021916908315150217905550603c426106909190611184565b6000806101000a81548163ffffffff021916908363ffffffff1602179055507f000000000000000000000000000000000000000000000000000000000000000073ffffffffffffffffffffffffffffffffffffffff166323b872dd7f0000000000000000000000000000000000000000000000000000000000000000307f00000000000000000000000000000000000000000000000000000000000000006040518463ffffffff1660e01b815260040161074c939291906111b8565b600060405180830381600087803b15801561076657600080fd5b505af115801561077a573d6000803e3d6000fd5b505050507f1b55ba3aa851a46be3b365aee5b5c140edd620d578922f3e8466d2cbd96f954b60405160405180910390a1565b7f000000000000000000000000000000000000000000000000000000000000000081565b6000600260003373ffffffffffffffffffffffffffffffffffffffff1673ffffffffffffffffffffffffffffffffffffffff1681526020019081526020016000205411610852576040517f08c379a00000000000000000000000000000000000000000000000000000000081526004016108499061123b565b60405180910390fd5b6000600260003373ffffffffffffffffffffffffffffffffffffffff1673ffffffffffffffffffffffffffffffffffffffff1681526020019081526020016000205490506000600260003373ffffffffffffffffffffffffffffffffffffffff1673ffffffffffffffffffffffffffffffffffffffff168152602001908152602001600020819055503373ffffffffffffffffffffffffffffffffffffffff166108fc829081150290604051600060405180830381858888f19350505050158015610921573d6000803e3d6000fd5b503373ffffffffffffffffffffffffffffffffffffffff167f884edad9ce6fa2440d8a54cc123490eb96d2768479d49ff9c7366125a9424364826040516109689190610f0d565b60405180910390a250565b60015481565b600060049054906101000a900460ff166109c8576040517f08c379a00000000000000000000000000000000000000000000000000000000081526004016109bf90610f85565b60405180910390fd5b600060059054906101000a900460ff1615610a18576040517f08c379a0000000000000000000000000000000000000000000000000000000008152600401610a0f90610ff1565b60405180910390fd5b60008054906101000a900463ffffffff1663ffffffff16421015610a71576040517f08c379a0000000000000000000000000000000000000000000000000000000008152600401610a6890610ff1565b60405180910390fd5b6001600060056101000a81548160ff021916908315150217905550600073ffffffffffffffffffffffffffffffffffffffff16600060069054906101000a900473ffffffffffffffffffffffffffffffffffffffff1673ffffffffffffffffffffffffffffffffffffffff1614610c21577f000000000000000000000000000000000000000000000000000000000000000073ffffffffffffffffffffffffffffffffffffffff166323b872dd30600060069054906101000a900473ffffffffffffffffffffffffffffffffffffffff167f00000000000000000000000000000000000000000000000000000000000000006040518463ffffffff1660e01b8152600401610b81939291906111b8565b600060405180830381600087803b158015610b9b57600080fd5b505af1158015610baf573d6000803e3d6000fd5b505050507f000000000000000000000000000000000000000000000000000000000000000073ffffffffffffffffffffffffffffffffffffffff166108fc6001549081150290604051600060405180830381858888f19350505050158015610c1b573d6000803e3d6000fd5b50610cf1565b7f000000000000000000000000000000000000000000000000000000000000000073ffffffffffffffffffffffffffffffffffffffff166323b872dd307f00000000000000000000000000000000000000000000000000000000000000007f00000000000000000000000000000000000000000000000000000000000000006040518463ffffffff1660e01b8152600401610cbe939291906111b8565b600060405180830381600087803b158015610cd857600080fd5b505af1158015610cec573d6000803e3d6000fd5b505050505b7f7d7570b046e5ead3a4f3fbc9fa2445113625a1e79823776146316bafed6b8cc5600060069054906101000a900473ffffffffffffffffffffffffffffffffffffffff16600154604051610d4692919061125b565b60405180910390a1565b600073ffffffffffffffffffffffffffffffffffffffff82169050919050565b6000610d7b82610d50565b9050919050565b610d8b81610d70565b82525050565b6000602082019050610da66000830184610d82565b92915050565b60008115159050919050565b610dc181610dac565b82525050565b6000602082019050610ddc6000830184610db8565b92915050565b600063ffffffff82169050919050565b610dfb81610de2565b82525050565b6000602082019050610e166000830184610df2565b92915050565b6000819050919050565b6000610e41610e3c610e3784610d50565b610e1c565b610d50565b9050919050565b6000610e5382610e26565b9050919050565b6000610e6582610e48565b9050919050565b610e7581610e5a565b82525050565b6000602082019050610e906000830184610e6c565b92915050565b600080fd5b610ea481610d70565b8114610eaf57600080fd5b50565b600081359050610ec181610e9b565b92915050565b600060208284031215610edd57610edc610e96565b5b6000610eeb84828501610eb2565b91505092915050565b6000819050919050565b610f0781610ef4565b82525050565b6000602082019050610f226000830184610efe565b92915050565b600082825260208201905092915050565b7f4e6f742073746172746564000000000000000000000000000000000000000000600082015250565b6000610f6f600b83610f28565b9150610f7a82610f39565b602082019050919050565b60006020820190508181036000830152610f9e81610f62565b9050919050565b7f656e646564000000000000000000000000000000000000000000000000000000600082015250565b6000610fdb600583610f28565b9150610fe682610fa5565b602082019050919050565b6000602082019050818103600083015261100a81610fce565b9050919050565b7f76616c7565203c20686967686573740000000000000000000000000000000000600082015250565b6000611047600f83610f28565b915061105282611011565b602082019050919050565b600060208201905081810360008301526110768161103a565b9050919050565b7f4e6f742073656c6c657200000000000000000000000000000000000000000000600082015250565b60006110b3600a83610f28565b91506110be8261107d565b602082019050919050565b600060208201905081810360008301526110e2816110a6565b9050919050565b7f7374617274656400000000000000000000000000000000000000000000000000600082015250565b600061111f600783610f28565b915061112a826110e9565b602082019050919050565b6000602082019050818103600083015261114e81611112565b9050919050565b7f4e487b7100000000000000000000000000000000000000000000000000000000600052601160045260246000fd5b600061118f82610ef4565b915061119a83610ef4565b92508282019050808211156111b2576111b1611155565b5b92915050565b60006060820190506111cd6000830186610d82565b6111da6020830185610d82565b6111e76040830184610efe565b949350505050565b7f456d707479000000000000000000000000000000000000000000000000000000600082015250565b6000611225600583610f28565b9150611230826111ef565b602082019050919050565b6000602082019050818103600083015261125481611218565b9050919050565b60006040820190506112706000830185610d82565b61127d6020830184610efe565b939250505056fea264697066735822122073870bdd5ef165d258fa4d8d682873bd1415edc3fef512ea7f256b64dbe480d164736f6c63430008110033",
					"opcodes": "PUSH1 0xE0 PUSH1 0x40 MSTORE CALLVALUE DUP1 ISZERO PUSH3 0x11 JUMPI PUSH1 0x0 DUP1 REVERT JUMPDEST POP PUSH1 0x40 MLOAD PUSH3 0x14E8 CODESIZE SUB DUP1 PUSH3 0x14E8 DUP4 CODECOPY DUP2 DUP2 ADD PUSH1 0x40 MSTORE DUP2 ADD SWAP1 PUSH3 0x37 SWAP2 SWAP1 PUSH3 0x15C JUMP JUMPDEST DUP3 PUSH20 0xFFFFFFFFFFFFFFFFFFFFFFFFFFFFFFFFFFFFFFFF AND PUSH1 0x80 DUP2 PUSH20 0xFFFFFFFFFFFFFFFFFFFFFFFFFFFFFFFFFFFFFFFF AND DUP2 MSTORE POP POP DUP2 PUSH1 0xA0 DUP2 DUP2 MSTORE POP POP CALLER PUSH20 0xFFFFFFFFFFFFFFFFFFFFFFFFFFFFFFFFFFFFFFFF AND PUSH1 0xC0 DUP2 PUSH20 0xFFFFFFFFFFFFFFFFFFFFFFFFFFFFFFFFFFFFFFFF AND DUP2 MSTORE POP POP DUP1 PUSH1 0x1 DUP2 SWAP1 SSTORE POP POP POP POP PUSH3 0x1B8 JUMP JUMPDEST PUSH1 0x0 DUP1 REVERT JUMPDEST PUSH1 0x0 PUSH20 0xFFFFFFFFFFFFFFFFFFFFFFFFFFFFFFFFFFFFFFFF DUP3 AND SWAP1 POP SWAP2 SWAP1 POP JUMP JUMPDEST PUSH1 0x0 PUSH3 0xE9 DUP3 PUSH3 0xBC JUMP JUMPDEST SWAP1 POP SWAP2 SWAP1 POP JUMP JUMPDEST PUSH3 0xFB DUP2 PUSH3 0xDC JUMP JUMPDEST DUP2 EQ PUSH3 0x107 JUMPI PUSH1 0x0 DUP1 REVERT JUMPDEST POP JUMP JUMPDEST PUSH1 0x0 DUP2 MLOAD SWAP1 POP PUSH3 0x11B DUP2 PUSH3 0xF0 JUMP JUMPDEST SWAP3 SWAP2 POP POP JUMP JUMPDEST PUSH1 0x0 DUP2 SWAP1 POP SWAP2 SWAP1 POP JUMP JUMPDEST PUSH3 0x136 DUP2 PUSH3 0x121 JUMP JUMPDEST DUP2 EQ PUSH3 0x142 JUMPI PUSH1 0x0 DUP1 REVERT JUMPDEST POP JUMP JUMPDEST PUSH1 0x0 DUP2 MLOAD SWAP1 POP PUSH3 0x156 DUP2 PUSH3 0x12B JUMP JUMPDEST SWAP3 SWAP2 POP POP JUMP JUMPDEST PUSH1 0x0 DUP1 PUSH1 0x0 PUSH1 0x60 DUP5 DUP7 SUB SLT ISZERO PUSH3 0x178 JUMPI PUSH3 0x177 PUSH3 0xB7 JUMP JUMPDEST JUMPDEST PUSH1 0x0 PUSH3 0x188 DUP7 DUP3 DUP8 ADD PUSH3 0x10A JUMP JUMPDEST SWAP4 POP POP PUSH1 0x20 PUSH3 0x19B DUP7 DUP3 DUP8 ADD PUSH3 0x145 JUMP JUMPDEST SWAP3 POP POP PUSH1 0x40 PUSH3 0x1AE DUP7 DUP3 DUP8 ADD PUSH3 0x145 JUMP JUMPDEST SWAP2 POP POP SWAP3 POP SWAP3 POP SWAP3 JUMP JUMPDEST PUSH1 0x80 MLOAD PUSH1 0xA0 MLOAD PUSH1 0xC0 MLOAD PUSH2 0x12BA PUSH3 0x22E PUSH1 0x0 CODECOPY PUSH1 0x0 DUP2 DUP2 PUSH2 0x2AD ADD MSTORE DUP2 DUP2 PUSH2 0x58C ADD MSTORE DUP2 DUP2 PUSH2 0x6ED ADD MSTORE DUP2 DUP2 PUSH2 0xBB5 ADD MSTORE PUSH2 0xC60 ADD MSTORE PUSH1 0x0 DUP2 DUP2 PUSH2 0x70F ADD MSTORE DUP2 DUP2 PUSH2 0x7AE ADD MSTORE DUP2 DUP2 PUSH2 0xB44 ADD MSTORE PUSH2 0xC81 ADD MSTORE PUSH1 0x0 DUP2 DUP2 PUSH2 0x52A ADD MSTORE DUP2 DUP2 PUSH2 0x6B1 ADD MSTORE DUP2 DUP2 PUSH2 0xAE4 ADD MSTORE PUSH2 0xC23 ADD MSTORE PUSH2 0x12BA PUSH1 0x0 RETURN INVALID PUSH1 0x80 PUSH1 0x40 MSTORE PUSH1 0x4 CALLDATASIZE LT PUSH2 0xC2 JUMPI PUSH1 0x0 CALLDATALOAD PUSH1 0xE0 SHR DUP1 PUSH4 0x62EA82DB GT PUSH2 0x7F JUMPI DUP1 PUSH4 0xC6BC5182 GT PUSH2 0x59 JUMPI DUP1 PUSH4 0xC6BC5182 EQ PUSH2 0x227 JUMPI DUP1 PUSH4 0xD4E93292 EQ PUSH2 0x252 JUMPI DUP1 PUSH4 0xD57BDE79 EQ PUSH2 0x269 JUMPI DUP1 PUSH4 0xEFBE1C1C EQ PUSH2 0x294 JUMPI PUSH2 0xC2 JUMP JUMPDEST DUP1 PUSH4 0x62EA82DB EQ PUSH2 0x1A8 JUMPI DUP1 PUSH4 0x91F90157 EQ PUSH2 0x1E5 JUMPI DUP1 PUSH4 0xBE9A6555 EQ PUSH2 0x210 JUMPI PUSH2 0xC2 JUMP JUMPDEST DUP1 PUSH4 0x8551A53 EQ PUSH2 0xC7 JUMPI DUP1 PUSH4 0x12FA6FEB EQ PUSH2 0xF2 JUMPI DUP1 PUSH4 0x1998AEEF EQ PUSH2 0x11D JUMPI DUP1 PUSH4 0x1F2698AB EQ PUSH2 0x127 JUMPI DUP1 PUSH4 0x3D6A71E4 EQ PUSH2 0x152 JUMPI DUP1 PUSH4 0x47CCCA02 EQ PUSH2 0x17D JUMPI JUMPDEST PUSH1 0x0 DUP1 REVERT JUMPDEST CALLVALUE DUP1 ISZERO PUSH2 0xD3 JUMPI PUSH1 0x0 DUP1 REVERT JUMPDEST POP PUSH2 0xDC PUSH2 0x2AB JUMP JUMPDEST PUSH1 0x40 MLOAD PUSH2 0xE9 SWAP2 SWAP1 PUSH2 0xD91 JUMP JUMPDEST PUSH1 0x40 MLOAD DUP1 SWAP2 SUB SWAP1 RETURN JUMPDEST CALLVALUE DUP1 ISZERO PUSH2 0xFE JUMPI PUSH1 0x0 DUP1 REVERT JUMPDEST POP PUSH2 0x107 PUSH2 0x2CF JUMP JUMPDEST PUSH1 0x40 MLOAD PUSH2 0x114 SWAP2 SWAP1 PUSH2 0xDC7 JUMP JUMPDEST PUSH1 0x40 MLOAD DUP1 SWAP2 SUB SWAP1 RETURN JUMPDEST PUSH2 0x125 PUSH2 0x2E2 JUMP JUMPDEST STOP JUMPDEST CALLVALUE DUP1 ISZERO PUSH2 0x133 JUMPI PUSH1 0x0 DUP1 REVERT JUMPDEST POP PUSH2 0x13C PUSH2 0x501 JUMP JUMPDEST PUSH1 0x40 MLOAD PUSH2 0x149 SWAP2 SWAP1 PUSH2 0xDC7 JUMP JUMPDEST PUSH1 0x40 MLOAD DUP1 SWAP2 SUB SWAP1 RETURN JUMPDEST CALLVALUE DUP1 ISZERO PUSH2 0x15E JUMPI PUSH1 0x0 DUP1 REVERT JUMPDEST POP PUSH2 0x167 PUSH2 0x514 JUMP JUMPDEST PUSH1 0x40 MLOAD PUSH2 0x174 SWAP2 SWAP1 PUSH2 0xE01 JUMP JUMPDEST PUSH1 0x40 MLOAD DUP1 SWAP2 SUB SWAP1 RETURN JUMPDEST CALLVALUE DUP1 ISZERO PUSH2 0x189 JUMPI PUSH1 0x0 DUP1 REVERT JUMPDEST POP PUSH2 0x192 PUSH2 0x528 JUMP JUMPDEST PUSH1 0x40 MLOAD PUSH2 0x19F SWAP2 SWAP1 PUSH2 0xE7B JUMP JUMPDEST PUSH1 0x40 MLOAD DUP1 SWAP2 SUB SWAP1 RETURN JUMPDEST CALLVALUE DUP1 ISZERO PUSH2 0x1B4 JUMPI PUSH1 0x0 DUP1 REVERT JUMPDEST POP PUSH2 0x1CF PUSH1 0x4 DUP1 CALLDATASIZE SUB DUP2 ADD SWAP1 PUSH2 0x1CA SWAP2 SWAP1 PUSH2 0xEC7 JUMP JUMPDEST PUSH2 0x54C JUMP JUMPDEST PUSH1 0x40 MLOAD PUSH2 0x1DC SWAP2 SWAP1 PUSH2 0xF0D JUMP JUMPDEST PUSH1 0x40 MLOAD DUP1 SWAP2 SUB SWAP1 RETURN JUMPDEST CALLVALUE DUP1 ISZERO PUSH2 0x1F1 JUMPI PUSH1 0x0 DUP1 REVERT JUMPDEST POP PUSH2 0x1FA PUSH2 0x564 JUMP JUMPDEST PUSH1 0x40 MLOAD PUSH2 0x207 SWAP2 SWAP1 PUSH2 0xD91 JUMP JUMPDEST PUSH1 0x40 MLOAD DUP1 SWAP2 SUB SWAP1 RETURN JUMPDEST CALLVALUE DUP1 ISZERO PUSH2 0x21C JUMPI PUSH1 0x0 DUP1 REVERT JUMPDEST POP PUSH2 0x225 PUSH2 0x58A JUMP JUMPDEST STOP JUMPDEST CALLVALUE DUP1 ISZERO PUSH2 0x233 JUMPI PUSH1 0x0 DUP1 REVERT JUMPDEST POP PUSH2 0x23C PUSH2 0x7AC JUMP JUMPDEST PUSH1 0x40 MLOAD PUSH2 0x249 SWAP2 SWAP1 PUSH2 0xF0D JUMP JUMPDEST PUSH1 0x40 MLOAD DUP1 SWAP2 SUB SWAP1 RETURN JUMPDEST CALLVALUE DUP1 ISZERO PUSH2 0x25E JUMPI PUSH1 0x0 DUP1 REVERT JUMPDEST POP PUSH2 0x267 PUSH2 0x7D0 JUMP JUMPDEST STOP JUMPDEST CALLVALUE DUP1 ISZERO PUSH2 0x275 JUMPI PUSH1 0x0 DUP1 REVERT JUMPDEST POP PUSH2 0x27E PUSH2 0x973 JUMP JUMPDEST PUSH1 0x40 MLOAD PUSH2 0x28B SWAP2 SWAP1 PUSH2 0xF0D JUMP JUMPDEST PUSH1 0x40 MLOAD DUP1 SWAP2 SUB SWAP1 RETURN JUMPDEST CALLVALUE DUP1 ISZERO PUSH2 0x2A0 JUMPI PUSH1 0x0 DUP1 REVERT JUMPDEST POP PUSH2 0x2A9 PUSH2 0x979 JUMP JUMPDEST STOP JUMPDEST PUSH32 0x0 DUP2 JUMP JUMPDEST PUSH1 0x0 PUSH1 0x5 SWAP1 SLOAD SWAP1 PUSH2 0x100 EXP SWAP1 DIV PUSH1 0xFF AND DUP2 JUMP JUMPDEST PUSH1 0x0 PUSH1 0x4 SWAP1 SLOAD SWAP1 PUSH2 0x100 EXP SWAP1 DIV PUSH1 0xFF AND PUSH2 0x331 JUMPI PUSH1 0x40 MLOAD PUSH32 0x8C379A000000000000000000000000000000000000000000000000000000000 DUP2 MSTORE PUSH1 0x4 ADD PUSH2 0x328 SWAP1 PUSH2 0xF85 JUMP JUMPDEST PUSH1 0x40 MLOAD DUP1 SWAP2 SUB SWAP1 REVERT JUMPDEST PUSH1 0x0 DUP1 SLOAD SWAP1 PUSH2 0x100 EXP SWAP1 DIV PUSH4 0xFFFFFFFF AND PUSH4 0xFFFFFFFF AND TIMESTAMP LT PUSH2 0x389 JUMPI PUSH1 0x40 MLOAD PUSH32 0x8C379A000000000000000000000000000000000000000000000000000000000 DUP2 MSTORE PUSH1 0x4 ADD PUSH2 0x380 SWAP1 PUSH2 0xFF1 JUMP JUMPDEST PUSH1 0x40 MLOAD DUP1 SWAP2 SUB SWAP1 REVERT JUMPDEST PUSH1 0x1 SLOAD CALLVALUE GT PUSH2 0x3CD JUMPI PUSH1 0x40 MLOAD PUSH32 0x8C379A000000000000000000000000000000000000000000000000000000000 DUP2 MSTORE PUSH1 0x4 ADD PUSH2 0x3C4 SWAP1 PUSH2 0x105D JUMP JUMPDEST PUSH1 0x40 MLOAD DUP1 SWAP2 SUB SWAP1 REVERT JUMPDEST PUSH1 0x0 PUSH20 0xFFFFFFFFFFFFFFFFFFFFFFFFFFFFFFFFFFFFFFFF AND CALLER PUSH20 0xFFFFFFFFFFFFFFFFFFFFFFFFFFFFFFFFFFFFFFFF AND EQ PUSH2 0x469 JUMPI PUSH1 0x1 SLOAD PUSH1 0x2 PUSH1 0x0 DUP1 PUSH1 0x6 SWAP1 SLOAD SWAP1 PUSH2 0x100 EXP SWAP1 DIV PUSH20 0xFFFFFFFFFFFFFFFFFFFFFFFFFFFFFFFFFFFFFFFF AND PUSH20 0xFFFFFFFFFFFFFFFFFFFFFFFFFFFFFFFFFFFFFFFF AND PUSH20 0xFFFFFFFFFFFFFFFFFFFFFFFFFFFFFFFFFFFFFFFF AND DUP2 MSTORE PUSH1 0x20 ADD SWAP1 DUP2 MSTORE PUSH1 0x20 ADD PUSH1 0x0 KECCAK256 DUP2 SWAP1 SSTORE POP JUMPDEST CALLVALUE PUSH1 0x1 DUP2 SWAP1 SSTORE POP CALLER PUSH1 0x0 PUSH1 0x6 PUSH2 0x100 EXP DUP2 SLOAD DUP2 PUSH20 0xFFFFFFFFFFFFFFFFFFFFFFFFFFFFFFFFFFFFFFFF MUL NOT AND SWAP1 DUP4 PUSH20 0xFFFFFFFFFFFFFFFFFFFFFFFFFFFFFFFFFFFFFFFF AND MUL OR SWAP1 SSTORE POP CALLER PUSH20 0xFFFFFFFFFFFFFFFFFFFFFFFFFFFFFFFFFFFFFFFF AND PUSH32 0xE684A55F31B79ECA403DF938249029212A5925EC6BE8012E099B45BC1019E5D2 CALLVALUE PUSH1 0x40 MLOAD PUSH2 0x4F7 SWAP2 SWAP1 PUSH2 0xF0D JUMP JUMPDEST PUSH1 0x40 MLOAD DUP1 SWAP2 SUB SWAP1 LOG2 JUMP JUMPDEST PUSH1 0x0 PUSH1 0x4 SWAP1 SLOAD SWAP1 PUSH2 0x100 EXP SWAP1 DIV PUSH1 0xFF AND DUP2 JUMP JUMPDEST PUSH1 0x0 DUP1 SLOAD SWAP1 PUSH2 0x100 EXP SWAP1 DIV PUSH4 0xFFFFFFFF AND DUP2 JUMP JUMPDEST PUSH32 0x0 DUP2 JUMP JUMPDEST PUSH1 0x2 PUSH1 0x20 MSTORE DUP1 PUSH1 0x0 MSTORE PUSH1 0x40 PUSH1 0x0 KECCAK256 PUSH1 0x0 SWAP2 POP SWAP1 POP SLOAD DUP2 JUMP JUMPDEST PUSH1 0x0 PUSH1 0x6 SWAP1 SLOAD SWAP1 PUSH2 0x100 EXP SWAP1 DIV PUSH20 0xFFFFFFFFFFFFFFFFFFFFFFFFFFFFFFFFFFFFFFFF AND DUP2 JUMP JUMPDEST PUSH32 0x0 PUSH20 0xFFFFFFFFFFFFFFFFFFFFFFFFFFFFFFFFFFFFFFFF AND CALLER PUSH20 0xFFFFFFFFFFFFFFFFFFFFFFFFFFFFFFFFFFFFFFFF AND EQ PUSH2 0x618 JUMPI PUSH1 0x40 MLOAD PUSH32 0x8C379A000000000000000000000000000000000000000000000000000000000 DUP2 MSTORE PUSH1 0x4 ADD PUSH2 0x60F SWAP1 PUSH2 0x10C9 JUMP JUMPDEST PUSH1 0x40 MLOAD DUP1 SWAP2 SUB SWAP1 REVERT JUMPDEST PUSH1 0x0 PUSH1 0x4 SWAP1 SLOAD SWAP1 PUSH2 0x100 EXP SWAP1 DIV PUSH1 0xFF AND ISZERO PUSH2 0x668 JUMPI PUSH1 0x40 MLOAD PUSH32 0x8C379A000000000000000000000000000000000000000000000000000000000 DUP2 MSTORE PUSH1 0x4 ADD PUSH2 0x65F SWAP1 PUSH2 0x1135 JUMP JUMPDEST PUSH1 0x40 MLOAD DUP1 SWAP2 SUB SWAP1 REVERT JUMPDEST PUSH1 0x1 PUSH1 0x0 PUSH1 0x4 PUSH2 0x100 EXP DUP2 SLOAD DUP2 PUSH1 0xFF MUL NOT AND SWAP1 DUP4 ISZERO ISZERO MUL OR SWAP1 SSTORE POP PUSH1 0x3C TIMESTAMP PUSH2 0x690 SWAP2 SWAP1 PUSH2 0x1184 JUMP JUMPDEST PUSH1 0x0 DUP1 PUSH2 0x100 EXP DUP2 SLOAD DUP2 PUSH4 0xFFFFFFFF MUL NOT AND SWAP1 DUP4 PUSH4 0xFFFFFFFF AND MUL OR SWAP1 SSTORE POP PUSH32 0x0 PUSH20 0xFFFFFFFFFFFFFFFFFFFFFFFFFFFFFFFFFFFFFFFF AND PUSH4 0x23B872DD PUSH32 0x0 ADDRESS PUSH32 0x0 PUSH1 0x40 MLOAD DUP5 PUSH4 0xFFFFFFFF AND PUSH1 0xE0 SHL DUP2 MSTORE PUSH1 0x4 ADD PUSH2 0x74C SWAP4 SWAP3 SWAP2 SWAP1 PUSH2 0x11B8 JUMP JUMPDEST PUSH1 0x0 PUSH1 0x40 MLOAD DUP1 DUP4 SUB DUP2 PUSH1 0x0 DUP8 DUP1 EXTCODESIZE ISZERO DUP1 ISZERO PUSH2 0x766 JUMPI PUSH1 0x0 DUP1 REVERT JUMPDEST POP GAS CALL ISZERO DUP1 ISZERO PUSH2 0x77A JUMPI RETURNDATASIZE PUSH1 0x0 DUP1 RETURNDATACOPY RETURNDATASIZE PUSH1 0x0 REVERT JUMPDEST POP POP POP POP PUSH32 0x1B55BA3AA851A46BE3B365AEE5B5C140EDD620D578922F3E8466D2CBD96F954B PUSH1 0x40 MLOAD PUSH1 0x40 MLOAD DUP1 SWAP2 SUB SWAP1 LOG1 JUMP JUMPDEST PUSH32 0x0 DUP2 JUMP JUMPDEST PUSH1 0x0 PUSH1 0x2 PUSH1 0x0 CALLER PUSH20 0xFFFFFFFFFFFFFFFFFFFFFFFFFFFFFFFFFFFFFFFF AND PUSH20 0xFFFFFFFFFFFFFFFFFFFFFFFFFFFFFFFFFFFFFFFF AND DUP2 MSTORE PUSH1 0x20 ADD SWAP1 DUP2 MSTORE PUSH1 0x20 ADD PUSH1 0x0 KECCAK256 SLOAD GT PUSH2 0x852 JUMPI PUSH1 0x40 MLOAD PUSH32 0x8C379A000000000000000000000000000000000000000000000000000000000 DUP2 MSTORE PUSH1 0x4 ADD PUSH2 0x849 SWAP1 PUSH2 0x123B JUMP JUMPDEST PUSH1 0x40 MLOAD DUP1 SWAP2 SUB SWAP1 REVERT JUMPDEST PUSH1 0x0 PUSH1 0x2 PUSH1 0x0 CALLER PUSH20 0xFFFFFFFFFFFFFFFFFFFFFFFFFFFFFFFFFFFFFFFF AND PUSH20 0xFFFFFFFFFFFFFFFFFFFFFFFFFFFFFFFFFFFFFFFF AND DUP2 MSTORE PUSH1 0x20 ADD SWAP1 DUP2 MSTORE PUSH1 0x20 ADD PUSH1 0x0 KECCAK256 SLOAD SWAP1 POP PUSH1 0x0 PUSH1 0x2 PUSH1 0x0 CALLER PUSH20 0xFFFFFFFFFFFFFFFFFFFFFFFFFFFFFFFFFFFFFFFF AND PUSH20 0xFFFFFFFFFFFFFFFFFFFFFFFFFFFFFFFFFFFFFFFF AND DUP2 MSTORE PUSH1 0x20 ADD SWAP1 DUP2 MSTORE PUSH1 0x20 ADD PUSH1 0x0 KECCAK256 DUP2 SWAP1 SSTORE POP CALLER PUSH20 0xFFFFFFFFFFFFFFFFFFFFFFFFFFFFFFFFFFFFFFFF AND PUSH2 0x8FC DUP3 SWAP1 DUP2 ISZERO MUL SWAP1 PUSH1 0x40 MLOAD PUSH1 0x0 PUSH1 0x40 MLOAD DUP1 DUP4 SUB DUP2 DUP6 DUP9 DUP9 CALL SWAP4 POP POP POP POP ISZERO DUP1 ISZERO PUSH2 0x921 JUMPI RETURNDATASIZE PUSH1 0x0 DUP1 RETURNDATACOPY RETURNDATASIZE PUSH1 0x0 REVERT JUMPDEST POP CALLER PUSH20 0xFFFFFFFFFFFFFFFFFFFFFFFFFFFFFFFFFFFFFFFF AND PUSH32 0x884EDAD9CE6FA2440D8A54CC123490EB96D2768479D49FF9C7366125A9424364 DUP3 PUSH1 0x40 MLOAD PUSH2 0x968 SWAP2 SWAP1 PUSH2 0xF0D JUMP JUMPDEST PUSH1 0x40 MLOAD DUP1 SWAP2 SUB SWAP1 LOG2 POP JUMP JUMPDEST PUSH1 0x1 SLOAD DUP2 JUMP JUMPDEST PUSH1 0x0 PUSH1 0x4 SWAP1 SLOAD SWAP1 PUSH2 0x100 EXP SWAP1 DIV PUSH1 0xFF AND PUSH2 0x9C8 JUMPI PUSH1 0x40 MLOAD PUSH32 0x8C379A000000000000000000000000000000000000000000000000000000000 DUP2 MSTORE PUSH1 0x4 ADD PUSH2 0x9BF SWAP1 PUSH2 0xF85 JUMP JUMPDEST PUSH1 0x40 MLOAD DUP1 SWAP2 SUB SWAP1 REVERT JUMPDEST PUSH1 0x0 PUSH1 0x5 SWAP1 SLOAD SWAP1 PUSH2 0x100 EXP SWAP1 DIV PUSH1 0xFF AND ISZERO PUSH2 0xA18 JUMPI PUSH1 0x40 MLOAD PUSH32 0x8C379A000000000000000000000000000000000000000000000000000000000 DUP2 MSTORE PUSH1 0x4 ADD PUSH2 0xA0F SWAP1 PUSH2 0xFF1 JUMP JUMPDEST PUSH1 0x40 MLOAD DUP1 SWAP2 SUB SWAP1 REVERT JUMPDEST PUSH1 0x0 DUP1 SLOAD SWAP1 PUSH2 0x100 EXP SWAP1 DIV PUSH4 0xFFFFFFFF AND PUSH4 0xFFFFFFFF AND TIMESTAMP LT ISZERO PUSH2 0xA71 JUMPI PUSH1 0x40 MLOAD PUSH32 0x8C379A000000000000000000000000000000000000000000000000000000000 DUP2 MSTORE PUSH1 0x4 ADD PUSH2 0xA68 SWAP1 PUSH2 0xFF1 JUMP JUMPDEST PUSH1 0x40 MLOAD DUP1 SWAP2 SUB SWAP1 REVERT JUMPDEST PUSH1 0x1 PUSH1 0x0 PUSH1 0x5 PUSH2 0x100 EXP DUP2 SLOAD DUP2 PUSH1 0xFF MUL NOT AND SWAP1 DUP4 ISZERO ISZERO MUL OR SWAP1 SSTORE POP PUSH1 0x0 PUSH20 0xFFFFFFFFFFFFFFFFFFFFFFFFFFFFFFFFFFFFFFFF AND PUSH1 0x0 PUSH1 0x6 SWAP1 SLOAD SWAP1 PUSH2 0x100 EXP SWAP1 DIV PUSH20 0xFFFFFFFFFFFFFFFFFFFFFFFFFFFFFFFFFFFFFFFF AND PUSH20 0xFFFFFFFFFFFFFFFFFFFFFFFFFFFFFFFFFFFFFFFF AND EQ PUSH2 0xC21 JUMPI PUSH32 0x0 PUSH20 0xFFFFFFFFFFFFFFFFFFFFFFFFFFFFFFFFFFFFFFFF AND PUSH4 0x23B872DD ADDRESS PUSH1 0x0 PUSH1 0x6 SWAP1 SLOAD SWAP1 PUSH2 0x100 EXP SWAP1 DIV PUSH20 0xFFFFFFFFFFFFFFFFFFFFFFFFFFFFFFFFFFFFFFFF AND PUSH32 0x0 PUSH1 0x40 MLOAD DUP5 PUSH4 0xFFFFFFFF AND PUSH1 0xE0 SHL DUP2 MSTORE PUSH1 0x4 ADD PUSH2 0xB81 SWAP4 SWAP3 SWAP2 SWAP1 PUSH2 0x11B8 JUMP JUMPDEST PUSH1 0x0 PUSH1 0x40 MLOAD DUP1 DUP4 SUB DUP2 PUSH1 0x0 DUP8 DUP1 EXTCODESIZE ISZERO DUP1 ISZERO PUSH2 0xB9B JUMPI PUSH1 0x0 DUP1 REVERT JUMPDEST POP GAS CALL ISZERO DUP1 ISZERO PUSH2 0xBAF JUMPI RETURNDATASIZE PUSH1 0x0 DUP1 RETURNDATACOPY RETURNDATASIZE PUSH1 0x0 REVERT JUMPDEST POP POP POP POP PUSH32 0x0 PUSH20 0xFFFFFFFFFFFFFFFFFFFFFFFFFFFFFFFFFFFFFFFF AND PUSH2 0x8FC PUSH1 0x1 SLOAD SWAP1 DUP2 ISZERO MUL SWAP1 PUSH1 0x40 MLOAD PUSH1 0x0 PUSH1 0x40 MLOAD DUP1 DUP4 SUB DUP2 DUP6 DUP9 DUP9 CALL SWAP4 POP POP POP POP ISZERO DUP1 ISZERO PUSH2 0xC1B JUMPI RETURNDATASIZE PUSH1 0x0 DUP1 RETURNDATACOPY RETURNDATASIZE PUSH1 0x0 REVERT JUMPDEST POP PUSH2 0xCF1 JUMP JUMPDEST PUSH32 0x0 PUSH20 0xFFFFFFFFFFFFFFFFFFFFFFFFFFFFFFFFFFFFFFFF AND PUSH4 0x23B872DD ADDRESS PUSH32 0x0 PUSH32 0x0 PUSH1 0x40 MLOAD DUP5 PUSH4 0xFFFFFFFF AND PUSH1 0xE0 SHL DUP2 MSTORE PUSH1 0x4 ADD PUSH2 0xCBE SWAP4 SWAP3 SWAP2 SWAP1 PUSH2 0x11B8 JUMP JUMPDEST PUSH1 0x0 PUSH1 0x40 MLOAD DUP1 DUP4 SUB DUP2 PUSH1 0x0 DUP8 DUP1 EXTCODESIZE ISZERO DUP1 ISZERO PUSH2 0xCD8 JUMPI PUSH1 0x0 DUP1 REVERT JUMPDEST POP GAS CALL ISZERO DUP1 ISZERO PUSH2 0xCEC JUMPI RETURNDATASIZE PUSH1 0x0 DUP1 RETURNDATACOPY RETURNDATASIZE PUSH1 0x0 REVERT JUMPDEST POP POP POP POP JUMPDEST PUSH32 0x7D7570B046E5EAD3A4F3FBC9FA2445113625A1E79823776146316BAFED6B8CC5 PUSH1 0x0 PUSH1 0x6 SWAP1 SLOAD SWAP1 PUSH2 0x100 EXP SWAP1 DIV PUSH20 0xFFFFFFFFFFFFFFFFFFFFFFFFFFFFFFFFFFFFFFFF AND PUSH1 0x1 SLOAD PUSH1 0x40 MLOAD PUSH2 0xD46 SWAP3 SWAP2 SWAP1 PUSH2 0x125B JUMP JUMPDEST PUSH1 0x40 MLOAD DUP1 SWAP2 SUB SWAP1 LOG1 JUMP JUMPDEST PUSH1 0x0 PUSH20 0xFFFFFFFFFFFFFFFFFFFFFFFFFFFFFFFFFFFFFFFF DUP3 AND SWAP1 POP SWAP2 SWAP1 POP JUMP JUMPDEST PUSH1 0x0 PUSH2 0xD7B DUP3 PUSH2 0xD50 JUMP JUMPDEST SWAP1 POP SWAP2 SWAP1 POP JUMP JUMPDEST PUSH2 0xD8B DUP2 PUSH2 0xD70 JUMP JUMPDEST DUP3 MSTORE POP POP JUMP JUMPDEST PUSH1 0x0 PUSH1 0x20 DUP3 ADD SWAP1 POP PUSH2 0xDA6 PUSH1 0x0 DUP4 ADD DUP5 PUSH2 0xD82 JUMP JUMPDEST SWAP3 SWAP2 POP POP JUMP JUMPDEST PUSH1 0x0 DUP2 ISZERO ISZERO SWAP1 POP SWAP2 SWAP1 POP JUMP JUMPDEST PUSH2 0xDC1 DUP2 PUSH2 0xDAC JUMP JUMPDEST DUP3 MSTORE POP POP JUMP JUMPDEST PUSH1 0x0 PUSH1 0x20 DUP3 ADD SWAP1 POP PUSH2 0xDDC PUSH1 0x0 DUP4 ADD DUP5 PUSH2 0xDB8 JUMP JUMPDEST SWAP3 SWAP2 POP POP JUMP JUMPDEST PUSH1 0x0 PUSH4 0xFFFFFFFF DUP3 AND SWAP1 POP SWAP2 SWAP1 POP JUMP JUMPDEST PUSH2 0xDFB DUP2 PUSH2 0xDE2 JUMP JUMPDEST DUP3 MSTORE POP POP JUMP JUMPDEST PUSH1 0x0 PUSH1 0x20 DUP3 ADD SWAP1 POP PUSH2 0xE16 PUSH1 0x0 DUP4 ADD DUP5 PUSH2 0xDF2 JUMP JUMPDEST SWAP3 SWAP2 POP POP JUMP JUMPDEST PUSH1 0x0 DUP2 SWAP1 POP SWAP2 SWAP1 POP JUMP JUMPDEST PUSH1 0x0 PUSH2 0xE41 PUSH2 0xE3C PUSH2 0xE37 DUP5 PUSH2 0xD50 JUMP JUMPDEST PUSH2 0xE1C JUMP JUMPDEST PUSH2 0xD50 JUMP JUMPDEST SWAP1 POP SWAP2 SWAP1 POP JUMP JUMPDEST PUSH1 0x0 PUSH2 0xE53 DUP3 PUSH2 0xE26 JUMP JUMPDEST SWAP1 POP SWAP2 SWAP1 POP JUMP JUMPDEST PUSH1 0x0 PUSH2 0xE65 DUP3 PUSH2 0xE48 JUMP JUMPDEST SWAP1 POP SWAP2 SWAP1 POP JUMP JUMPDEST PUSH2 0xE75 DUP2 PUSH2 0xE5A JUMP JUMPDEST DUP3 MSTORE POP POP JUMP JUMPDEST PUSH1 0x0 PUSH1 0x20 DUP3 ADD SWAP1 POP PUSH2 0xE90 PUSH1 0x0 DUP4 ADD DUP5 PUSH2 0xE6C JUMP JUMPDEST SWAP3 SWAP2 POP POP JUMP JUMPDEST PUSH1 0x0 DUP1 REVERT JUMPDEST PUSH2 0xEA4 DUP2 PUSH2 0xD70 JUMP JUMPDEST DUP2 EQ PUSH2 0xEAF JUMPI PUSH1 0x0 DUP1 REVERT JUMPDEST POP JUMP JUMPDEST PUSH1 0x0 DUP2 CALLDATALOAD SWAP1 POP PUSH2 0xEC1 DUP2 PUSH2 0xE9B JUMP JUMPDEST SWAP3 SWAP2 POP POP JUMP JUMPDEST PUSH1 0x0 PUSH1 0x20 DUP3 DUP5 SUB SLT ISZERO PUSH2 0xEDD JUMPI PUSH2 0xEDC PUSH2 0xE96 JUMP JUMPDEST JUMPDEST PUSH1 0x0 PUSH2 0xEEB DUP5 DUP3 DUP6 ADD PUSH2 0xEB2 JUMP JUMPDEST SWAP2 POP POP SWAP3 SWAP2 POP POP JUMP JUMPDEST PUSH1 0x0 DUP2 SWAP1 POP SWAP2 SWAP1 POP JUMP JUMPDEST PUSH2 0xF07 DUP2 PUSH2 0xEF4 JUMP JUMPDEST DUP3 MSTORE POP POP JUMP JUMPDEST PUSH1 0x0 PUSH1 0x20 DUP3 ADD SWAP1 POP PUSH2 0xF22 PUSH1 0x0 DUP4 ADD DUP5 PUSH2 0xEFE JUMP JUMPDEST SWAP3 SWAP2 POP POP JUMP JUMPDEST PUSH1 0x0 DUP3 DUP3 MSTORE PUSH1 0x20 DUP3 ADD SWAP1 POP SWAP3 SWAP2 POP POP JUMP JUMPDEST PUSH32 0x4E6F742073746172746564000000000000000000000000000000000000000000 PUSH1 0x0 DUP3 ADD MSTORE POP JUMP JUMPDEST PUSH1 0x0 PUSH2 0xF6F PUSH1 0xB DUP4 PUSH2 0xF28 JUMP JUMPDEST SWAP2 POP PUSH2 0xF7A DUP3 PUSH2 0xF39 JUMP JUMPDEST PUSH1 0x20 DUP3 ADD SWAP1 POP SWAP2 SWAP1 POP JUMP JUMPDEST PUSH1 0x0 PUSH1 0x20 DUP3 ADD SWAP1 POP DUP2 DUP2 SUB PUSH1 0x0 DUP4 ADD MSTORE PUSH2 0xF9E DUP2 PUSH2 0xF62 JUMP JUMPDEST SWAP1 POP SWAP2 SWAP1 POP JUMP JUMPDEST PUSH32 0x656E646564000000000000000000000000000000000000000000000000000000 PUSH1 0x0 DUP3 ADD MSTORE POP JUMP JUMPDEST PUSH1 0x0 PUSH2 0xFDB PUSH1 0x5 DUP4 PUSH2 0xF28 JUMP JUMPDEST SWAP2 POP PUSH2 0xFE6 DUP3 PUSH2 0xFA5 JUMP JUMPDEST PUSH1 0x20 DUP3 ADD SWAP1 POP SWAP2 SWAP1 POP JUMP JUMPDEST PUSH1 0x0 PUSH1 0x20 DUP3 ADD SWAP1 POP DUP2 DUP2 SUB PUSH1 0x0 DUP4 ADD MSTORE PUSH2 0x100A DUP2 PUSH2 0xFCE JUMP JUMPDEST SWAP1 POP SWAP2 SWAP1 POP JUMP JUMPDEST PUSH32 0x76616C7565203C20686967686573740000000000000000000000000000000000 PUSH1 0x0 DUP3 ADD MSTORE POP JUMP JUMPDEST PUSH1 0x0 PUSH2 0x1047 PUSH1 0xF DUP4 PUSH2 0xF28 JUMP JUMPDEST SWAP2 POP PUSH2 0x1052 DUP3 PUSH2 0x1011 JUMP JUMPDEST PUSH1 0x20 DUP3 ADD SWAP1 POP SWAP2 SWAP1 POP JUMP JUMPDEST PUSH1 0x0 PUSH1 0x20 DUP3 ADD SWAP1 POP DUP2 DUP2 SUB PUSH1 0x0 DUP4 ADD MSTORE PUSH2 0x1076 DUP2 PUSH2 0x103A JUMP JUMPDEST SWAP1 POP SWAP2 SWAP1 POP JUMP JUMPDEST PUSH32 0x4E6F742073656C6C657200000000000000000000000000000000000000000000 PUSH1 0x0 DUP3 ADD MSTORE POP JUMP JUMPDEST PUSH1 0x0 PUSH2 0x10B3 PUSH1 0xA DUP4 PUSH2 0xF28 JUMP JUMPDEST SWAP2 POP PUSH2 0x10BE DUP3 PUSH2 0x107D JUMP JUMPDEST PUSH1 0x20 DUP3 ADD SWAP1 POP SWAP2 SWAP1 POP JUMP JUMPDEST PUSH1 0x0 PUSH1 0x20 DUP3 ADD SWAP1 POP DUP2 DUP2 SUB PUSH1 0x0 DUP4 ADD MSTORE PUSH2 0x10E2 DUP2 PUSH2 0x10A6 JUMP JUMPDEST SWAP1 POP SWAP2 SWAP1 POP JUMP JUMPDEST PUSH32 0x7374617274656400000000000000000000000000000000000000000000000000 PUSH1 0x0 DUP3 ADD MSTORE POP JUMP JUMPDEST PUSH1 0x0 PUSH2 0x111F PUSH1 0x7 DUP4 PUSH2 0xF28 JUMP JUMPDEST SWAP2 POP PUSH2 0x112A DUP3 PUSH2 0x10E9 JUMP JUMPDEST PUSH1 0x20 DUP3 ADD SWAP1 POP SWAP2 SWAP1 POP JUMP JUMPDEST PUSH1 0x0 PUSH1 0x20 DUP3 ADD SWAP1 POP DUP2 DUP2 SUB PUSH1 0x0 DUP4 ADD MSTORE PUSH2 0x114E DUP2 PUSH2 0x1112 JUMP JUMPDEST SWAP1 POP SWAP2 SWAP1 POP JUMP JUMPDEST PUSH32 0x4E487B7100000000000000000000000000000000000000000000000000000000 PUSH1 0x0 MSTORE PUSH1 0x11 PUSH1 0x4 MSTORE PUSH1 0x24 PUSH1 0x0 REVERT JUMPDEST PUSH1 0x0 PUSH2 0x118F DUP3 PUSH2 0xEF4 JUMP JUMPDEST SWAP2 POP PUSH2 0x119A DUP4 PUSH2 0xEF4 JUMP JUMPDEST SWAP3 POP DUP3 DUP3 ADD SWAP1 POP DUP1 DUP3 GT ISZERO PUSH2 0x11B2 JUMPI PUSH2 0x11B1 PUSH2 0x1155 JUMP JUMPDEST JUMPDEST SWAP3 SWAP2 POP POP JUMP JUMPDEST PUSH1 0x0 PUSH1 0x60 DUP3 ADD SWAP1 POP PUSH2 0x11CD PUSH1 0x0 DUP4 ADD DUP7 PUSH2 0xD82 JUMP JUMPDEST PUSH2 0x11DA PUSH1 0x20 DUP4 ADD DUP6 PUSH2 0xD82 JUMP JUMPDEST PUSH2 0x11E7 PUSH1 0x40 DUP4 ADD DUP5 PUSH2 0xEFE JUMP JUMPDEST SWAP5 SWAP4 POP POP POP POP JUMP JUMPDEST PUSH32 0x456D707479000000000000000000000000000000000000000000000000000000 PUSH1 0x0 DUP3 ADD MSTORE POP JUMP JUMPDEST PUSH1 0x0 PUSH2 0x1225 PUSH1 0x5 DUP4 PUSH2 0xF28 JUMP JUMPDEST SWAP2 POP PUSH2 0x1230 DUP3 PUSH2 0x11EF JUMP JUMPDEST PUSH1 0x20 DUP3 ADD SWAP1 POP SWAP2 SWAP1 POP JUMP JUMPDEST PUSH1 0x0 PUSH1 0x20 DUP3 ADD SWAP1 POP DUP2 DUP2 SUB PUSH1 0x0 DUP4 ADD MSTORE PUSH2 0x1254 DUP2 PUSH2 0x1218 JUMP JUMPDEST SWAP1 POP SWAP2 SWAP1 POP JUMP JUMPDEST PUSH1 0x0 PUSH1 0x40 DUP3 ADD SWAP1 POP PUSH2 0x1270 PUSH1 0x0 DUP4 ADD DUP6 PUSH2 0xD82 JUMP JUMPDEST PUSH2 0x127D PUSH1 0x20 DUP4 ADD DUP5 PUSH2 0xEFE JUMP JUMPDEST SWAP4 SWAP3 POP POP POP JUMP INVALID LOG2 PUSH5 0x6970667358 0x22 SLT KECCAK256 PUSH20 0x870BDD5EF165D258FA4D8D682873BD1415EDC3FE CREATE2 SLT 0xEA PUSH32 0x256B64DBE480D164736F6C634300081100330000000000000000000000000000 "
				},
				"gasEstimates": {
					"creation": {
						"codeDepositCost": "958800",
						"executionCost": "infinite",
						"totalCost": "infinite"
					},
					"external": {
						"bid()": "81177",
						"bids(address)": "2837",
						"end()": "infinite",
						"ended()": "2544",
						"endedAt()": "2557",
						"highestBid()": "2495",
						"highestBidder()": "2609",
						"nft()": "infinite",
						"nftId()": "infinite",
						"seller()": "infinite",
						"start()": "infinite",
						"started()": "2588",
						"withdrawal()": "infinite"
					}
				},
				"methodIdentifiers": {
					"bid()": "1998aeef",
					"bids(address)": "62ea82db",
					"end()": "efbe1c1c",
					"ended()": "12fa6feb",
					"endedAt()": "3d6a71e4",
					"highestBid()": "d57bde79",
					"highestBidder()": "91f90157",
					"nft()": "47ccca02",
					"nftId()": "c6bc5182",
					"seller()": "08551a53",
					"start()": "be9a6555",
					"started()": "1f2698ab",
					"withdrawal()": "d4e93292"
				}
			},
			"storageLayout": {
				"storage": [
					{
						"astId": 40,
						"contract": "contracts/SmartContractLessons/EnglishAuction.sol:EnglishAuction",
						"label": "endedAt",
						"offset": 0,
						"slot": "0",
						"type": "t_uint32"
					},
					{
						"astId": 42,
						"contract": "contracts/SmartContractLessons/EnglishAuction.sol:EnglishAuction",
						"label": "started",
						"offset": 4,
						"slot": "0",
						"type": "t_bool"
					},
					{
						"astId": 44,
						"contract": "contracts/SmartContractLessons/EnglishAuction.sol:EnglishAuction",
						"label": "ended",
						"offset": 5,
						"slot": "0",
						"type": "t_bool"
					},
					{
						"astId": 46,
						"contract": "contracts/SmartContractLessons/EnglishAuction.sol:EnglishAuction",
						"label": "highestBidder",
						"offset": 6,
						"slot": "0",
						"type": "t_address"
					},
					{
						"astId": 48,
						"contract": "contracts/SmartContractLessons/EnglishAuction.sol:EnglishAuction",
						"label": "highestBid",
						"offset": 0,
						"slot": "1",
						"type": "t_uint256"
					},
					{
						"astId": 52,
						"contract": "contracts/SmartContractLessons/EnglishAuction.sol:EnglishAuction",
						"label": "bids",
						"offset": 0,
						"slot": "2",
						"type": "t_mapping(t_address,t_uint256)"
					}
				],
				"types": {
					"t_address": {
						"encoding": "inplace",
						"label": "address",
						"numberOfBytes": "20"
					},
					"t_bool": {
						"encoding": "inplace",
						"label": "bool",
						"numberOfBytes": "1"
					},
					"t_mapping(t_address,t_uint256)": {
						"encoding": "mapping",
						"key": "t_address",
						"label": "mapping(address => uint256)",
						"numberOfBytes": "32",
						"value": "t_uint256"
					},
					"t_uint256": {
						"encoding": "inplace",
						"label": "uint256",
						"numberOfBytes": "32"
					},
					"t_uint32": {
						"encoding": "inplace",
						"label": "uint32",
						"numberOfBytes": "4"
					}
				}
			},
			"userdoc": {
				"kind": "user",
				"methods": {},
				"version": 1
			}
		}
	}
}