{
	"contracts/SmartContractLessons/FunctionOutputs.sol": {
		"FunctionOutput": {
			"abi": [
				{
					"inputs": [],
					"name": "assigned",
					"outputs": [
						{
							"internalType": "uint256",
							"name": "x",
							"type": "uint256"
						},
						{
							"internalType": "bool",
							"name": "b",
							"type": "bool"
						}
					],
					"stateMutability": "pure",
					"type": "function"
				},
				{
					"inputs": [],
					"name": "destructingAssignments",
					"outputs": [
						{
							"internalType": "uint256",
							"name": "",
							"type": "uint256"
						},
						{
							"internalType": "bool",
							"name": "",
							"type": "bool"
						},
						{
							"internalType": "bool",
							"name": "",
							"type": "bool"
						}
					],
					"stateMutability": "pure",
					"type": "function"
				},
				{
					"inputs": [],
					"name": "named",
					"outputs": [
						{
							"internalType": "uint256",
							"name": "x",
							"type": "uint256"
						},
						{
							"internalType": "bool",
							"name": "b",
							"type": "bool"
						}
					],
					"stateMutability": "pure",
					"type": "function"
				},
				{
					"inputs": [],
					"name": "returnMany",
					"outputs": [
						{
							"internalType": "uint256",
							"name": "",
							"type": "uint256"
						},
						{
							"internalType": "bool",
							"name": "",
							"type": "bool"
						}
					],
					"stateMutability": "pure",
					"type": "function"
				}
			],
			"devdoc": {
				"kind": "dev",
				"methods": {},
				"version": 1
			},
			"evm": {
				"assembly": "    /* \"contracts/SmartContractLessons/FunctionOutputs.sol\":56:856  contract FunctionOutput {... */\n  mstore(0x40, 0x80)\n  callvalue\n  dup1\n  iszero\n  tag_1\n  jumpi\n  0x00\n  dup1\n  revert\ntag_1:\n  pop\n  dataSize(sub_0)\n  dup1\n  dataOffset(sub_0)\n  0x00\n  codecopy\n  0x00\n  return\nstop\n\nsub_0: assembly {\n        /* \"contracts/SmartContractLessons/FunctionOutputs.sol\":56:856  contract FunctionOutput {... */\n      mstore(0x40, 0x80)\n      callvalue\n      dup1\n      iszero\n      tag_1\n      jumpi\n      0x00\n      dup1\n      revert\n    tag_1:\n      pop\n      jumpi(tag_2, lt(calldatasize, 0x04))\n      shr(0xe0, calldataload(0x00))\n      dup1\n      0x3f7f3db6\n      eq\n      tag_3\n      jumpi\n      dup1\n      0x45f907a8\n      eq\n      tag_4\n      jumpi\n      dup1\n      0x86887544\n      eq\n      tag_5\n      jumpi\n      dup1\n      0xadb4d990\n      eq\n      tag_6\n      jumpi\n    tag_2:\n      0x00\n      dup1\n      revert\n        /* \"contracts/SmartContractLessons/FunctionOutputs.sol\":463:854  function destructingAssignments()... */\n    tag_3:\n      tag_7\n      tag_8\n      jump\t// in\n    tag_7:\n      mload(0x40)\n      tag_9\n      swap4\n      swap3\n      swap2\n      swap1\n      tag_10\n      jump\t// in\n    tag_9:\n      mload(0x40)\n      dup1\n      swap2\n      sub\n      swap1\n      return\n        /* \"contracts/SmartContractLessons/FunctionOutputs.sol\":183:274  function named() public pure returns (uint256 x, bool b) {... */\n    tag_4:\n      tag_11\n      tag_12\n      jump\t// in\n    tag_11:\n      mload(0x40)\n      tag_13\n      swap3\n      swap2\n      swap1\n      tag_14\n      jump\t// in\n    tag_13:\n      mload(0x40)\n      dup1\n      swap2\n      sub\n      swap1\n      return\n        /* \"contracts/SmartContractLessons/FunctionOutputs.sol\":86:177  function returnMany() public pure returns (uint256, bool) {... */\n    tag_5:\n      tag_15\n      tag_16\n      jump\t// in\n    tag_15:\n      mload(0x40)\n      tag_17\n      swap3\n      swap2\n      swap1\n      tag_14\n      jump\t// in\n    tag_17:\n      mload(0x40)\n      dup1\n      swap2\n      sub\n      swap1\n      return\n        /* \"contracts/SmartContractLessons/FunctionOutputs.sol\":280:457  function assigned() public pure returns (uint256 x, bool b) {... */\n    tag_6:\n      tag_18\n      tag_19\n      jump\t// in\n    tag_18:\n      mload(0x40)\n      tag_20\n      swap3\n      swap2\n      swap1\n      tag_14\n      jump\t// in\n    tag_20:\n      mload(0x40)\n      dup1\n      swap2\n      sub\n      swap1\n      return\n        /* \"contracts/SmartContractLessons/FunctionOutputs.sol\":463:854  function destructingAssignments()... */\n    tag_8:\n        /* \"contracts/SmartContractLessons/FunctionOutputs.sol\":555:562  uint256 */\n      0x00\n        /* \"contracts/SmartContractLessons/FunctionOutputs.sol\":576:580  bool */\n      dup1\n        /* \"contracts/SmartContractLessons/FunctionOutputs.sol\":594:598  bool */\n      0x00\n        /* \"contracts/SmartContractLessons/FunctionOutputs.sol\":624:633  uint256 x */\n      dup1\n        /* \"contracts/SmartContractLessons/FunctionOutputs.sol\":635:641  bool b */\n      0x00\n        /* \"contracts/SmartContractLessons/FunctionOutputs.sol\":645:657  returnMany() */\n      tag_22\n        /* \"contracts/SmartContractLessons/FunctionOutputs.sol\":645:655  returnMany */\n      tag_16\n        /* \"contracts/SmartContractLessons/FunctionOutputs.sol\":645:657  returnMany() */\n      jump\t// in\n    tag_22:\n        /* \"contracts/SmartContractLessons/FunctionOutputs.sol\":623:657  (uint256 x, bool b) = returnMany() */\n      swap2\n      pop\n      swap2\n      pop\n        /* \"contracts/SmartContractLessons/FunctionOutputs.sol\":707:714  bool _b */\n      0x00\n        /* \"contracts/SmartContractLessons/FunctionOutputs.sol\":718:725  named() */\n      tag_23\n        /* \"contracts/SmartContractLessons/FunctionOutputs.sol\":718:723  named */\n      tag_12\n        /* \"contracts/SmartContractLessons/FunctionOutputs.sol\":718:725  named() */\n      jump\t// in\n    tag_23:\n        /* \"contracts/SmartContractLessons/FunctionOutputs.sol\":704:725  (, bool _b) = named() */\n      swap2\n      pop\n      pop\n        /* \"contracts/SmartContractLessons/FunctionOutputs.sol\":838:839  x */\n      dup3\n        /* \"contracts/SmartContractLessons/FunctionOutputs.sol\":841:842  b */\n      dup3\n        /* \"contracts/SmartContractLessons/FunctionOutputs.sol\":844:846  _b */\n      dup3\n        /* \"contracts/SmartContractLessons/FunctionOutputs.sol\":830:847  return (x, b, _b) */\n      swap6\n      pop\n      swap6\n      pop\n      swap6\n      pop\n      pop\n      pop\n      pop\n        /* \"contracts/SmartContractLessons/FunctionOutputs.sol\":463:854  function destructingAssignments()... */\n      swap1\n      swap2\n      swap3\n      jump\t// out\n        /* \"contracts/SmartContractLessons/FunctionOutputs.sol\":183:274  function named() public pure returns (uint256 x, bool b) {... */\n    tag_12:\n        /* \"contracts/SmartContractLessons/FunctionOutputs.sol\":221:230  uint256 x */\n      0x00\n        /* \"contracts/SmartContractLessons/FunctionOutputs.sol\":232:238  bool b */\n      dup1\n        /* \"contracts/SmartContractLessons/FunctionOutputs.sol\":258:259  1 */\n      0x01\n        /* \"contracts/SmartContractLessons/FunctionOutputs.sol\":261:266  false */\n      0x00\n        /* \"contracts/SmartContractLessons/FunctionOutputs.sol\":250:267  return (1, false) */\n      swap2\n      pop\n      swap2\n      pop\n        /* \"contracts/SmartContractLessons/FunctionOutputs.sol\":183:274  function named() public pure returns (uint256 x, bool b) {... */\n      swap1\n      swap2\n      jump\t// out\n        /* \"contracts/SmartContractLessons/FunctionOutputs.sol\":86:177  function returnMany() public pure returns (uint256, bool) {... */\n    tag_16:\n        /* \"contracts/SmartContractLessons/FunctionOutputs.sol\":129:136  uint256 */\n      0x00\n        /* \"contracts/SmartContractLessons/FunctionOutputs.sol\":138:142  bool */\n      dup1\n        /* \"contracts/SmartContractLessons/FunctionOutputs.sol\":162:163  1 */\n      0x01\n        /* \"contracts/SmartContractLessons/FunctionOutputs.sol\":165:169  true */\n      dup1\n        /* \"contracts/SmartContractLessons/FunctionOutputs.sol\":154:170  return (1, true) */\n      swap2\n      pop\n      swap2\n      pop\n        /* \"contracts/SmartContractLessons/FunctionOutputs.sol\":86:177  function returnMany() public pure returns (uint256, bool) {... */\n      swap1\n      swap2\n      jump\t// out\n        /* \"contracts/SmartContractLessons/FunctionOutputs.sol\":280:457  function assigned() public pure returns (uint256 x, bool b) {... */\n    tag_19:\n        /* \"contracts/SmartContractLessons/FunctionOutputs.sol\":321:330  uint256 x */\n      0x00\n        /* \"contracts/SmartContractLessons/FunctionOutputs.sol\":332:338  bool b */\n      dup1\n        /* \"contracts/SmartContractLessons/FunctionOutputs.sol\":431:432  1 */\n      0x01\n        /* \"contracts/SmartContractLessons/FunctionOutputs.sol\":427:432  x = 1 */\n      swap2\n      pop\n        /* \"contracts/SmartContractLessons/FunctionOutputs.sol\":446:450  true */\n      0x01\n        /* \"contracts/SmartContractLessons/FunctionOutputs.sol\":442:450  b = true */\n      swap1\n      pop\n        /* \"contracts/SmartContractLessons/FunctionOutputs.sol\":280:457  function assigned() public pure returns (uint256 x, bool b) {... */\n      swap1\n      swap2\n      jump\t// out\n        /* \"#utility.yul\":7:84   */\n    tag_27:\n        /* \"#utility.yul\":44:51   */\n      0x00\n        /* \"#utility.yul\":73:78   */\n      dup2\n        /* \"#utility.yul\":62:78   */\n      swap1\n      pop\n        /* \"#utility.yul\":7:84   */\n      swap2\n      swap1\n      pop\n      jump\t// out\n        /* \"#utility.yul\":90:208   */\n    tag_28:\n        /* \"#utility.yul\":177:201   */\n      tag_34\n        /* \"#utility.yul\":195:200   */\n      dup2\n        /* \"#utility.yul\":177:201   */\n      tag_27\n      jump\t// in\n    tag_34:\n        /* \"#utility.yul\":172:175   */\n      dup3\n        /* \"#utility.yul\":165:202   */\n      mstore\n        /* \"#utility.yul\":90:208   */\n      pop\n      pop\n      jump\t// out\n        /* \"#utility.yul\":214:304   */\n    tag_29:\n        /* \"#utility.yul\":248:255   */\n      0x00\n        /* \"#utility.yul\":291:296   */\n      dup2\n        /* \"#utility.yul\":284:297   */\n      iszero\n        /* \"#utility.yul\":277:298   */\n      iszero\n        /* \"#utility.yul\":266:298   */\n      swap1\n      pop\n        /* \"#utility.yul\":214:304   */\n      swap2\n      swap1\n      pop\n      jump\t// out\n        /* \"#utility.yul\":310:419   */\n    tag_30:\n        /* \"#utility.yul\":391:412   */\n      tag_37\n        /* \"#utility.yul\":406:411   */\n      dup2\n        /* \"#utility.yul\":391:412   */\n      tag_29\n      jump\t// in\n    tag_37:\n        /* \"#utility.yul\":386:389   */\n      dup3\n        /* \"#utility.yul\":379:413   */\n      mstore\n        /* \"#utility.yul\":310:419   */\n      pop\n      pop\n      jump\t// out\n        /* \"#utility.yul\":425:843   */\n    tag_10:\n        /* \"#utility.yul\":562:566   */\n      0x00\n        /* \"#utility.yul\":600:602   */\n      0x60\n        /* \"#utility.yul\":589:598   */\n      dup3\n        /* \"#utility.yul\":585:603   */\n      add\n        /* \"#utility.yul\":577:603   */\n      swap1\n      pop\n        /* \"#utility.yul\":613:684   */\n      tag_39\n        /* \"#utility.yul\":681:682   */\n      0x00\n        /* \"#utility.yul\":670:679   */\n      dup4\n        /* \"#utility.yul\":666:683   */\n      add\n        /* \"#utility.yul\":657:663   */\n      dup7\n        /* \"#utility.yul\":613:684   */\n      tag_28\n      jump\t// in\n    tag_39:\n        /* \"#utility.yul\":694:760   */\n      tag_40\n        /* \"#utility.yul\":756:758   */\n      0x20\n        /* \"#utility.yul\":745:754   */\n      dup4\n        /* \"#utility.yul\":741:759   */\n      add\n        /* \"#utility.yul\":732:738   */\n      dup6\n        /* \"#utility.yul\":694:760   */\n      tag_30\n      jump\t// in\n    tag_40:\n        /* \"#utility.yul\":770:836   */\n      tag_41\n        /* \"#utility.yul\":832:834   */\n      0x40\n        /* \"#utility.yul\":821:830   */\n      dup4\n        /* \"#utility.yul\":817:835   */\n      add\n        /* \"#utility.yul\":808:814   */\n      dup5\n        /* \"#utility.yul\":770:836   */\n      tag_30\n      jump\t// in\n    tag_41:\n        /* \"#utility.yul\":425:843   */\n      swap5\n      swap4\n      pop\n      pop\n      pop\n      pop\n      jump\t// out\n        /* \"#utility.yul\":849:1169   */\n    tag_14:\n        /* \"#utility.yul\":964:968   */\n      0x00\n        /* \"#utility.yul\":1002:1004   */\n      0x40\n        /* \"#utility.yul\":991:1000   */\n      dup3\n        /* \"#utility.yul\":987:1005   */\n      add\n        /* \"#utility.yul\":979:1005   */\n      swap1\n      pop\n        /* \"#utility.yul\":1015:1086   */\n      tag_43\n        /* \"#utility.yul\":1083:1084   */\n      0x00\n        /* \"#utility.yul\":1072:1081   */\n      dup4\n        /* \"#utility.yul\":1068:1085   */\n      add\n        /* \"#utility.yul\":1059:1065   */\n      dup6\n        /* \"#utility.yul\":1015:1086   */\n      tag_28\n      jump\t// in\n    tag_43:\n        /* \"#utility.yul\":1096:1162   */\n      tag_44\n        /* \"#utility.yul\":1158:1160   */\n      0x20\n        /* \"#utility.yul\":1147:1156   */\n      dup4\n        /* \"#utility.yul\":1143:1161   */\n      add\n        /* \"#utility.yul\":1134:1140   */\n      dup5\n        /* \"#utility.yul\":1096:1162   */\n      tag_30\n      jump\t// in\n    tag_44:\n        /* \"#utility.yul\":849:1169   */\n      swap4\n      swap3\n      pop\n      pop\n      pop\n      jump\t// out\n\n    auxdata: 0xa2646970667358221220572634b7d5f11351379eff8ae52b6da7a1e95d9881ccae6faa16e1c69de29e1964736f6c63430008110033\n}\n",
				"bytecode": {
					"linkReferences": {},
					"object": "608060405234801561001057600080fd5b506101f6806100206000396000f3fe608060405234801561001057600080fd5b506004361061004c5760003560e01c80633f7f3db61461005157806345f907a8146100715780638688754414610090578063adb4d990146100af575b600080fd5b6100596100ce565b60405161006893929190610160565b60405180910390f35b610079610100565b604051610087929190610197565b60405180910390f35b61009861010f565b6040516100a6929190610197565b60405180910390f35b6100b761011d565b6040516100c5929190610197565b60405180910390f35b60008060008060006100de61010f565b9150915060006100ec610100565b915050828282955095509550505050909192565b60008060016000915091509091565b600080600180915091509091565b60008060019150600190509091565b6000819050919050565b61013f8161012c565b82525050565b60008115159050919050565b61015a81610145565b82525050565b60006060820190506101756000830186610136565b6101826020830185610151565b61018f6040830184610151565b949350505050565b60006040820190506101ac6000830185610136565b6101b96020830184610151565b939250505056fea2646970667358221220572634b7d5f11351379eff8ae52b6da7a1e95d9881ccae6faa16e1c69de29e1964736f6c63430008110033",
					"opcodes": "PUSH1 0x80 PUSH1 0x40 MSTORE CALLVALUE DUP1 ISZERO PUSH2 0x10 JUMPI PUSH1 0x0 DUP1 REVERT JUMPDEST POP PUSH2 0x1F6 DUP1 PUSH2 0x20 PUSH1 0x0 CODECOPY PUSH1 0x0 RETURN INVALID PUSH1 0x80 PUSH1 0x40 MSTORE CALLVALUE DUP1 ISZERO PUSH2 0x10 JUMPI PUSH1 0x0 DUP1 REVERT JUMPDEST POP PUSH1 0x4 CALLDATASIZE LT PUSH2 0x4C JUMPI PUSH1 0x0 CALLDATALOAD PUSH1 0xE0 SHR DUP1 PUSH4 0x3F7F3DB6 EQ PUSH2 0x51 JUMPI DUP1 PUSH4 0x45F907A8 EQ PUSH2 0x71 JUMPI DUP1 PUSH4 0x86887544 EQ PUSH2 0x90 JUMPI DUP1 PUSH4 0xADB4D990 EQ PUSH2 0xAF JUMPI JUMPDEST PUSH1 0x0 DUP1 REVERT JUMPDEST PUSH2 0x59 PUSH2 0xCE JUMP JUMPDEST PUSH1 0x40 MLOAD PUSH2 0x68 SWAP4 SWAP3 SWAP2 SWAP1 PUSH2 0x160 JUMP JUMPDEST PUSH1 0x40 MLOAD DUP1 SWAP2 SUB SWAP1 RETURN JUMPDEST PUSH2 0x79 PUSH2 0x100 JUMP JUMPDEST PUSH1 0x40 MLOAD PUSH2 0x87 SWAP3 SWAP2 SWAP1 PUSH2 0x197 JUMP JUMPDEST PUSH1 0x40 MLOAD DUP1 SWAP2 SUB SWAP1 RETURN JUMPDEST PUSH2 0x98 PUSH2 0x10F JUMP JUMPDEST PUSH1 0x40 MLOAD PUSH2 0xA6 SWAP3 SWAP2 SWAP1 PUSH2 0x197 JUMP JUMPDEST PUSH1 0x40 MLOAD DUP1 SWAP2 SUB SWAP1 RETURN JUMPDEST PUSH2 0xB7 PUSH2 0x11D JUMP JUMPDEST PUSH1 0x40 MLOAD PUSH2 0xC5 SWAP3 SWAP2 SWAP1 PUSH2 0x197 JUMP JUMPDEST PUSH1 0x40 MLOAD DUP1 SWAP2 SUB SWAP1 RETURN JUMPDEST PUSH1 0x0 DUP1 PUSH1 0x0 DUP1 PUSH1 0x0 PUSH2 0xDE PUSH2 0x10F JUMP JUMPDEST SWAP2 POP SWAP2 POP PUSH1 0x0 PUSH2 0xEC PUSH2 0x100 JUMP JUMPDEST SWAP2 POP POP DUP3 DUP3 DUP3 SWAP6 POP SWAP6 POP SWAP6 POP POP POP POP SWAP1 SWAP2 SWAP3 JUMP JUMPDEST PUSH1 0x0 DUP1 PUSH1 0x1 PUSH1 0x0 SWAP2 POP SWAP2 POP SWAP1 SWAP2 JUMP JUMPDEST PUSH1 0x0 DUP1 PUSH1 0x1 DUP1 SWAP2 POP SWAP2 POP SWAP1 SWAP2 JUMP JUMPDEST PUSH1 0x0 DUP1 PUSH1 0x1 SWAP2 POP PUSH1 0x1 SWAP1 POP SWAP1 SWAP2 JUMP JUMPDEST PUSH1 0x0 DUP2 SWAP1 POP SWAP2 SWAP1 POP JUMP JUMPDEST PUSH2 0x13F DUP2 PUSH2 0x12C JUMP JUMPDEST DUP3 MSTORE POP POP JUMP JUMPDEST PUSH1 0x0 DUP2 ISZERO ISZERO SWAP1 POP SWAP2 SWAP1 POP JUMP JUMPDEST PUSH2 0x15A DUP2 PUSH2 0x145 JUMP JUMPDEST DUP3 MSTORE POP POP JUMP JUMPDEST PUSH1 0x0 PUSH1 0x60 DUP3 ADD SWAP1 POP PUSH2 0x175 PUSH1 0x0 DUP4 ADD DUP7 PUSH2 0x136 JUMP JUMPDEST PUSH2 0x182 PUSH1 0x20 DUP4 ADD DUP6 PUSH2 0x151 JUMP JUMPDEST PUSH2 0x18F PUSH1 0x40 DUP4 ADD DUP5 PUSH2 0x151 JUMP JUMPDEST SWAP5 SWAP4 POP POP POP POP JUMP JUMPDEST PUSH1 0x0 PUSH1 0x40 DUP3 ADD SWAP1 POP PUSH2 0x1AC PUSH1 0x0 DUP4 ADD DUP6 PUSH2 0x136 JUMP JUMPDEST PUSH2 0x1B9 PUSH1 0x20 DUP4 ADD DUP5 PUSH2 0x151 JUMP JUMPDEST SWAP4 SWAP3 POP POP POP JUMP INVALID LOG2 PUSH5 0x6970667358 0x22 SLT KECCAK256 JUMPI 0x26 CALLVALUE 0xB7 0xD5 CALL SGT MLOAD CALLDATACOPY SWAP15 SELFDESTRUCT DUP11 0xE5 0x2B PUSH14 0xA7A1E95D9881CCAE6FAA16E1C69D 0xE2 SWAP15 NOT PUSH5 0x736F6C6343 STOP ADDMOD GT STOP CALLER "
				},
				"gasEstimates": {
					"creation": {
						"codeDepositCost": "100400",
						"executionCost": "147",
						"totalCost": "100547"
					},
					"external": {
						"assigned()": "501",
						"destructingAssignments()": "infinite",
						"named()": "457",
						"returnMany()": "479"
					}
				},
				"methodIdentifiers": {
					"assigned()": "adb4d990",
					"destructingAssignments()": "3f7f3db6",
					"named()": "45f907a8",
					"returnMany()": "86887544"
				}
			},
			"storageLayout": {
				"storage": [],
				"types": null
			},
			"userdoc": {
				"kind": "user",
				"methods": {},
				"version": 1
			}
		}
	}
}