{
	"data": {
		"bytecode": {
			"linkReferences": {},
			"object": "608060405234801561001057600080fd5b50610151806100206000396000f3fe608060405234801561001057600080fd5b506004361061002b5760003560e01c8063153a52a314610030575b600080fd5b61004a600480360381019061004591906100c8565b61004c565b005b505050565b600080fd5b6000819050919050565b61006981610056565b811461007457600080fd5b50565b60008135905061008681610060565b92915050565b600063ffffffff82169050919050565b6100a58161008c565b81146100b057600080fd5b50565b6000813590506100c28161009c565b92915050565b6000806000606084860312156100e1576100e0610051565b5b60006100ef86828701610077565b935050602061010086828701610077565b9250506040610111868287016100b3565b915050925092509256fea264697066735822122003e659e897eb21fcb76b171f444080418ddc6f6d196c0091099a69577317fb6a64736f6c63430008110033",
			"opcodes": "PUSH1 0x80 PUSH1 0x40 MSTORE CALLVALUE DUP1 ISZERO PUSH2 0x10 JUMPI PUSH1 0x0 DUP1 REVERT JUMPDEST POP PUSH2 0x151 DUP1 PUSH2 0x20 PUSH1 0x0 CODECOPY PUSH1 0x0 RETURN INVALID PUSH1 0x80 PUSH1 0x40 MSTORE CALLVALUE DUP1 ISZERO PUSH2 0x10 JUMPI PUSH1 0x0 DUP1 REVERT JUMPDEST POP PUSH1 0x4 CALLDATASIZE LT PUSH2 0x2B JUMPI PUSH1 0x0 CALLDATALOAD PUSH1 0xE0 SHR DUP1 PUSH4 0x153A52A3 EQ PUSH2 0x30 JUMPI JUMPDEST PUSH1 0x0 DUP1 REVERT JUMPDEST PUSH2 0x4A PUSH1 0x4 DUP1 CALLDATASIZE SUB DUP2 ADD SWAP1 PUSH2 0x45 SWAP2 SWAP1 PUSH2 0xC8 JUMP JUMPDEST PUSH2 0x4C JUMP JUMPDEST STOP JUMPDEST POP POP POP JUMP JUMPDEST PUSH1 0x0 DUP1 REVERT JUMPDEST PUSH1 0x0 DUP2 SWAP1 POP SWAP2 SWAP1 POP JUMP JUMPDEST PUSH2 0x69 DUP2 PUSH2 0x56 JUMP JUMPDEST DUP2 EQ PUSH2 0x74 JUMPI PUSH1 0x0 DUP1 REVERT JUMPDEST POP JUMP JUMPDEST PUSH1 0x0 DUP2 CALLDATALOAD SWAP1 POP PUSH2 0x86 DUP2 PUSH2 0x60 JUMP JUMPDEST SWAP3 SWAP2 POP POP JUMP JUMPDEST PUSH1 0x0 PUSH4 0xFFFFFFFF DUP3 AND SWAP1 POP SWAP2 SWAP1 POP JUMP JUMPDEST PUSH2 0xA5 DUP2 PUSH2 0x8C JUMP JUMPDEST DUP2 EQ PUSH2 0xB0 JUMPI PUSH1 0x0 DUP1 REVERT JUMPDEST POP JUMP JUMPDEST PUSH1 0x0 DUP2 CALLDATALOAD SWAP1 POP PUSH2 0xC2 DUP2 PUSH2 0x9C JUMP JUMPDEST SWAP3 SWAP2 POP POP JUMP JUMPDEST PUSH1 0x0 DUP1 PUSH1 0x0 PUSH1 0x60 DUP5 DUP7 SUB SLT ISZERO PUSH2 0xE1 JUMPI PUSH2 0xE0 PUSH2 0x51 JUMP JUMPDEST JUMPDEST PUSH1 0x0 PUSH2 0xEF DUP7 DUP3 DUP8 ADD PUSH2 0x77 JUMP JUMPDEST SWAP4 POP POP PUSH1 0x20 PUSH2 0x100 DUP7 DUP3 DUP8 ADD PUSH2 0x77 JUMP JUMPDEST SWAP3 POP POP PUSH1 0x40 PUSH2 0x111 DUP7 DUP3 DUP8 ADD PUSH2 0xB3 JUMP JUMPDEST SWAP2 POP POP SWAP3 POP SWAP3 POP SWAP3 JUMP INVALID LOG2 PUSH5 0x6970667358 0x22 SLT KECCAK256 SUB 0xE6 MSIZE 0xE8 SWAP8 0xEB 0x21 0xFC 0xB7 PUSH12 0x171F444080418DDC6F6D196C STOP SWAP2 MULMOD SWAP11 PUSH10 0x577317FB6A64736F6C63 NUMBER STOP ADDMOD GT STOP CALLER "
		},
		"gasEstimates": {
			"creation": {
				"codeDepositCost": "67400",
				"executionCost": "117",
				"totalCost": "67517"
			},
			"external": {
				"launch(uint256,uint256,uint32)": "infinite"
			}
		},
		"methodIdentifiers": {
			"launch(uint256,uint256,uint32)": "153a52a3"
		}
	},
	"abi": [
		{
			"inputs": [
				{
					"internalType": "uint256",
					"name": "_goal",
					"type": "uint256"
				},
				{
					"internalType": "uint256",
					"name": "_startAt",
					"type": "uint256"
				},
				{
					"internalType": "uint32",
					"name": "_endAt",
					"type": "uint32"
				}
			],
			"name": "launch",
			"outputs": [],
			"stateMutability": "nonpayable",
			"type": "function"
		}
	]
}