{
	"data": {
		"bytecode": {
			"linkReferences": {},
			"object": "608060405234801561001057600080fd5b50610256806100206000396000f3fe608060405234801561001057600080fd5b50600436106100365760003560e01c80635d8d45051461003b57806386d79a6d14610059575b600080fd5b610043610089565b604051610050919061013d565b60405180910390f35b610073600480360381019061006e9190610193565b61009a565b604051610080919061013d565b60405180910390f35b60008054906101000a900460ff1681565b60006100a5826100d2565b6000806101000a81548160ff02191690831515021790555060008054906101000a900460ff169050919050565b600060018210156100e6576000905061011d565b6000600290508281101561011b576000818461010291906101ef565b0361011157600091505061011d565b600191505061011d565b505b919050565b60008115159050919050565b61013781610122565b82525050565b6000602082019050610152600083018461012e565b92915050565b600080fd5b6000819050919050565b6101708161015d565b811461017b57600080fd5b50565b60008135905061018d81610167565b92915050565b6000602082840312156101a9576101a8610158565b5b60006101b78482850161017e565b91505092915050565b7f4e487b7100000000000000000000000000000000000000000000000000000000600052601260045260246000fd5b60006101fa8261015d565b91506102058361015d565b925082610215576102146101c0565b5b82820690509291505056fea264697066735822122098b4b6fd11da3807a206f34dacabc551646272a36b5f63bf2517267a4194c3a564736f6c63430008110033",
			"opcodes": "PUSH1 0x80 PUSH1 0x40 MSTORE CALLVALUE DUP1 ISZERO PUSH2 0x10 JUMPI PUSH1 0x0 DUP1 REVERT JUMPDEST POP PUSH2 0x256 DUP1 PUSH2 0x20 PUSH1 0x0 CODECOPY PUSH1 0x0 RETURN INVALID PUSH1 0x80 PUSH1 0x40 MSTORE CALLVALUE DUP1 ISZERO PUSH2 0x10 JUMPI PUSH1 0x0 DUP1 REVERT JUMPDEST POP PUSH1 0x4 CALLDATASIZE LT PUSH2 0x36 JUMPI PUSH1 0x0 CALLDATALOAD PUSH1 0xE0 SHR DUP1 PUSH4 0x5D8D4505 EQ PUSH2 0x3B JUMPI DUP1 PUSH4 0x86D79A6D EQ PUSH2 0x59 JUMPI JUMPDEST PUSH1 0x0 DUP1 REVERT JUMPDEST PUSH2 0x43 PUSH2 0x89 JUMP JUMPDEST PUSH1 0x40 MLOAD PUSH2 0x50 SWAP2 SWAP1 PUSH2 0x13D JUMP JUMPDEST PUSH1 0x40 MLOAD DUP1 SWAP2 SUB SWAP1 RETURN JUMPDEST PUSH2 0x73 PUSH1 0x4 DUP1 CALLDATASIZE SUB DUP2 ADD SWAP1 PUSH2 0x6E SWAP2 SWAP1 PUSH2 0x193 JUMP JUMPDEST PUSH2 0x9A JUMP JUMPDEST PUSH1 0x40 MLOAD PUSH2 0x80 SWAP2 SWAP1 PUSH2 0x13D JUMP JUMPDEST PUSH1 0x40 MLOAD DUP1 SWAP2 SUB SWAP1 RETURN JUMPDEST PUSH1 0x0 DUP1 SLOAD SWAP1 PUSH2 0x100 EXP SWAP1 DIV PUSH1 0xFF AND DUP2 JUMP JUMPDEST PUSH1 0x0 PUSH2 0xA5 DUP3 PUSH2 0xD2 JUMP JUMPDEST PUSH1 0x0 DUP1 PUSH2 0x100 EXP DUP2 SLOAD DUP2 PUSH1 0xFF MUL NOT AND SWAP1 DUP4 ISZERO ISZERO MUL OR SWAP1 SSTORE POP PUSH1 0x0 DUP1 SLOAD SWAP1 PUSH2 0x100 EXP SWAP1 DIV PUSH1 0xFF AND SWAP1 POP SWAP2 SWAP1 POP JUMP JUMPDEST PUSH1 0x0 PUSH1 0x1 DUP3 LT ISZERO PUSH2 0xE6 JUMPI PUSH1 0x0 SWAP1 POP PUSH2 0x11D JUMP JUMPDEST PUSH1 0x0 PUSH1 0x2 SWAP1 POP DUP3 DUP2 LT ISZERO PUSH2 0x11B JUMPI PUSH1 0x0 DUP2 DUP5 PUSH2 0x102 SWAP2 SWAP1 PUSH2 0x1EF JUMP JUMPDEST SUB PUSH2 0x111 JUMPI PUSH1 0x0 SWAP2 POP POP PUSH2 0x11D JUMP JUMPDEST PUSH1 0x1 SWAP2 POP POP PUSH2 0x11D JUMP JUMPDEST POP JUMPDEST SWAP2 SWAP1 POP JUMP JUMPDEST PUSH1 0x0 DUP2 ISZERO ISZERO SWAP1 POP SWAP2 SWAP1 POP JUMP JUMPDEST PUSH2 0x137 DUP2 PUSH2 0x122 JUMP JUMPDEST DUP3 MSTORE POP POP JUMP JUMPDEST PUSH1 0x0 PUSH1 0x20 DUP3 ADD SWAP1 POP PUSH2 0x152 PUSH1 0x0 DUP4 ADD DUP5 PUSH2 0x12E JUMP JUMPDEST SWAP3 SWAP2 POP POP JUMP JUMPDEST PUSH1 0x0 DUP1 REVERT JUMPDEST PUSH1 0x0 DUP2 SWAP1 POP SWAP2 SWAP1 POP JUMP JUMPDEST PUSH2 0x170 DUP2 PUSH2 0x15D JUMP JUMPDEST DUP2 EQ PUSH2 0x17B JUMPI PUSH1 0x0 DUP1 REVERT JUMPDEST POP JUMP JUMPDEST PUSH1 0x0 DUP2 CALLDATALOAD SWAP1 POP PUSH2 0x18D DUP2 PUSH2 0x167 JUMP JUMPDEST SWAP3 SWAP2 POP POP JUMP JUMPDEST PUSH1 0x0 PUSH1 0x20 DUP3 DUP5 SUB SLT ISZERO PUSH2 0x1A9 JUMPI PUSH2 0x1A8 PUSH2 0x158 JUMP JUMPDEST JUMPDEST PUSH1 0x0 PUSH2 0x1B7 DUP5 DUP3 DUP6 ADD PUSH2 0x17E JUMP JUMPDEST SWAP2 POP POP SWAP3 SWAP2 POP POP JUMP JUMPDEST PUSH32 0x4E487B7100000000000000000000000000000000000000000000000000000000 PUSH1 0x0 MSTORE PUSH1 0x12 PUSH1 0x4 MSTORE PUSH1 0x24 PUSH1 0x0 REVERT JUMPDEST PUSH1 0x0 PUSH2 0x1FA DUP3 PUSH2 0x15D JUMP JUMPDEST SWAP2 POP PUSH2 0x205 DUP4 PUSH2 0x15D JUMP JUMPDEST SWAP3 POP DUP3 PUSH2 0x215 JUMPI PUSH2 0x214 PUSH2 0x1C0 JUMP JUMPDEST JUMPDEST DUP3 DUP3 MOD SWAP1 POP SWAP3 SWAP2 POP POP JUMP INVALID LOG2 PUSH5 0x6970667358 0x22 SLT KECCAK256 SWAP9 0xB4 0xB6 REVERT GT 0xDA CODESIZE SMOD LOG2 MOD RETURN 0x4D 0xAC 0xAB 0xC5 MLOAD PUSH5 0x6272A36B5F PUSH4 0xBF251726 PUSH27 0x4194C3A564736F6C63430008110033000000000000000000000000 "
		},
		"gasEstimates": {
			"creation": {
				"codeDepositCost": "119600",
				"executionCost": "165",
				"totalCost": "119765"
			},
			"external": {
				"checkPrimeNumbers(uint256)": "infinite",
				"isPrime()": "2446"
			}
		},
		"methodIdentifiers": {
			"checkPrimeNumbers(uint256)": "86d79a6d",
			"isPrime()": "5d8d4505"
		}
	},
	"abi": [
		{
			"inputs": [
				{
					"internalType": "uint256",
					"name": "no",
					"type": "uint256"
				}
			],
			"name": "checkPrimeNumbers",
			"outputs": [
				{
					"internalType": "bool",
					"name": "",
					"type": "bool"
				}
			],
			"stateMutability": "nonpayable",
			"type": "function"
		},
		{
			"inputs": [],
			"name": "isPrime",
			"outputs": [
				{
					"internalType": "bool",
					"name": "",
					"type": "bool"
				}
			],
			"stateMutability": "view",
			"type": "function"
		}
	]
}