{
	"data": {
		"bytecode": {
			"linkReferences": {},
			"object": "608060405234801561001057600080fd5b50610fdf806100206000396000f3fe608060405234801561001057600080fd5b50600436106100625760003560e01c8063260f261a14610067578063455f5024146100985780639507d39a146100b4578063b6a46b3b146100e5578063bc8bc2b414610101578063cd11161414610132575b600080fd5b610081600480360381019061007c919061085b565b61014e565b60405161008f92919061093e565b60405180910390f35b6100b260048036038101906100ad91906109a4565b61021d565b005b6100ce60048036038101906100c991906109a4565b610320565b6040516100dc92919061093e565b60405180910390f35b6100ff60048036038101906100fa9190610a31565b6103f5565b005b61011b600480360381019061011691906109a4565b610518565b60405161012992919061093e565b60405180910390f35b61014c60048036038101906101479190610a7e565b6105e1565b005b60018180516020810182018051848252602083016020850120818352809550505050505060009150905080600001805461018790610b0d565b80601f01602080910402602001604051908101604052809291908181526020018280546101b390610b0d565b80156102005780601f106101d557610100808354040283529160200191610200565b820191906000526020600020905b8154815290600101906020018083116101e357829003601f168201915b5050505050908060010160009054906101000a900460ff16905082565b6000818154811061023157610230610b3e565b5b906000526020600020906002020160010160009054906101000a900460ff161560016000838154811061026757610266610b3e565b5b90600052602060002090600202016000016040516102859190610c10565b908152602001604051809103902060010160006101000a81548160ff021916908315150217905550600081815481106102c1576102c0610b3e565b5b906000526020600020906002020160010160009054906101000a900460ff1615600082815481106102f5576102f4610b3e565b5b906000526020600020906002020160010160006101000a81548160ff02191690831515021790555050565b60606000806000848154811061033957610338610b3e565b5b90600052602060002090600202019050806000018160010160009054906101000a900460ff1681805461036b90610b0d565b80601f016020809104026020016040519081016040528092919081815260200182805461039790610b0d565b80156103e45780601f106103b9576101008083540402835291602001916103e4565b820191906000526020600020905b8154815290600101906020018083116103c757829003601f168201915b505050505091509250925050915091565b6000604051806040016040528084848080601f016020809104026020016040519081016040528093929190818152602001838380828437600081840152601f19601f820116905080830192505050505050508152602001600015158152509050600081908060018154018082558091505060019003906000526020600020906002020160009091909190915060008201518160000190816104969190610dbe565b5060208201518160010160006101000a81548160ff021916908315150217905550505080600184846040516104cc929190610eb5565b908152602001604051809103902060008201518160000190816104ef9190610dbe565b5060208201518160010160006101000a81548160ff021916908315150217905550905050505050565b6000818154811061052857600080fd5b906000526020600020906002020160009150905080600001805461054b90610b0d565b80601f016020809104026020016040519081016040528092919081815260200182805461057790610b0d565b80156105c45780601f10610599576101008083540402835291602001916105c4565b820191906000526020600020905b8154815290600101906020018083116105a757829003601f168201915b5050505050908060010160009054906101000a900460ff16905082565b8181600085815481106105f7576105f6610b3e565b5b90600052602060002090600202016000019182610615929190610ed9565b50604051806040016040528083838080601f016020809104026020016040519081016040528093929190818152602001838380828437600081840152601f19601f8201169050808301925050505050505081526020016000858154811061067f5761067e610b3e565b5b906000526020600020906002020160010160009054906101000a900460ff161515815250600183836040516106b5929190610eb5565b908152602001604051809103902060008201518160000190816106d89190610dbe565b5060208201518160010160006101000a81548160ff021916908315150217905550905050505050565b6000604051905090565b600080fd5b600080fd5b600080fd5b600080fd5b6000601f19601f8301169050919050565b7f4e487b7100000000000000000000000000000000000000000000000000000000600052604160045260246000fd5b6107688261071f565b810181811067ffffffffffffffff8211171561078757610786610730565b5b80604052505050565b600061079a610701565b90506107a6828261075f565b919050565b600067ffffffffffffffff8211156107c6576107c5610730565b5b6107cf8261071f565b9050602081019050919050565b82818337600083830152505050565b60006107fe6107f9846107ab565b610790565b90508281526020810184848401111561081a5761081961071a565b5b6108258482856107dc565b509392505050565b600082601f83011261084257610841610715565b5b81356108528482602086016107eb565b91505092915050565b6000602082840312156108715761087061070b565b5b600082013567ffffffffffffffff81111561088f5761088e610710565b5b61089b8482850161082d565b91505092915050565b600081519050919050565b600082825260208201905092915050565b60005b838110156108de5780820151818401526020810190506108c3565b60008484015250505050565b60006108f5826108a4565b6108ff81856108af565b935061090f8185602086016108c0565b6109188161071f565b840191505092915050565b60008115159050919050565b61093881610923565b82525050565b6000604082019050818103600083015261095881856108ea565b9050610967602083018461092f565b9392505050565b6000819050919050565b6109818161096e565b811461098c57600080fd5b50565b60008135905061099e81610978565b92915050565b6000602082840312156109ba576109b961070b565b5b60006109c88482850161098f565b91505092915050565b600080fd5b600080fd5b60008083601f8401126109f1576109f0610715565b5b8235905067ffffffffffffffff811115610a0e57610a0d6109d1565b5b602083019150836001820283011115610a2a57610a296109d6565b5b9250929050565b60008060208385031215610a4857610a4761070b565b5b600083013567ffffffffffffffff811115610a6657610a65610710565b5b610a72858286016109db565b92509250509250929050565b600080600060408486031215610a9757610a9661070b565b5b6000610aa58682870161098f565b935050602084013567ffffffffffffffff811115610ac657610ac5610710565b5b610ad2868287016109db565b92509250509250925092565b7f4e487b7100000000000000000000000000000000000000000000000000000000600052602260045260246000fd5b60006002820490506001821680610b2557607f821691505b602082108103610b3857610b37610ade565b5b50919050565b7f4e487b7100000000000000000000000000000000000000000000000000000000600052603260045260246000fd5b600081905092915050565b60008190508160005260206000209050919050565b60008154610b9a81610b0d565b610ba48186610b6d565b94506001821660008114610bbf5760018114610bd457610c07565b60ff1983168652811515820286019350610c07565b610bdd85610b78565b60005b83811015610bff57815481890152600182019150602081019050610be0565b838801955050505b50505092915050565b6000610c1c8284610b8d565b915081905092915050565b60006020601f8301049050919050565b600082821b905092915050565b600060088302610c747fffffffffffffffffffffffffffffffffffffffffffffffffffffffffffffffff82610c37565b610c7e8683610c37565b95508019841693508086168417925050509392505050565b6000819050919050565b6000610cbb610cb6610cb18461096e565b610c96565b61096e565b9050919050565b6000819050919050565b610cd583610ca0565b610ce9610ce182610cc2565b848454610c44565b825550505050565b600090565b610cfe610cf1565b610d09818484610ccc565b505050565b5b81811015610d2d57610d22600082610cf6565b600181019050610d0f565b5050565b601f821115610d7257610d4381610b78565b610d4c84610c27565b81016020851015610d5b578190505b610d6f610d6785610c27565b830182610d0e565b50505b505050565b600082821c905092915050565b6000610d9560001984600802610d77565b1980831691505092915050565b6000610dae8383610d84565b9150826002028217905092915050565b610dc7826108a4565b67ffffffffffffffff811115610de057610ddf610730565b5b610dea8254610b0d565b610df5828285610d31565b600060209050601f831160018114610e285760008415610e16578287015190505b610e208582610da2565b865550610e88565b601f198416610e3686610b78565b60005b82811015610e5e57848901518255600182019150602085019450602081019050610e39565b86831015610e7b5784890151610e77601f891682610d84565b8355505b6001600288020188555050505b505050505050565b6000610e9c8385610b6d565b9350610ea98385846107dc565b82840190509392505050565b6000610ec2828486610e90565b91508190509392505050565b600082905092915050565b610ee38383610ece565b67ffffffffffffffff811115610efc57610efb610730565b5b610f068254610b0d565b610f11828285610d31565b6000601f831160018114610f405760008415610f2e578287013590505b610f388582610da2565b865550610fa0565b601f198416610f4e86610b78565b60005b82811015610f7657848901358255600182019150602085019450602081019050610f51565b86831015610f935784890135610f8f601f891682610d84565b8355505b6001600288020188555050505b5050505050505056fea26469706673582212205f9cbdac6c7c79dc2dcc4612a5f78ffa42518f2bfd4e49995f33ae5ec4dd8ef664736f6c63430008110033",
			"opcodes": "PUSH1 0x80 PUSH1 0x40 MSTORE CALLVALUE DUP1 ISZERO PUSH2 0x10 JUMPI PUSH1 0x0 DUP1 REVERT JUMPDEST POP PUSH2 0xFDF DUP1 PUSH2 0x20 PUSH1 0x0 CODECOPY PUSH1 0x0 RETURN INVALID PUSH1 0x80 PUSH1 0x40 MSTORE CALLVALUE DUP1 ISZERO PUSH2 0x10 JUMPI PUSH1 0x0 DUP1 REVERT JUMPDEST POP PUSH1 0x4 CALLDATASIZE LT PUSH2 0x62 JUMPI PUSH1 0x0 CALLDATALOAD PUSH1 0xE0 SHR DUP1 PUSH4 0x260F261A EQ PUSH2 0x67 JUMPI DUP1 PUSH4 0x455F5024 EQ PUSH2 0x98 JUMPI DUP1 PUSH4 0x9507D39A EQ PUSH2 0xB4 JUMPI DUP1 PUSH4 0xB6A46B3B EQ PUSH2 0xE5 JUMPI DUP1 PUSH4 0xBC8BC2B4 EQ PUSH2 0x101 JUMPI DUP1 PUSH4 0xCD111614 EQ PUSH2 0x132 JUMPI JUMPDEST PUSH1 0x0 DUP1 REVERT JUMPDEST PUSH2 0x81 PUSH1 0x4 DUP1 CALLDATASIZE SUB DUP2 ADD SWAP1 PUSH2 0x7C SWAP2 SWAP1 PUSH2 0x85B JUMP JUMPDEST PUSH2 0x14E JUMP JUMPDEST PUSH1 0x40 MLOAD PUSH2 0x8F SWAP3 SWAP2 SWAP1 PUSH2 0x93E JUMP JUMPDEST PUSH1 0x40 MLOAD DUP1 SWAP2 SUB SWAP1 RETURN JUMPDEST PUSH2 0xB2 PUSH1 0x4 DUP1 CALLDATASIZE SUB DUP2 ADD SWAP1 PUSH2 0xAD SWAP2 SWAP1 PUSH2 0x9A4 JUMP JUMPDEST PUSH2 0x21D JUMP JUMPDEST STOP JUMPDEST PUSH2 0xCE PUSH1 0x4 DUP1 CALLDATASIZE SUB DUP2 ADD SWAP1 PUSH2 0xC9 SWAP2 SWAP1 PUSH2 0x9A4 JUMP JUMPDEST PUSH2 0x320 JUMP JUMPDEST PUSH1 0x40 MLOAD PUSH2 0xDC SWAP3 SWAP2 SWAP1 PUSH2 0x93E JUMP JUMPDEST PUSH1 0x40 MLOAD DUP1 SWAP2 SUB SWAP1 RETURN JUMPDEST PUSH2 0xFF PUSH1 0x4 DUP1 CALLDATASIZE SUB DUP2 ADD SWAP1 PUSH2 0xFA SWAP2 SWAP1 PUSH2 0xA31 JUMP JUMPDEST PUSH2 0x3F5 JUMP JUMPDEST STOP JUMPDEST PUSH2 0x11B PUSH1 0x4 DUP1 CALLDATASIZE SUB DUP2 ADD SWAP1 PUSH2 0x116 SWAP2 SWAP1 PUSH2 0x9A4 JUMP JUMPDEST PUSH2 0x518 JUMP JUMPDEST PUSH1 0x40 MLOAD PUSH2 0x129 SWAP3 SWAP2 SWAP1 PUSH2 0x93E JUMP JUMPDEST PUSH1 0x40 MLOAD DUP1 SWAP2 SUB SWAP1 RETURN JUMPDEST PUSH2 0x14C PUSH1 0x4 DUP1 CALLDATASIZE SUB DUP2 ADD SWAP1 PUSH2 0x147 SWAP2 SWAP1 PUSH2 0xA7E JUMP JUMPDEST PUSH2 0x5E1 JUMP JUMPDEST STOP JUMPDEST PUSH1 0x1 DUP2 DUP1 MLOAD PUSH1 0x20 DUP2 ADD DUP3 ADD DUP1 MLOAD DUP5 DUP3 MSTORE PUSH1 0x20 DUP4 ADD PUSH1 0x20 DUP6 ADD KECCAK256 DUP2 DUP4 MSTORE DUP1 SWAP6 POP POP POP POP POP POP PUSH1 0x0 SWAP2 POP SWAP1 POP DUP1 PUSH1 0x0 ADD DUP1 SLOAD PUSH2 0x187 SWAP1 PUSH2 0xB0D JUMP JUMPDEST DUP1 PUSH1 0x1F ADD PUSH1 0x20 DUP1 SWAP2 DIV MUL PUSH1 0x20 ADD PUSH1 0x40 MLOAD SWAP1 DUP2 ADD PUSH1 0x40 MSTORE DUP1 SWAP3 SWAP2 SWAP1 DUP2 DUP2 MSTORE PUSH1 0x20 ADD DUP3 DUP1 SLOAD PUSH2 0x1B3 SWAP1 PUSH2 0xB0D JUMP JUMPDEST DUP1 ISZERO PUSH2 0x200 JUMPI DUP1 PUSH1 0x1F LT PUSH2 0x1D5 JUMPI PUSH2 0x100 DUP1 DUP4 SLOAD DIV MUL DUP4 MSTORE SWAP2 PUSH1 0x20 ADD SWAP2 PUSH2 0x200 JUMP JUMPDEST DUP3 ADD SWAP2 SWAP1 PUSH1 0x0 MSTORE PUSH1 0x20 PUSH1 0x0 KECCAK256 SWAP1 JUMPDEST DUP2 SLOAD DUP2 MSTORE SWAP1 PUSH1 0x1 ADD SWAP1 PUSH1 0x20 ADD DUP1 DUP4 GT PUSH2 0x1E3 JUMPI DUP3 SWAP1 SUB PUSH1 0x1F AND DUP3 ADD SWAP2 JUMPDEST POP POP POP POP POP SWAP1 DUP1 PUSH1 0x1 ADD PUSH1 0x0 SWAP1 SLOAD SWAP1 PUSH2 0x100 EXP SWAP1 DIV PUSH1 0xFF AND SWAP1 POP DUP3 JUMP JUMPDEST PUSH1 0x0 DUP2 DUP2 SLOAD DUP2 LT PUSH2 0x231 JUMPI PUSH2 0x230 PUSH2 0xB3E JUMP JUMPDEST JUMPDEST SWAP1 PUSH1 0x0 MSTORE PUSH1 0x20 PUSH1 0x0 KECCAK256 SWAP1 PUSH1 0x2 MUL ADD PUSH1 0x1 ADD PUSH1 0x0 SWAP1 SLOAD SWAP1 PUSH2 0x100 EXP SWAP1 DIV PUSH1 0xFF AND ISZERO PUSH1 0x1 PUSH1 0x0 DUP4 DUP2 SLOAD DUP2 LT PUSH2 0x267 JUMPI PUSH2 0x266 PUSH2 0xB3E JUMP JUMPDEST JUMPDEST SWAP1 PUSH1 0x0 MSTORE PUSH1 0x20 PUSH1 0x0 KECCAK256 SWAP1 PUSH1 0x2 MUL ADD PUSH1 0x0 ADD PUSH1 0x40 MLOAD PUSH2 0x285 SWAP2 SWAP1 PUSH2 0xC10 JUMP JUMPDEST SWAP1 DUP2 MSTORE PUSH1 0x20 ADD PUSH1 0x40 MLOAD DUP1 SWAP2 SUB SWAP1 KECCAK256 PUSH1 0x1 ADD PUSH1 0x0 PUSH2 0x100 EXP DUP2 SLOAD DUP2 PUSH1 0xFF MUL NOT AND SWAP1 DUP4 ISZERO ISZERO MUL OR SWAP1 SSTORE POP PUSH1 0x0 DUP2 DUP2 SLOAD DUP2 LT PUSH2 0x2C1 JUMPI PUSH2 0x2C0 PUSH2 0xB3E JUMP JUMPDEST JUMPDEST SWAP1 PUSH1 0x0 MSTORE PUSH1 0x20 PUSH1 0x0 KECCAK256 SWAP1 PUSH1 0x2 MUL ADD PUSH1 0x1 ADD PUSH1 0x0 SWAP1 SLOAD SWAP1 PUSH2 0x100 EXP SWAP1 DIV PUSH1 0xFF AND ISZERO PUSH1 0x0 DUP3 DUP2 SLOAD DUP2 LT PUSH2 0x2F5 JUMPI PUSH2 0x2F4 PUSH2 0xB3E JUMP JUMPDEST JUMPDEST SWAP1 PUSH1 0x0 MSTORE PUSH1 0x20 PUSH1 0x0 KECCAK256 SWAP1 PUSH1 0x2 MUL ADD PUSH1 0x1 ADD PUSH1 0x0 PUSH2 0x100 EXP DUP2 SLOAD DUP2 PUSH1 0xFF MUL NOT AND SWAP1 DUP4 ISZERO ISZERO MUL OR SWAP1 SSTORE POP POP JUMP JUMPDEST PUSH1 0x60 PUSH1 0x0 DUP1 PUSH1 0x0 DUP5 DUP2 SLOAD DUP2 LT PUSH2 0x339 JUMPI PUSH2 0x338 PUSH2 0xB3E JUMP JUMPDEST JUMPDEST SWAP1 PUSH1 0x0 MSTORE PUSH1 0x20 PUSH1 0x0 KECCAK256 SWAP1 PUSH1 0x2 MUL ADD SWAP1 POP DUP1 PUSH1 0x0 ADD DUP2 PUSH1 0x1 ADD PUSH1 0x0 SWAP1 SLOAD SWAP1 PUSH2 0x100 EXP SWAP1 DIV PUSH1 0xFF AND DUP2 DUP1 SLOAD PUSH2 0x36B SWAP1 PUSH2 0xB0D JUMP JUMPDEST DUP1 PUSH1 0x1F ADD PUSH1 0x20 DUP1 SWAP2 DIV MUL PUSH1 0x20 ADD PUSH1 0x40 MLOAD SWAP1 DUP2 ADD PUSH1 0x40 MSTORE DUP1 SWAP3 SWAP2 SWAP1 DUP2 DUP2 MSTORE PUSH1 0x20 ADD DUP3 DUP1 SLOAD PUSH2 0x397 SWAP1 PUSH2 0xB0D JUMP JUMPDEST DUP1 ISZERO PUSH2 0x3E4 JUMPI DUP1 PUSH1 0x1F LT PUSH2 0x3B9 JUMPI PUSH2 0x100 DUP1 DUP4 SLOAD DIV MUL DUP4 MSTORE SWAP2 PUSH1 0x20 ADD SWAP2 PUSH2 0x3E4 JUMP JUMPDEST DUP3 ADD SWAP2 SWAP1 PUSH1 0x0 MSTORE PUSH1 0x20 PUSH1 0x0 KECCAK256 SWAP1 JUMPDEST DUP2 SLOAD DUP2 MSTORE SWAP1 PUSH1 0x1 ADD SWAP1 PUSH1 0x20 ADD DUP1 DUP4 GT PUSH2 0x3C7 JUMPI DUP3 SWAP1 SUB PUSH1 0x1F AND DUP3 ADD SWAP2 JUMPDEST POP POP POP POP POP SWAP2 POP SWAP3 POP SWAP3 POP POP SWAP2 POP SWAP2 JUMP JUMPDEST PUSH1 0x0 PUSH1 0x40 MLOAD DUP1 PUSH1 0x40 ADD PUSH1 0x40 MSTORE DUP1 DUP5 DUP5 DUP1 DUP1 PUSH1 0x1F ADD PUSH1 0x20 DUP1 SWAP2 DIV MUL PUSH1 0x20 ADD PUSH1 0x40 MLOAD SWAP1 DUP2 ADD PUSH1 0x40 MSTORE DUP1 SWAP4 SWAP3 SWAP2 SWAP1 DUP2 DUP2 MSTORE PUSH1 0x20 ADD DUP4 DUP4 DUP1 DUP3 DUP5 CALLDATACOPY PUSH1 0x0 DUP2 DUP5 ADD MSTORE PUSH1 0x1F NOT PUSH1 0x1F DUP3 ADD AND SWAP1 POP DUP1 DUP4 ADD SWAP3 POP POP POP POP POP POP POP DUP2 MSTORE PUSH1 0x20 ADD PUSH1 0x0 ISZERO ISZERO DUP2 MSTORE POP SWAP1 POP PUSH1 0x0 DUP2 SWAP1 DUP1 PUSH1 0x1 DUP2 SLOAD ADD DUP1 DUP3 SSTORE DUP1 SWAP2 POP POP PUSH1 0x1 SWAP1 SUB SWAP1 PUSH1 0x0 MSTORE PUSH1 0x20 PUSH1 0x0 KECCAK256 SWAP1 PUSH1 0x2 MUL ADD PUSH1 0x0 SWAP1 SWAP2 SWAP1 SWAP2 SWAP1 SWAP2 POP PUSH1 0x0 DUP3 ADD MLOAD DUP2 PUSH1 0x0 ADD SWAP1 DUP2 PUSH2 0x496 SWAP2 SWAP1 PUSH2 0xDBE JUMP JUMPDEST POP PUSH1 0x20 DUP3 ADD MLOAD DUP2 PUSH1 0x1 ADD PUSH1 0x0 PUSH2 0x100 EXP DUP2 SLOAD DUP2 PUSH1 0xFF MUL NOT AND SWAP1 DUP4 ISZERO ISZERO MUL OR SWAP1 SSTORE POP POP POP DUP1 PUSH1 0x1 DUP5 DUP5 PUSH1 0x40 MLOAD PUSH2 0x4CC SWAP3 SWAP2 SWAP1 PUSH2 0xEB5 JUMP JUMPDEST SWAP1 DUP2 MSTORE PUSH1 0x20 ADD PUSH1 0x40 MLOAD DUP1 SWAP2 SUB SWAP1 KECCAK256 PUSH1 0x0 DUP3 ADD MLOAD DUP2 PUSH1 0x0 ADD SWAP1 DUP2 PUSH2 0x4EF SWAP2 SWAP1 PUSH2 0xDBE JUMP JUMPDEST POP PUSH1 0x20 DUP3 ADD MLOAD DUP2 PUSH1 0x1 ADD PUSH1 0x0 PUSH2 0x100 EXP DUP2 SLOAD DUP2 PUSH1 0xFF MUL NOT AND SWAP1 DUP4 ISZERO ISZERO MUL OR SWAP1 SSTORE POP SWAP1 POP POP POP POP POP JUMP JUMPDEST PUSH1 0x0 DUP2 DUP2 SLOAD DUP2 LT PUSH2 0x528 JUMPI PUSH1 0x0 DUP1 REVERT JUMPDEST SWAP1 PUSH1 0x0 MSTORE PUSH1 0x20 PUSH1 0x0 KECCAK256 SWAP1 PUSH1 0x2 MUL ADD PUSH1 0x0 SWAP2 POP SWAP1 POP DUP1 PUSH1 0x0 ADD DUP1 SLOAD PUSH2 0x54B SWAP1 PUSH2 0xB0D JUMP JUMPDEST DUP1 PUSH1 0x1F ADD PUSH1 0x20 DUP1 SWAP2 DIV MUL PUSH1 0x20 ADD PUSH1 0x40 MLOAD SWAP1 DUP2 ADD PUSH1 0x40 MSTORE DUP1 SWAP3 SWAP2 SWAP1 DUP2 DUP2 MSTORE PUSH1 0x20 ADD DUP3 DUP1 SLOAD PUSH2 0x577 SWAP1 PUSH2 0xB0D JUMP JUMPDEST DUP1 ISZERO PUSH2 0x5C4 JUMPI DUP1 PUSH1 0x1F LT PUSH2 0x599 JUMPI PUSH2 0x100 DUP1 DUP4 SLOAD DIV MUL DUP4 MSTORE SWAP2 PUSH1 0x20 ADD SWAP2 PUSH2 0x5C4 JUMP JUMPDEST DUP3 ADD SWAP2 SWAP1 PUSH1 0x0 MSTORE PUSH1 0x20 PUSH1 0x0 KECCAK256 SWAP1 JUMPDEST DUP2 SLOAD DUP2 MSTORE SWAP1 PUSH1 0x1 ADD SWAP1 PUSH1 0x20 ADD DUP1 DUP4 GT PUSH2 0x5A7 JUMPI DUP3 SWAP1 SUB PUSH1 0x1F AND DUP3 ADD SWAP2 JUMPDEST POP POP POP POP POP SWAP1 DUP1 PUSH1 0x1 ADD PUSH1 0x0 SWAP1 SLOAD SWAP1 PUSH2 0x100 EXP SWAP1 DIV PUSH1 0xFF AND SWAP1 POP DUP3 JUMP JUMPDEST DUP2 DUP2 PUSH1 0x0 DUP6 DUP2 SLOAD DUP2 LT PUSH2 0x5F7 JUMPI PUSH2 0x5F6 PUSH2 0xB3E JUMP JUMPDEST JUMPDEST SWAP1 PUSH1 0x0 MSTORE PUSH1 0x20 PUSH1 0x0 KECCAK256 SWAP1 PUSH1 0x2 MUL ADD PUSH1 0x0 ADD SWAP2 DUP3 PUSH2 0x615 SWAP3 SWAP2 SWAP1 PUSH2 0xED9 JUMP JUMPDEST POP PUSH1 0x40 MLOAD DUP1 PUSH1 0x40 ADD PUSH1 0x40 MSTORE DUP1 DUP4 DUP4 DUP1 DUP1 PUSH1 0x1F ADD PUSH1 0x20 DUP1 SWAP2 DIV MUL PUSH1 0x20 ADD PUSH1 0x40 MLOAD SWAP1 DUP2 ADD PUSH1 0x40 MSTORE DUP1 SWAP4 SWAP3 SWAP2 SWAP1 DUP2 DUP2 MSTORE PUSH1 0x20 ADD DUP4 DUP4 DUP1 DUP3 DUP5 CALLDATACOPY PUSH1 0x0 DUP2 DUP5 ADD MSTORE PUSH1 0x1F NOT PUSH1 0x1F DUP3 ADD AND SWAP1 POP DUP1 DUP4 ADD SWAP3 POP POP POP POP POP POP POP DUP2 MSTORE PUSH1 0x20 ADD PUSH1 0x0 DUP6 DUP2 SLOAD DUP2 LT PUSH2 0x67F JUMPI PUSH2 0x67E PUSH2 0xB3E JUMP JUMPDEST JUMPDEST SWAP1 PUSH1 0x0 MSTORE PUSH1 0x20 PUSH1 0x0 KECCAK256 SWAP1 PUSH1 0x2 MUL ADD PUSH1 0x1 ADD PUSH1 0x0 SWAP1 SLOAD SWAP1 PUSH2 0x100 EXP SWAP1 DIV PUSH1 0xFF AND ISZERO ISZERO DUP2 MSTORE POP PUSH1 0x1 DUP4 DUP4 PUSH1 0x40 MLOAD PUSH2 0x6B5 SWAP3 SWAP2 SWAP1 PUSH2 0xEB5 JUMP JUMPDEST SWAP1 DUP2 MSTORE PUSH1 0x20 ADD PUSH1 0x40 MLOAD DUP1 SWAP2 SUB SWAP1 KECCAK256 PUSH1 0x0 DUP3 ADD MLOAD DUP2 PUSH1 0x0 ADD SWAP1 DUP2 PUSH2 0x6D8 SWAP2 SWAP1 PUSH2 0xDBE JUMP JUMPDEST POP PUSH1 0x20 DUP3 ADD MLOAD DUP2 PUSH1 0x1 ADD PUSH1 0x0 PUSH2 0x100 EXP DUP2 SLOAD DUP2 PUSH1 0xFF MUL NOT AND SWAP1 DUP4 ISZERO ISZERO MUL OR SWAP1 SSTORE POP SWAP1 POP POP POP POP POP JUMP JUMPDEST PUSH1 0x0 PUSH1 0x40 MLOAD SWAP1 POP SWAP1 JUMP JUMPDEST PUSH1 0x0 DUP1 REVERT JUMPDEST PUSH1 0x0 DUP1 REVERT JUMPDEST PUSH1 0x0 DUP1 REVERT JUMPDEST PUSH1 0x0 DUP1 REVERT JUMPDEST PUSH1 0x0 PUSH1 0x1F NOT PUSH1 0x1F DUP4 ADD AND SWAP1 POP SWAP2 SWAP1 POP JUMP JUMPDEST PUSH32 0x4E487B7100000000000000000000000000000000000000000000000000000000 PUSH1 0x0 MSTORE PUSH1 0x41 PUSH1 0x4 MSTORE PUSH1 0x24 PUSH1 0x0 REVERT JUMPDEST PUSH2 0x768 DUP3 PUSH2 0x71F JUMP JUMPDEST DUP2 ADD DUP2 DUP2 LT PUSH8 0xFFFFFFFFFFFFFFFF DUP3 GT OR ISZERO PUSH2 0x787 JUMPI PUSH2 0x786 PUSH2 0x730 JUMP JUMPDEST JUMPDEST DUP1 PUSH1 0x40 MSTORE POP POP POP JUMP JUMPDEST PUSH1 0x0 PUSH2 0x79A PUSH2 0x701 JUMP JUMPDEST SWAP1 POP PUSH2 0x7A6 DUP3 DUP3 PUSH2 0x75F JUMP JUMPDEST SWAP2 SWAP1 POP JUMP JUMPDEST PUSH1 0x0 PUSH8 0xFFFFFFFFFFFFFFFF DUP3 GT ISZERO PUSH2 0x7C6 JUMPI PUSH2 0x7C5 PUSH2 0x730 JUMP JUMPDEST JUMPDEST PUSH2 0x7CF DUP3 PUSH2 0x71F JUMP JUMPDEST SWAP1 POP PUSH1 0x20 DUP2 ADD SWAP1 POP SWAP2 SWAP1 POP JUMP JUMPDEST DUP3 DUP2 DUP4 CALLDATACOPY PUSH1 0x0 DUP4 DUP4 ADD MSTORE POP POP POP JUMP JUMPDEST PUSH1 0x0 PUSH2 0x7FE PUSH2 0x7F9 DUP5 PUSH2 0x7AB JUMP JUMPDEST PUSH2 0x790 JUMP JUMPDEST SWAP1 POP DUP3 DUP2 MSTORE PUSH1 0x20 DUP2 ADD DUP5 DUP5 DUP5 ADD GT ISZERO PUSH2 0x81A JUMPI PUSH2 0x819 PUSH2 0x71A JUMP JUMPDEST JUMPDEST PUSH2 0x825 DUP5 DUP3 DUP6 PUSH2 0x7DC JUMP JUMPDEST POP SWAP4 SWAP3 POP POP POP JUMP JUMPDEST PUSH1 0x0 DUP3 PUSH1 0x1F DUP4 ADD SLT PUSH2 0x842 JUMPI PUSH2 0x841 PUSH2 0x715 JUMP JUMPDEST JUMPDEST DUP2 CALLDATALOAD PUSH2 0x852 DUP5 DUP3 PUSH1 0x20 DUP7 ADD PUSH2 0x7EB JUMP JUMPDEST SWAP2 POP POP SWAP3 SWAP2 POP POP JUMP JUMPDEST PUSH1 0x0 PUSH1 0x20 DUP3 DUP5 SUB SLT ISZERO PUSH2 0x871 JUMPI PUSH2 0x870 PUSH2 0x70B JUMP JUMPDEST JUMPDEST PUSH1 0x0 DUP3 ADD CALLDATALOAD PUSH8 0xFFFFFFFFFFFFFFFF DUP2 GT ISZERO PUSH2 0x88F JUMPI PUSH2 0x88E PUSH2 0x710 JUMP JUMPDEST JUMPDEST PUSH2 0x89B DUP5 DUP3 DUP6 ADD PUSH2 0x82D JUMP JUMPDEST SWAP2 POP POP SWAP3 SWAP2 POP POP JUMP JUMPDEST PUSH1 0x0 DUP2 MLOAD SWAP1 POP SWAP2 SWAP1 POP JUMP JUMPDEST PUSH1 0x0 DUP3 DUP3 MSTORE PUSH1 0x20 DUP3 ADD SWAP1 POP SWAP3 SWAP2 POP POP JUMP JUMPDEST PUSH1 0x0 JUMPDEST DUP4 DUP2 LT ISZERO PUSH2 0x8DE JUMPI DUP1 DUP3 ADD MLOAD DUP2 DUP5 ADD MSTORE PUSH1 0x20 DUP2 ADD SWAP1 POP PUSH2 0x8C3 JUMP JUMPDEST PUSH1 0x0 DUP5 DUP5 ADD MSTORE POP POP POP POP JUMP JUMPDEST PUSH1 0x0 PUSH2 0x8F5 DUP3 PUSH2 0x8A4 JUMP JUMPDEST PUSH2 0x8FF DUP2 DUP6 PUSH2 0x8AF JUMP JUMPDEST SWAP4 POP PUSH2 0x90F DUP2 DUP6 PUSH1 0x20 DUP7 ADD PUSH2 0x8C0 JUMP JUMPDEST PUSH2 0x918 DUP2 PUSH2 0x71F JUMP JUMPDEST DUP5 ADD SWAP2 POP POP SWAP3 SWAP2 POP POP JUMP JUMPDEST PUSH1 0x0 DUP2 ISZERO ISZERO SWAP1 POP SWAP2 SWAP1 POP JUMP JUMPDEST PUSH2 0x938 DUP2 PUSH2 0x923 JUMP JUMPDEST DUP3 MSTORE POP POP JUMP JUMPDEST PUSH1 0x0 PUSH1 0x40 DUP3 ADD SWAP1 POP DUP2 DUP2 SUB PUSH1 0x0 DUP4 ADD MSTORE PUSH2 0x958 DUP2 DUP6 PUSH2 0x8EA JUMP JUMPDEST SWAP1 POP PUSH2 0x967 PUSH1 0x20 DUP4 ADD DUP5 PUSH2 0x92F JUMP JUMPDEST SWAP4 SWAP3 POP POP POP JUMP JUMPDEST PUSH1 0x0 DUP2 SWAP1 POP SWAP2 SWAP1 POP JUMP JUMPDEST PUSH2 0x981 DUP2 PUSH2 0x96E JUMP JUMPDEST DUP2 EQ PUSH2 0x98C JUMPI PUSH1 0x0 DUP1 REVERT JUMPDEST POP JUMP JUMPDEST PUSH1 0x0 DUP2 CALLDATALOAD SWAP1 POP PUSH2 0x99E DUP2 PUSH2 0x978 JUMP JUMPDEST SWAP3 SWAP2 POP POP JUMP JUMPDEST PUSH1 0x0 PUSH1 0x20 DUP3 DUP5 SUB SLT ISZERO PUSH2 0x9BA JUMPI PUSH2 0x9B9 PUSH2 0x70B JUMP JUMPDEST JUMPDEST PUSH1 0x0 PUSH2 0x9C8 DUP5 DUP3 DUP6 ADD PUSH2 0x98F JUMP JUMPDEST SWAP2 POP POP SWAP3 SWAP2 POP POP JUMP JUMPDEST PUSH1 0x0 DUP1 REVERT JUMPDEST PUSH1 0x0 DUP1 REVERT JUMPDEST PUSH1 0x0 DUP1 DUP4 PUSH1 0x1F DUP5 ADD SLT PUSH2 0x9F1 JUMPI PUSH2 0x9F0 PUSH2 0x715 JUMP JUMPDEST JUMPDEST DUP3 CALLDATALOAD SWAP1 POP PUSH8 0xFFFFFFFFFFFFFFFF DUP2 GT ISZERO PUSH2 0xA0E JUMPI PUSH2 0xA0D PUSH2 0x9D1 JUMP JUMPDEST JUMPDEST PUSH1 0x20 DUP4 ADD SWAP2 POP DUP4 PUSH1 0x1 DUP3 MUL DUP4 ADD GT ISZERO PUSH2 0xA2A JUMPI PUSH2 0xA29 PUSH2 0x9D6 JUMP JUMPDEST JUMPDEST SWAP3 POP SWAP3 SWAP1 POP JUMP JUMPDEST PUSH1 0x0 DUP1 PUSH1 0x20 DUP4 DUP6 SUB SLT ISZERO PUSH2 0xA48 JUMPI PUSH2 0xA47 PUSH2 0x70B JUMP JUMPDEST JUMPDEST PUSH1 0x0 DUP4 ADD CALLDATALOAD PUSH8 0xFFFFFFFFFFFFFFFF DUP2 GT ISZERO PUSH2 0xA66 JUMPI PUSH2 0xA65 PUSH2 0x710 JUMP JUMPDEST JUMPDEST PUSH2 0xA72 DUP6 DUP3 DUP7 ADD PUSH2 0x9DB JUMP JUMPDEST SWAP3 POP SWAP3 POP POP SWAP3 POP SWAP3 SWAP1 POP JUMP JUMPDEST PUSH1 0x0 DUP1 PUSH1 0x0 PUSH1 0x40 DUP5 DUP7 SUB SLT ISZERO PUSH2 0xA97 JUMPI PUSH2 0xA96 PUSH2 0x70B JUMP JUMPDEST JUMPDEST PUSH1 0x0 PUSH2 0xAA5 DUP7 DUP3 DUP8 ADD PUSH2 0x98F JUMP JUMPDEST SWAP4 POP POP PUSH1 0x20 DUP5 ADD CALLDATALOAD PUSH8 0xFFFFFFFFFFFFFFFF DUP2 GT ISZERO PUSH2 0xAC6 JUMPI PUSH2 0xAC5 PUSH2 0x710 JUMP JUMPDEST JUMPDEST PUSH2 0xAD2 DUP7 DUP3 DUP8 ADD PUSH2 0x9DB JUMP JUMPDEST SWAP3 POP SWAP3 POP POP SWAP3 POP SWAP3 POP SWAP3 JUMP JUMPDEST PUSH32 0x4E487B7100000000000000000000000000000000000000000000000000000000 PUSH1 0x0 MSTORE PUSH1 0x22 PUSH1 0x4 MSTORE PUSH1 0x24 PUSH1 0x0 REVERT JUMPDEST PUSH1 0x0 PUSH1 0x2 DUP3 DIV SWAP1 POP PUSH1 0x1 DUP3 AND DUP1 PUSH2 0xB25 JUMPI PUSH1 0x7F DUP3 AND SWAP2 POP JUMPDEST PUSH1 0x20 DUP3 LT DUP2 SUB PUSH2 0xB38 JUMPI PUSH2 0xB37 PUSH2 0xADE JUMP JUMPDEST JUMPDEST POP SWAP2 SWAP1 POP JUMP JUMPDEST PUSH32 0x4E487B7100000000000000000000000000000000000000000000000000000000 PUSH1 0x0 MSTORE PUSH1 0x32 PUSH1 0x4 MSTORE PUSH1 0x24 PUSH1 0x0 REVERT JUMPDEST PUSH1 0x0 DUP2 SWAP1 POP SWAP3 SWAP2 POP POP JUMP JUMPDEST PUSH1 0x0 DUP2 SWAP1 POP DUP2 PUSH1 0x0 MSTORE PUSH1 0x20 PUSH1 0x0 KECCAK256 SWAP1 POP SWAP2 SWAP1 POP JUMP JUMPDEST PUSH1 0x0 DUP2 SLOAD PUSH2 0xB9A DUP2 PUSH2 0xB0D JUMP JUMPDEST PUSH2 0xBA4 DUP2 DUP7 PUSH2 0xB6D JUMP JUMPDEST SWAP5 POP PUSH1 0x1 DUP3 AND PUSH1 0x0 DUP2 EQ PUSH2 0xBBF JUMPI PUSH1 0x1 DUP2 EQ PUSH2 0xBD4 JUMPI PUSH2 0xC07 JUMP JUMPDEST PUSH1 0xFF NOT DUP4 AND DUP7 MSTORE DUP2 ISZERO ISZERO DUP3 MUL DUP7 ADD SWAP4 POP PUSH2 0xC07 JUMP JUMPDEST PUSH2 0xBDD DUP6 PUSH2 0xB78 JUMP JUMPDEST PUSH1 0x0 JUMPDEST DUP4 DUP2 LT ISZERO PUSH2 0xBFF JUMPI DUP2 SLOAD DUP2 DUP10 ADD MSTORE PUSH1 0x1 DUP3 ADD SWAP2 POP PUSH1 0x20 DUP2 ADD SWAP1 POP PUSH2 0xBE0 JUMP JUMPDEST DUP4 DUP9 ADD SWAP6 POP POP POP JUMPDEST POP POP POP SWAP3 SWAP2 POP POP JUMP JUMPDEST PUSH1 0x0 PUSH2 0xC1C DUP3 DUP5 PUSH2 0xB8D JUMP JUMPDEST SWAP2 POP DUP2 SWAP1 POP SWAP3 SWAP2 POP POP JUMP JUMPDEST PUSH1 0x0 PUSH1 0x20 PUSH1 0x1F DUP4 ADD DIV SWAP1 POP SWAP2 SWAP1 POP JUMP JUMPDEST PUSH1 0x0 DUP3 DUP3 SHL SWAP1 POP SWAP3 SWAP2 POP POP JUMP JUMPDEST PUSH1 0x0 PUSH1 0x8 DUP4 MUL PUSH2 0xC74 PUSH32 0xFFFFFFFFFFFFFFFFFFFFFFFFFFFFFFFFFFFFFFFFFFFFFFFFFFFFFFFFFFFFFFFF DUP3 PUSH2 0xC37 JUMP JUMPDEST PUSH2 0xC7E DUP7 DUP4 PUSH2 0xC37 JUMP JUMPDEST SWAP6 POP DUP1 NOT DUP5 AND SWAP4 POP DUP1 DUP7 AND DUP5 OR SWAP3 POP POP POP SWAP4 SWAP3 POP POP POP JUMP JUMPDEST PUSH1 0x0 DUP2 SWAP1 POP SWAP2 SWAP1 POP JUMP JUMPDEST PUSH1 0x0 PUSH2 0xCBB PUSH2 0xCB6 PUSH2 0xCB1 DUP5 PUSH2 0x96E JUMP JUMPDEST PUSH2 0xC96 JUMP JUMPDEST PUSH2 0x96E JUMP JUMPDEST SWAP1 POP SWAP2 SWAP1 POP JUMP JUMPDEST PUSH1 0x0 DUP2 SWAP1 POP SWAP2 SWAP1 POP JUMP JUMPDEST PUSH2 0xCD5 DUP4 PUSH2 0xCA0 JUMP JUMPDEST PUSH2 0xCE9 PUSH2 0xCE1 DUP3 PUSH2 0xCC2 JUMP JUMPDEST DUP5 DUP5 SLOAD PUSH2 0xC44 JUMP JUMPDEST DUP3 SSTORE POP POP POP POP JUMP JUMPDEST PUSH1 0x0 SWAP1 JUMP JUMPDEST PUSH2 0xCFE PUSH2 0xCF1 JUMP JUMPDEST PUSH2 0xD09 DUP2 DUP5 DUP5 PUSH2 0xCCC JUMP JUMPDEST POP POP POP JUMP JUMPDEST JUMPDEST DUP2 DUP2 LT ISZERO PUSH2 0xD2D JUMPI PUSH2 0xD22 PUSH1 0x0 DUP3 PUSH2 0xCF6 JUMP JUMPDEST PUSH1 0x1 DUP2 ADD SWAP1 POP PUSH2 0xD0F JUMP JUMPDEST POP POP JUMP JUMPDEST PUSH1 0x1F DUP3 GT ISZERO PUSH2 0xD72 JUMPI PUSH2 0xD43 DUP2 PUSH2 0xB78 JUMP JUMPDEST PUSH2 0xD4C DUP5 PUSH2 0xC27 JUMP JUMPDEST DUP2 ADD PUSH1 0x20 DUP6 LT ISZERO PUSH2 0xD5B JUMPI DUP2 SWAP1 POP JUMPDEST PUSH2 0xD6F PUSH2 0xD67 DUP6 PUSH2 0xC27 JUMP JUMPDEST DUP4 ADD DUP3 PUSH2 0xD0E JUMP JUMPDEST POP POP JUMPDEST POP POP POP JUMP JUMPDEST PUSH1 0x0 DUP3 DUP3 SHR SWAP1 POP SWAP3 SWAP2 POP POP JUMP JUMPDEST PUSH1 0x0 PUSH2 0xD95 PUSH1 0x0 NOT DUP5 PUSH1 0x8 MUL PUSH2 0xD77 JUMP JUMPDEST NOT DUP1 DUP4 AND SWAP2 POP POP SWAP3 SWAP2 POP POP JUMP JUMPDEST PUSH1 0x0 PUSH2 0xDAE DUP4 DUP4 PUSH2 0xD84 JUMP JUMPDEST SWAP2 POP DUP3 PUSH1 0x2 MUL DUP3 OR SWAP1 POP SWAP3 SWAP2 POP POP JUMP JUMPDEST PUSH2 0xDC7 DUP3 PUSH2 0x8A4 JUMP JUMPDEST PUSH8 0xFFFFFFFFFFFFFFFF DUP2 GT ISZERO PUSH2 0xDE0 JUMPI PUSH2 0xDDF PUSH2 0x730 JUMP JUMPDEST JUMPDEST PUSH2 0xDEA DUP3 SLOAD PUSH2 0xB0D JUMP JUMPDEST PUSH2 0xDF5 DUP3 DUP3 DUP6 PUSH2 0xD31 JUMP JUMPDEST PUSH1 0x0 PUSH1 0x20 SWAP1 POP PUSH1 0x1F DUP4 GT PUSH1 0x1 DUP2 EQ PUSH2 0xE28 JUMPI PUSH1 0x0 DUP5 ISZERO PUSH2 0xE16 JUMPI DUP3 DUP8 ADD MLOAD SWAP1 POP JUMPDEST PUSH2 0xE20 DUP6 DUP3 PUSH2 0xDA2 JUMP JUMPDEST DUP7 SSTORE POP PUSH2 0xE88 JUMP JUMPDEST PUSH1 0x1F NOT DUP5 AND PUSH2 0xE36 DUP7 PUSH2 0xB78 JUMP JUMPDEST PUSH1 0x0 JUMPDEST DUP3 DUP2 LT ISZERO PUSH2 0xE5E JUMPI DUP5 DUP10 ADD MLOAD DUP3 SSTORE PUSH1 0x1 DUP3 ADD SWAP2 POP PUSH1 0x20 DUP6 ADD SWAP5 POP PUSH1 0x20 DUP2 ADD SWAP1 POP PUSH2 0xE39 JUMP JUMPDEST DUP7 DUP4 LT ISZERO PUSH2 0xE7B JUMPI DUP5 DUP10 ADD MLOAD PUSH2 0xE77 PUSH1 0x1F DUP10 AND DUP3 PUSH2 0xD84 JUMP JUMPDEST DUP4 SSTORE POP JUMPDEST PUSH1 0x1 PUSH1 0x2 DUP9 MUL ADD DUP9 SSTORE POP POP POP JUMPDEST POP POP POP POP POP POP JUMP JUMPDEST PUSH1 0x0 PUSH2 0xE9C DUP4 DUP6 PUSH2 0xB6D JUMP JUMPDEST SWAP4 POP PUSH2 0xEA9 DUP4 DUP6 DUP5 PUSH2 0x7DC JUMP JUMPDEST DUP3 DUP5 ADD SWAP1 POP SWAP4 SWAP3 POP POP POP JUMP JUMPDEST PUSH1 0x0 PUSH2 0xEC2 DUP3 DUP5 DUP7 PUSH2 0xE90 JUMP JUMPDEST SWAP2 POP DUP2 SWAP1 POP SWAP4 SWAP3 POP POP POP JUMP JUMPDEST PUSH1 0x0 DUP3 SWAP1 POP SWAP3 SWAP2 POP POP JUMP JUMPDEST PUSH2 0xEE3 DUP4 DUP4 PUSH2 0xECE JUMP JUMPDEST PUSH8 0xFFFFFFFFFFFFFFFF DUP2 GT ISZERO PUSH2 0xEFC JUMPI PUSH2 0xEFB PUSH2 0x730 JUMP JUMPDEST JUMPDEST PUSH2 0xF06 DUP3 SLOAD PUSH2 0xB0D JUMP JUMPDEST PUSH2 0xF11 DUP3 DUP3 DUP6 PUSH2 0xD31 JUMP JUMPDEST PUSH1 0x0 PUSH1 0x1F DUP4 GT PUSH1 0x1 DUP2 EQ PUSH2 0xF40 JUMPI PUSH1 0x0 DUP5 ISZERO PUSH2 0xF2E JUMPI DUP3 DUP8 ADD CALLDATALOAD SWAP1 POP JUMPDEST PUSH2 0xF38 DUP6 DUP3 PUSH2 0xDA2 JUMP JUMPDEST DUP7 SSTORE POP PUSH2 0xFA0 JUMP JUMPDEST PUSH1 0x1F NOT DUP5 AND PUSH2 0xF4E DUP7 PUSH2 0xB78 JUMP JUMPDEST PUSH1 0x0 JUMPDEST DUP3 DUP2 LT ISZERO PUSH2 0xF76 JUMPI DUP5 DUP10 ADD CALLDATALOAD DUP3 SSTORE PUSH1 0x1 DUP3 ADD SWAP2 POP PUSH1 0x20 DUP6 ADD SWAP5 POP PUSH1 0x20 DUP2 ADD SWAP1 POP PUSH2 0xF51 JUMP JUMPDEST DUP7 DUP4 LT ISZERO PUSH2 0xF93 JUMPI DUP5 DUP10 ADD CALLDATALOAD PUSH2 0xF8F PUSH1 0x1F DUP10 AND DUP3 PUSH2 0xD84 JUMP JUMPDEST DUP4 SSTORE POP JUMPDEST PUSH1 0x1 PUSH1 0x2 DUP9 MUL ADD DUP9 SSTORE POP POP POP JUMPDEST POP POP POP POP POP POP POP JUMP INVALID LOG2 PUSH5 0x6970667358 0x22 SLT KECCAK256 0x5F SWAP13 0xBD 0xAC PUSH13 0x7C79DC2DCC4612A5F78FFA4251 DUP16 0x2B REVERT 0x4E 0x49 SWAP10 0x5F CALLER 0xAE 0x5E 0xC4 0xDD DUP15 0xF6 PUSH5 0x736F6C6343 STOP ADDMOD GT STOP CALLER "
		},
		"gasEstimates": {
			"creation": {
				"codeDepositCost": "812600",
				"executionCost": "844",
				"totalCost": "813444"
			},
			"external": {
				"create(string)": "infinite",
				"get(uint256)": "infinite",
				"mappedTodo(string)": "infinite",
				"todos(uint256)": "infinite",
				"toggleCompleted(uint256)": "infinite",
				"updateText(uint256,string)": "infinite"
			}
		},
		"methodIdentifiers": {
			"create(string)": "b6a46b3b",
			"get(uint256)": "9507d39a",
			"mappedTodo(string)": "260f261a",
			"todos(uint256)": "bc8bc2b4",
			"toggleCompleted(uint256)": "455f5024",
			"updateText(uint256,string)": "cd111614"
		}
	},
	"abi": [
		{
			"inputs": [
				{
					"internalType": "string",
					"name": "_text",
					"type": "string"
				}
			],
			"name": "create",
			"outputs": [],
			"stateMutability": "nonpayable",
			"type": "function"
		},
		{
			"inputs": [
				{
					"internalType": "uint256",
					"name": "_index",
					"type": "uint256"
				}
			],
			"name": "get",
			"outputs": [
				{
					"internalType": "string",
					"name": "",
					"type": "string"
				},
				{
					"internalType": "bool",
					"name": "",
					"type": "bool"
				}
			],
			"stateMutability": "view",
			"type": "function"
		},
		{
			"inputs": [
				{
					"internalType": "string",
					"name": "",
					"type": "string"
				}
			],
			"name": "mappedTodo",
			"outputs": [
				{
					"internalType": "string",
					"name": "text",
					"type": "string"
				},
				{
					"internalType": "bool",
					"name": "completed",
					"type": "bool"
				}
			],
			"stateMutability": "view",
			"type": "function"
		},
		{
			"inputs": [
				{
					"internalType": "uint256",
					"name": "",
					"type": "uint256"
				}
			],
			"name": "todos",
			"outputs": [
				{
					"internalType": "string",
					"name": "text",
					"type": "string"
				},
				{
					"internalType": "bool",
					"name": "completed",
					"type": "bool"
				}
			],
			"stateMutability": "view",
			"type": "function"
		},
		{
			"inputs": [
				{
					"internalType": "uint256",
					"name": "_index",
					"type": "uint256"
				}
			],
			"name": "toggleCompleted",
			"outputs": [],
			"stateMutability": "nonpayable",
			"type": "function"
		},
		{
			"inputs": [
				{
					"internalType": "uint256",
					"name": "_index",
					"type": "uint256"
				},
				{
					"internalType": "string",
					"name": "_text",
					"type": "string"
				}
			],
			"name": "updateText",
			"outputs": [],
			"stateMutability": "nonpayable",
			"type": "function"
		}
	]
}