{
	"data": {
		"bytecode": {
			"linkReferences": {},
			"object": "608060405260008055600180556002805534801561001c57600080fd5b506101e78061002c6000396000f3fe608060405234801561001057600080fd5b506004361061004c5760003560e01c80633a32b5491461005157806354353f2f1461006f5780637b5d520b14610079578063c5d7802e14610097575b600080fd5b6100596100b5565b6040516100669190610133565b60405180910390f35b6100776100be565b005b6100816100f9565b60405161008e9190610133565b60405180910390f35b61009f610102565b6040516100ac9190610133565b60405180910390f35b60006001905090565b6002546001546000546100d1919061017d565b6100db919061017d565b506100e4610108565b506100ed610111565b506100f66100f9565b50565b60006001905090565b60025481565b60006001905090565b60006001905090565b6000819050919050565b61012d8161011a565b82525050565b60006020820190506101486000830184610124565b92915050565b7f4e487b7100000000000000000000000000000000000000000000000000000000600052601160045260246000fd5b60006101888261011a565b91506101938361011a565b92508282019050808211156101ab576101aa61014e565b5b9291505056fea2646970667358221220029ebdc74c4f10eb922b91669761b61eea7ceb2f841a3e41db677b5dcf57503b64736f6c63430008110033",
			"opcodes": "PUSH1 0x80 PUSH1 0x40 MSTORE PUSH1 0x0 DUP1 SSTORE PUSH1 0x1 DUP1 SSTORE PUSH1 0x2 DUP1 SSTORE CALLVALUE DUP1 ISZERO PUSH2 0x1C JUMPI PUSH1 0x0 DUP1 REVERT JUMPDEST POP PUSH2 0x1E7 DUP1 PUSH2 0x2C PUSH1 0x0 CODECOPY PUSH1 0x0 RETURN INVALID PUSH1 0x80 PUSH1 0x40 MSTORE CALLVALUE DUP1 ISZERO PUSH2 0x10 JUMPI PUSH1 0x0 DUP1 REVERT JUMPDEST POP PUSH1 0x4 CALLDATASIZE LT PUSH2 0x4C JUMPI PUSH1 0x0 CALLDATALOAD PUSH1 0xE0 SHR DUP1 PUSH4 0x3A32B549 EQ PUSH2 0x51 JUMPI DUP1 PUSH4 0x54353F2F EQ PUSH2 0x6F JUMPI DUP1 PUSH4 0x7B5D520B EQ PUSH2 0x79 JUMPI DUP1 PUSH4 0xC5D7802E EQ PUSH2 0x97 JUMPI JUMPDEST PUSH1 0x0 DUP1 REVERT JUMPDEST PUSH2 0x59 PUSH2 0xB5 JUMP JUMPDEST PUSH1 0x40 MLOAD PUSH2 0x66 SWAP2 SWAP1 PUSH2 0x133 JUMP JUMPDEST PUSH1 0x40 MLOAD DUP1 SWAP2 SUB SWAP1 RETURN JUMPDEST PUSH2 0x77 PUSH2 0xBE JUMP JUMPDEST STOP JUMPDEST PUSH2 0x81 PUSH2 0xF9 JUMP JUMPDEST PUSH1 0x40 MLOAD PUSH2 0x8E SWAP2 SWAP1 PUSH2 0x133 JUMP JUMPDEST PUSH1 0x40 MLOAD DUP1 SWAP2 SUB SWAP1 RETURN JUMPDEST PUSH2 0x9F PUSH2 0x102 JUMP JUMPDEST PUSH1 0x40 MLOAD PUSH2 0xAC SWAP2 SWAP1 PUSH2 0x133 JUMP JUMPDEST PUSH1 0x40 MLOAD DUP1 SWAP2 SUB SWAP1 RETURN JUMPDEST PUSH1 0x0 PUSH1 0x1 SWAP1 POP SWAP1 JUMP JUMPDEST PUSH1 0x2 SLOAD PUSH1 0x1 SLOAD PUSH1 0x0 SLOAD PUSH2 0xD1 SWAP2 SWAP1 PUSH2 0x17D JUMP JUMPDEST PUSH2 0xDB SWAP2 SWAP1 PUSH2 0x17D JUMP JUMPDEST POP PUSH2 0xE4 PUSH2 0x108 JUMP JUMPDEST POP PUSH2 0xED PUSH2 0x111 JUMP JUMPDEST POP PUSH2 0xF6 PUSH2 0xF9 JUMP JUMPDEST POP JUMP JUMPDEST PUSH1 0x0 PUSH1 0x1 SWAP1 POP SWAP1 JUMP JUMPDEST PUSH1 0x2 SLOAD DUP2 JUMP JUMPDEST PUSH1 0x0 PUSH1 0x1 SWAP1 POP SWAP1 JUMP JUMPDEST PUSH1 0x0 PUSH1 0x1 SWAP1 POP SWAP1 JUMP JUMPDEST PUSH1 0x0 DUP2 SWAP1 POP SWAP2 SWAP1 POP JUMP JUMPDEST PUSH2 0x12D DUP2 PUSH2 0x11A JUMP JUMPDEST DUP3 MSTORE POP POP JUMP JUMPDEST PUSH1 0x0 PUSH1 0x20 DUP3 ADD SWAP1 POP PUSH2 0x148 PUSH1 0x0 DUP4 ADD DUP5 PUSH2 0x124 JUMP JUMPDEST SWAP3 SWAP2 POP POP JUMP JUMPDEST PUSH32 0x4E487B7100000000000000000000000000000000000000000000000000000000 PUSH1 0x0 MSTORE PUSH1 0x11 PUSH1 0x4 MSTORE PUSH1 0x24 PUSH1 0x0 REVERT JUMPDEST PUSH1 0x0 PUSH2 0x188 DUP3 PUSH2 0x11A JUMP JUMPDEST SWAP2 POP PUSH2 0x193 DUP4 PUSH2 0x11A JUMP JUMPDEST SWAP3 POP DUP3 DUP3 ADD SWAP1 POP DUP1 DUP3 GT ISZERO PUSH2 0x1AB JUMPI PUSH2 0x1AA PUSH2 0x14E JUMP JUMPDEST JUMPDEST SWAP3 SWAP2 POP POP JUMP INVALID LOG2 PUSH5 0x6970667358 0x22 SLT KECCAK256 MUL SWAP15 0xBD 0xC7 0x4C 0x4F LT 0xEB SWAP3 0x2B SWAP2 PUSH7 0x9761B61EEA7CEB 0x2F DUP5 BYTE RETURNDATACOPY COINBASE 0xDB PUSH8 0x7B5DCF57503B6473 PUSH16 0x6C634300081100330000000000000000 "
		},
		"gasEstimates": {
			"creation": {
				"codeDepositCost": "97400",
				"executionCost": "49365",
				"totalCost": "146765"
			},
			"external": {
				"example()": "infinite",
				"externalFunction()": "315",
				"publicFunction()": "359",
				"z()": "2473"
			},
			"internal": {
				"internalFunction()": "23",
				"privateFunction()": "23"
			}
		},
		"methodIdentifiers": {
			"example()": "54353f2f",
			"externalFunction()": "3a32b549",
			"publicFunction()": "7b5d520b",
			"z()": "c5d7802e"
		}
	},
	"abi": [
		{
			"inputs": [],
			"name": "example",
			"outputs": [],
			"stateMutability": "view",
			"type": "function"
		},
		{
			"inputs": [],
			"name": "externalFunction",
			"outputs": [
				{
					"internalType": "uint256",
					"name": "",
					"type": "uint256"
				}
			],
			"stateMutability": "pure",
			"type": "function"
		},
		{
			"inputs": [],
			"name": "publicFunction",
			"outputs": [
				{
					"internalType": "uint256",
					"name": "",
					"type": "uint256"
				}
			],
			"stateMutability": "pure",
			"type": "function"
		},
		{
			"inputs": [],
			"name": "z",
			"outputs": [
				{
					"internalType": "uint256",
					"name": "",
					"type": "uint256"
				}
			],
			"stateMutability": "view",
			"type": "function"
		}
	]
}