{
	"contracts/Counter1.sol": {
		"Counter": {
			"abi": [
				{
					"inputs": [],
					"name": "MY_ADDRESS",
					"outputs": [
						{
							"internalType": "address",
							"name": "",
							"type": "address"
						}
					],
					"stateMutability": "view",
					"type": "function"
				},
				{
					"inputs": [],
					"name": "count",
					"outputs": [
						{
							"internalType": "uint256",
							"name": "",
							"type": "uint256"
						}
					],
					"stateMutability": "view",
					"type": "function"
				},
				{
					"inputs": [],
					"name": "dec",
					"outputs": [],
					"stateMutability": "nonpayable",
					"type": "function"
				},
				{
					"inputs": [],
					"name": "inc",
					"outputs": [],
					"stateMutability": "nonpayable",
					"type": "function"
				}
			],
			"devdoc": {
				"kind": "dev",
				"methods": {},
				"version": 1
			},
			"evm": {
				"assembly": "    /* \"contracts/Counter1.sol\":56:418  contract Counter {... */\n  mstore(0x40, 0x80)\n  callvalue\n  dup1\n  iszero\n  tag_1\n  jumpi\n  0x00\n  dup1\n  revert\ntag_1:\n  pop\n  dataSize(sub_0)\n  dup1\n  dataOffset(sub_0)\n  0x00\n  codecopy\n  0x00\n  return\nstop\n\nsub_0: assembly {\n        /* \"contracts/Counter1.sol\":56:418  contract Counter {... */\n      mstore(0x40, 0x80)\n      callvalue\n      dup1\n      iszero\n      tag_1\n      jumpi\n      0x00\n      dup1\n      revert\n    tag_1:\n      pop\n      jumpi(tag_2, lt(calldatasize, 0x04))\n      shr(0xe0, calldataload(0x00))\n      dup1\n      0x06661abd\n      eq\n      tag_3\n      jumpi\n      dup1\n      0x371303c0\n      eq\n      tag_4\n      jumpi\n      dup1\n      0x3a756cec\n      eq\n      tag_5\n      jumpi\n      dup1\n      0xb3bcfa82\n      eq\n      tag_6\n      jumpi\n    tag_2:\n      0x00\n      dup1\n      revert\n        /* \"contracts/Counter1.sol\":79:99  uint256 public count */\n    tag_3:\n      tag_7\n      tag_8\n      jump\t// in\n    tag_7:\n      mload(0x40)\n      tag_9\n      swap2\n      swap1\n      tag_10\n      jump\t// in\n    tag_9:\n      mload(0x40)\n      dup1\n      swap2\n      sub\n      swap1\n      return\n        /* \"contracts/Counter1.sol\":185:236  function inc() external {... */\n    tag_4:\n      tag_11\n      tag_12\n      jump\t// in\n    tag_11:\n      stop\n        /* \"contracts/Counter1.sol\":298:377  address public constant MY_ADDRESS = 0xd9145CCE52D386f254917e481eB44e9943F39138 */\n    tag_5:\n      tag_13\n      tag_14\n      jump\t// in\n    tag_13:\n      mload(0x40)\n      tag_15\n      swap2\n      swap1\n      tag_16\n      jump\t// in\n    tag_15:\n      mload(0x40)\n      dup1\n      swap2\n      sub\n      swap1\n      return\n        /* \"contracts/Counter1.sol\":242:293  function dec() external {... */\n    tag_6:\n      tag_17\n      tag_18\n      jump\t// in\n    tag_17:\n      stop\n        /* \"contracts/Counter1.sol\":79:99  uint256 public count */\n    tag_8:\n      sload(0x00)\n      dup2\n      jump\t// out\n        /* \"contracts/Counter1.sol\":185:236  function inc() external {... */\n    tag_12:\n        /* \"contracts/Counter1.sol\":228:229  1 */\n      0x01\n        /* \"contracts/Counter1.sol\":219:224  count */\n      0x00\n      dup1\n        /* \"contracts/Counter1.sol\":219:229  count += 1 */\n      dup3\n      dup3\n      sload\n      tag_20\n      swap2\n      swap1\n      tag_21\n      jump\t// in\n    tag_20:\n      swap3\n      pop\n      pop\n      dup2\n      swap1\n      sstore\n      pop\n        /* \"contracts/Counter1.sol\":185:236  function inc() external {... */\n      jump\t// out\n        /* \"contracts/Counter1.sol\":298:377  address public constant MY_ADDRESS = 0xd9145CCE52D386f254917e481eB44e9943F39138 */\n    tag_14:\n        /* \"contracts/Counter1.sol\":335:377  0xd9145CCE52D386f254917e481eB44e9943F39138 */\n      0xd9145cce52d386f254917e481eb44e9943f39138\n        /* \"contracts/Counter1.sol\":298:377  address public constant MY_ADDRESS = 0xd9145CCE52D386f254917e481eB44e9943F39138 */\n      dup2\n      jump\t// out\n        /* \"contracts/Counter1.sol\":242:293  function dec() external {... */\n    tag_18:\n        /* \"contracts/Counter1.sol\":285:286  1 */\n      0x01\n        /* \"contracts/Counter1.sol\":276:281  count */\n      0x00\n      dup1\n        /* \"contracts/Counter1.sol\":276:286  count -= 1 */\n      dup3\n      dup3\n      sload\n      tag_23\n      swap2\n      swap1\n      tag_24\n      jump\t// in\n    tag_23:\n      swap3\n      pop\n      pop\n      dup2\n      swap1\n      sstore\n      pop\n        /* \"contracts/Counter1.sol\":242:293  function dec() external {... */\n      jump\t// out\n        /* \"#utility.yul\":7:125   */\n    tag_26:\n        /* \"#utility.yul\":94:118   */\n      tag_28\n        /* \"#utility.yul\":112:117   */\n      dup2\n        /* \"#utility.yul\":94:118   */\n      tag_29\n      jump\t// in\n    tag_28:\n        /* \"#utility.yul\":89:92   */\n      dup3\n        /* \"#utility.yul\":82:119   */\n      mstore\n        /* \"#utility.yul\":7:125   */\n      pop\n      pop\n      jump\t// out\n        /* \"#utility.yul\":131:249   */\n    tag_30:\n        /* \"#utility.yul\":218:242   */\n      tag_32\n        /* \"#utility.yul\":236:241   */\n      dup2\n        /* \"#utility.yul\":218:242   */\n      tag_33\n      jump\t// in\n    tag_32:\n        /* \"#utility.yul\":213:216   */\n      dup3\n        /* \"#utility.yul\":206:243   */\n      mstore\n        /* \"#utility.yul\":131:249   */\n      pop\n      pop\n      jump\t// out\n        /* \"#utility.yul\":255:477   */\n    tag_16:\n        /* \"#utility.yul\":348:352   */\n      0x00\n        /* \"#utility.yul\":386:388   */\n      0x20\n        /* \"#utility.yul\":375:384   */\n      dup3\n        /* \"#utility.yul\":371:389   */\n      add\n        /* \"#utility.yul\":363:389   */\n      swap1\n      pop\n        /* \"#utility.yul\":399:470   */\n      tag_35\n        /* \"#utility.yul\":467:468   */\n      0x00\n        /* \"#utility.yul\":456:465   */\n      dup4\n        /* \"#utility.yul\":452:469   */\n      add\n        /* \"#utility.yul\":443:449   */\n      dup5\n        /* \"#utility.yul\":399:470   */\n      tag_26\n      jump\t// in\n    tag_35:\n        /* \"#utility.yul\":255:477   */\n      swap3\n      swap2\n      pop\n      pop\n      jump\t// out\n        /* \"#utility.yul\":483:705   */\n    tag_10:\n        /* \"#utility.yul\":576:580   */\n      0x00\n        /* \"#utility.yul\":614:616   */\n      0x20\n        /* \"#utility.yul\":603:612   */\n      dup3\n        /* \"#utility.yul\":599:617   */\n      add\n        /* \"#utility.yul\":591:617   */\n      swap1\n      pop\n        /* \"#utility.yul\":627:698   */\n      tag_37\n        /* \"#utility.yul\":695:696   */\n      0x00\n        /* \"#utility.yul\":684:693   */\n      dup4\n        /* \"#utility.yul\":680:697   */\n      add\n        /* \"#utility.yul\":671:677   */\n      dup5\n        /* \"#utility.yul\":627:698   */\n      tag_30\n      jump\t// in\n    tag_37:\n        /* \"#utility.yul\":483:705   */\n      swap3\n      swap2\n      pop\n      pop\n      jump\t// out\n        /* \"#utility.yul\":711:1016   */\n    tag_21:\n        /* \"#utility.yul\":751:754   */\n      0x00\n        /* \"#utility.yul\":770:790   */\n      tag_39\n        /* \"#utility.yul\":788:789   */\n      dup3\n        /* \"#utility.yul\":770:790   */\n      tag_33\n      jump\t// in\n    tag_39:\n        /* \"#utility.yul\":765:790   */\n      swap2\n      pop\n        /* \"#utility.yul\":804:824   */\n      tag_40\n        /* \"#utility.yul\":822:823   */\n      dup4\n        /* \"#utility.yul\":804:824   */\n      tag_33\n      jump\t// in\n    tag_40:\n        /* \"#utility.yul\":799:824   */\n      swap3\n      pop\n        /* \"#utility.yul\":958:959   */\n      dup3\n        /* \"#utility.yul\":890:956   */\n      0xffffffffffffffffffffffffffffffffffffffffffffffffffffffffffffffff\n        /* \"#utility.yul\":886:960   */\n      sub\n        /* \"#utility.yul\":883:884   */\n      dup3\n        /* \"#utility.yul\":880:961   */\n      gt\n        /* \"#utility.yul\":877:984   */\n      iszero\n      tag_41\n      jumpi\n        /* \"#utility.yul\":964:982   */\n      tag_42\n      tag_43\n      jump\t// in\n    tag_42:\n        /* \"#utility.yul\":877:984   */\n    tag_41:\n        /* \"#utility.yul\":1008:1009   */\n      dup3\n        /* \"#utility.yul\":1005:1006   */\n      dup3\n        /* \"#utility.yul\":1001:1010   */\n      add\n        /* \"#utility.yul\":994:1010   */\n      swap1\n      pop\n        /* \"#utility.yul\":711:1016   */\n      swap3\n      swap2\n      pop\n      pop\n      jump\t// out\n        /* \"#utility.yul\":1022:1213   */\n    tag_24:\n        /* \"#utility.yul\":1062:1066   */\n      0x00\n        /* \"#utility.yul\":1082:1102   */\n      tag_45\n        /* \"#utility.yul\":1100:1101   */\n      dup3\n        /* \"#utility.yul\":1082:1102   */\n      tag_33\n      jump\t// in\n    tag_45:\n        /* \"#utility.yul\":1077:1102   */\n      swap2\n      pop\n        /* \"#utility.yul\":1116:1136   */\n      tag_46\n        /* \"#utility.yul\":1134:1135   */\n      dup4\n        /* \"#utility.yul\":1116:1136   */\n      tag_33\n      jump\t// in\n    tag_46:\n        /* \"#utility.yul\":1111:1136   */\n      swap3\n      pop\n        /* \"#utility.yul\":1155:1156   */\n      dup3\n        /* \"#utility.yul\":1152:1153   */\n      dup3\n        /* \"#utility.yul\":1149:1157   */\n      lt\n        /* \"#utility.yul\":1146:1180   */\n      iszero\n      tag_47\n      jumpi\n        /* \"#utility.yul\":1160:1178   */\n      tag_48\n      tag_43\n      jump\t// in\n    tag_48:\n        /* \"#utility.yul\":1146:1180   */\n    tag_47:\n        /* \"#utility.yul\":1205:1206   */\n      dup3\n        /* \"#utility.yul\":1202:1203   */\n      dup3\n        /* \"#utility.yul\":1198:1207   */\n      sub\n        /* \"#utility.yul\":1190:1207   */\n      swap1\n      pop\n        /* \"#utility.yul\":1022:1213   */\n      swap3\n      swap2\n      pop\n      pop\n      jump\t// out\n        /* \"#utility.yul\":1219:1315   */\n    tag_29:\n        /* \"#utility.yul\":1256:1263   */\n      0x00\n        /* \"#utility.yul\":1285:1309   */\n      tag_50\n        /* \"#utility.yul\":1303:1308   */\n      dup3\n        /* \"#utility.yul\":1285:1309   */\n      tag_51\n      jump\t// in\n    tag_50:\n        /* \"#utility.yul\":1274:1309   */\n      swap1\n      pop\n        /* \"#utility.yul\":1219:1315   */\n      swap2\n      swap1\n      pop\n      jump\t// out\n        /* \"#utility.yul\":1321:1447   */\n    tag_51:\n        /* \"#utility.yul\":1358:1365   */\n      0x00\n        /* \"#utility.yul\":1398:1440   */\n      0xffffffffffffffffffffffffffffffffffffffff\n        /* \"#utility.yul\":1391:1396   */\n      dup3\n        /* \"#utility.yul\":1387:1441   */\n      and\n        /* \"#utility.yul\":1376:1441   */\n      swap1\n      pop\n        /* \"#utility.yul\":1321:1447   */\n      swap2\n      swap1\n      pop\n      jump\t// out\n        /* \"#utility.yul\":1453:1530   */\n    tag_33:\n        /* \"#utility.yul\":1490:1497   */\n      0x00\n        /* \"#utility.yul\":1519:1524   */\n      dup2\n        /* \"#utility.yul\":1508:1524   */\n      swap1\n      pop\n        /* \"#utility.yul\":1453:1530   */\n      swap2\n      swap1\n      pop\n      jump\t// out\n        /* \"#utility.yul\":1536:1716   */\n    tag_43:\n        /* \"#utility.yul\":1584:1661   */\n      0x4e487b7100000000000000000000000000000000000000000000000000000000\n        /* \"#utility.yul\":1581:1582   */\n      0x00\n        /* \"#utility.yul\":1574:1662   */\n      mstore\n        /* \"#utility.yul\":1681:1685   */\n      0x11\n        /* \"#utility.yul\":1678:1679   */\n      0x04\n        /* \"#utility.yul\":1671:1686   */\n      mstore\n        /* \"#utility.yul\":1705:1709   */\n      0x24\n        /* \"#utility.yul\":1702:1703   */\n      0x00\n        /* \"#utility.yul\":1695:1710   */\n      revert\n\n    auxdata: 0xa264697066735822122078322627d42f5c063c67f1cf53da345a7140bce3296afe7f56b482f2018e740364736f6c63430008070033\n}\n",
				"bytecode": {
					"linkReferences": {},
					"object": "608060405234801561001057600080fd5b50610274806100206000396000f3fe608060405234801561001057600080fd5b506004361061004c5760003560e01c806306661abd14610051578063371303c01461006f5780633a756cec14610079578063b3bcfa8214610097575b600080fd5b6100596100a1565b604051610066919061012e565b60405180910390f35b6100776100a7565b005b6100816100c2565b60405161008e9190610113565b60405180910390f35b61009f6100da565b005b60005481565b60016000808282546100b99190610149565b92505081905550565b73d9145cce52d386f254917e481eb44e9943f3913881565b60016000808282546100ec919061019f565b92505081905550565b6100fe816101d3565b82525050565b61010d81610205565b82525050565b600060208201905061012860008301846100f5565b92915050565b60006020820190506101436000830184610104565b92915050565b600061015482610205565b915061015f83610205565b9250827fffffffffffffffffffffffffffffffffffffffffffffffffffffffffffffffff038211156101945761019361020f565b5b828201905092915050565b60006101aa82610205565b91506101b583610205565b9250828210156101c8576101c761020f565b5b828203905092915050565b60006101de826101e5565b9050919050565b600073ffffffffffffffffffffffffffffffffffffffff82169050919050565b6000819050919050565b7f4e487b7100000000000000000000000000000000000000000000000000000000600052601160045260246000fdfea264697066735822122078322627d42f5c063c67f1cf53da345a7140bce3296afe7f56b482f2018e740364736f6c63430008070033",
					"opcodes": "PUSH1 0x80 PUSH1 0x40 MSTORE CALLVALUE DUP1 ISZERO PUSH2 0x10 JUMPI PUSH1 0x0 DUP1 REVERT JUMPDEST POP PUSH2 0x274 DUP1 PUSH2 0x20 PUSH1 0x0 CODECOPY PUSH1 0x0 RETURN INVALID PUSH1 0x80 PUSH1 0x40 MSTORE CALLVALUE DUP1 ISZERO PUSH2 0x10 JUMPI PUSH1 0x0 DUP1 REVERT JUMPDEST POP PUSH1 0x4 CALLDATASIZE LT PUSH2 0x4C JUMPI PUSH1 0x0 CALLDATALOAD PUSH1 0xE0 SHR DUP1 PUSH4 0x6661ABD EQ PUSH2 0x51 JUMPI DUP1 PUSH4 0x371303C0 EQ PUSH2 0x6F JUMPI DUP1 PUSH4 0x3A756CEC EQ PUSH2 0x79 JUMPI DUP1 PUSH4 0xB3BCFA82 EQ PUSH2 0x97 JUMPI JUMPDEST PUSH1 0x0 DUP1 REVERT JUMPDEST PUSH2 0x59 PUSH2 0xA1 JUMP JUMPDEST PUSH1 0x40 MLOAD PUSH2 0x66 SWAP2 SWAP1 PUSH2 0x12E JUMP JUMPDEST PUSH1 0x40 MLOAD DUP1 SWAP2 SUB SWAP1 RETURN JUMPDEST PUSH2 0x77 PUSH2 0xA7 JUMP JUMPDEST STOP JUMPDEST PUSH2 0x81 PUSH2 0xC2 JUMP JUMPDEST PUSH1 0x40 MLOAD PUSH2 0x8E SWAP2 SWAP1 PUSH2 0x113 JUMP JUMPDEST PUSH1 0x40 MLOAD DUP1 SWAP2 SUB SWAP1 RETURN JUMPDEST PUSH2 0x9F PUSH2 0xDA JUMP JUMPDEST STOP JUMPDEST PUSH1 0x0 SLOAD DUP2 JUMP JUMPDEST PUSH1 0x1 PUSH1 0x0 DUP1 DUP3 DUP3 SLOAD PUSH2 0xB9 SWAP2 SWAP1 PUSH2 0x149 JUMP JUMPDEST SWAP3 POP POP DUP2 SWAP1 SSTORE POP JUMP JUMPDEST PUSH20 0xD9145CCE52D386F254917E481EB44E9943F39138 DUP2 JUMP JUMPDEST PUSH1 0x1 PUSH1 0x0 DUP1 DUP3 DUP3 SLOAD PUSH2 0xEC SWAP2 SWAP1 PUSH2 0x19F JUMP JUMPDEST SWAP3 POP POP DUP2 SWAP1 SSTORE POP JUMP JUMPDEST PUSH2 0xFE DUP2 PUSH2 0x1D3 JUMP JUMPDEST DUP3 MSTORE POP POP JUMP JUMPDEST PUSH2 0x10D DUP2 PUSH2 0x205 JUMP JUMPDEST DUP3 MSTORE POP POP JUMP JUMPDEST PUSH1 0x0 PUSH1 0x20 DUP3 ADD SWAP1 POP PUSH2 0x128 PUSH1 0x0 DUP4 ADD DUP5 PUSH2 0xF5 JUMP JUMPDEST SWAP3 SWAP2 POP POP JUMP JUMPDEST PUSH1 0x0 PUSH1 0x20 DUP3 ADD SWAP1 POP PUSH2 0x143 PUSH1 0x0 DUP4 ADD DUP5 PUSH2 0x104 JUMP JUMPDEST SWAP3 SWAP2 POP POP JUMP JUMPDEST PUSH1 0x0 PUSH2 0x154 DUP3 PUSH2 0x205 JUMP JUMPDEST SWAP2 POP PUSH2 0x15F DUP4 PUSH2 0x205 JUMP JUMPDEST SWAP3 POP DUP3 PUSH32 0xFFFFFFFFFFFFFFFFFFFFFFFFFFFFFFFFFFFFFFFFFFFFFFFFFFFFFFFFFFFFFFFF SUB DUP3 GT ISZERO PUSH2 0x194 JUMPI PUSH2 0x193 PUSH2 0x20F JUMP JUMPDEST JUMPDEST DUP3 DUP3 ADD SWAP1 POP SWAP3 SWAP2 POP POP JUMP JUMPDEST PUSH1 0x0 PUSH2 0x1AA DUP3 PUSH2 0x205 JUMP JUMPDEST SWAP2 POP PUSH2 0x1B5 DUP4 PUSH2 0x205 JUMP JUMPDEST SWAP3 POP DUP3 DUP3 LT ISZERO PUSH2 0x1C8 JUMPI PUSH2 0x1C7 PUSH2 0x20F JUMP JUMPDEST JUMPDEST DUP3 DUP3 SUB SWAP1 POP SWAP3 SWAP2 POP POP JUMP JUMPDEST PUSH1 0x0 PUSH2 0x1DE DUP3 PUSH2 0x1E5 JUMP JUMPDEST SWAP1 POP SWAP2 SWAP1 POP JUMP JUMPDEST PUSH1 0x0 PUSH20 0xFFFFFFFFFFFFFFFFFFFFFFFFFFFFFFFFFFFFFFFF DUP3 AND SWAP1 POP SWAP2 SWAP1 POP JUMP JUMPDEST PUSH1 0x0 DUP2 SWAP1 POP SWAP2 SWAP1 POP JUMP JUMPDEST PUSH32 0x4E487B7100000000000000000000000000000000000000000000000000000000 PUSH1 0x0 MSTORE PUSH1 0x11 PUSH1 0x4 MSTORE PUSH1 0x24 PUSH1 0x0 REVERT INVALID LOG2 PUSH5 0x6970667358 0x22 SLT KECCAK256 PUSH25 0x322627D42F5C063C67F1CF53DA345A7140BCE3296AFE7F56B4 DUP3 CALLCODE ADD DUP15 PUSH21 0x364736F6C63430008070033000000000000000000 "
				},
				"gasEstimates": {
					"creation": {
						"codeDepositCost": "125600",
						"executionCost": "171",
						"totalCost": "125771"
					},
					"external": {
						"MY_ADDRESS()": "400",
						"count()": "2407",
						"dec()": "infinite",
						"inc()": "infinite"
					}
				},
				"methodIdentifiers": {
					"MY_ADDRESS()": "3a756cec",
					"count()": "06661abd",
					"dec()": "b3bcfa82",
					"inc()": "371303c0"
				}
			},
			"storageLayout": {
				"storage": [
					{
						"astId": 3,
						"contract": "contracts/Counter1.sol:Counter",
						"label": "count",
						"offset": 0,
						"slot": "0",
						"type": "t_uint256"
					}
				],
				"types": {
					"t_uint256": {
						"encoding": "inplace",
						"label": "uint256",
						"numberOfBytes": "32"
					}
				}
			},
			"userdoc": {
				"kind": "user",
				"methods": {},
				"version": 1
			}
		}
	}
}